{
	"data": {
		"bytecode": {
			"linkReferences": {},
			"object": "608060405234801561000f575f80fd5b5060405161281a38038061281a83398181016040528101906100319190610258565b335f73ffffffffffffffffffffffffffffffffffffffff168173ffffffffffffffffffffffffffffffffffffffff16036100a2575f6040517f1e4fbdf700000000000000000000000000000000000000000000000000000000815260040161009991906102a5565b60405180910390fd5b6100b18161013960201b60201c565b508160015f6101000a81548173ffffffffffffffffffffffffffffffffffffffff021916908373ffffffffffffffffffffffffffffffffffffffff1602179055508060025f6101000a81548173ffffffffffffffffffffffffffffffffffffffff021916908373ffffffffffffffffffffffffffffffffffffffff16021790555050506102be565b5f805f9054906101000a900473ffffffffffffffffffffffffffffffffffffffff169050815f806101000a81548173ffffffffffffffffffffffffffffffffffffffff021916908373ffffffffffffffffffffffffffffffffffffffff1602179055508173ffffffffffffffffffffffffffffffffffffffff168173ffffffffffffffffffffffffffffffffffffffff167f8be0079c531659141344cd1fd0a4f28419497f9722a3daafe3b4186f6b6457e060405160405180910390a35050565b5f80fd5b5f73ffffffffffffffffffffffffffffffffffffffff82169050919050565b5f610227826101fe565b9050919050565b6102378161021d565b8114610241575f80fd5b50565b5f815190506102528161022e565b92915050565b5f806040838503121561026e5761026d6101fa565b5b5f61027b85828601610244565b925050602061028c85828601610244565b9150509250929050565b61029f8161021d565b82525050565b5f6020820190506102b85f830184610296565b92915050565b61254f806102cb5f395ff3fe608060405234801561000f575f80fd5b50600436106100cd575f3560e01c8063715018a61161008a5780639b873a77116100645780639b873a77146101c1578063a4f266c3146101dd578063e7031c3f146101f9578063f2fde38b14610215576100cd565b8063715018a61461017d5780638da5cb5b1461018757806396303958146101a5576100cd565b8063315a095d146100d157806342df8ec7146100ed5780635af4926a146101095780635d61fbfd1461012557806363a1c8951461014357806368323b9d1461015f575b5f80fd5b6100eb60048036038101906100e69190611140565b610231565b005b61010760048036038101906101029190611140565b6102d9565b005b610123600480360381019061011e9190611301565b61050f565b005b61012d61069f565b60405161013a919061136a565b60405180910390f35b61015d600480360381019061015891906113a6565b6106ab565b005b610167610852565b604051610174919061136a565b60405180910390f35b61018561085e565b005b61018f610871565b60405161019c91906113fc565b60405180910390f35b6101bf60048036038101906101ba9190611472565b610898565b005b6101db60048036038101906101d691906114ed565b610aa7565b005b6101f760048036038101906101f29190611553565b610cea565b005b610213600480360381019061020e91906115b9565b610d99565b005b61022f600480360381019061022a9190611600565b610e48565b005b610239610ecc565b60015f9054906101000a900473ffffffffffffffffffffffffffffffffffffffff1673ffffffffffffffffffffffffffffffffffffffff1663a9059cbb33836040518363ffffffff1660e01b815260040161029592919061162b565b6020604051808303815f875af11580156102b1573d5f803e3d5ffd5b505050506040513d601f19601f820116820180604052508101906102d59190611687565b5050565b6002808111156102ec576102eb6116b2565b5b60075f3373ffffffffffffffffffffffffffffffffffffffff1673ffffffffffffffffffffffffffffffffffffffff1681526020019081526020015f205f9054906101000a900460ff166002811115610348576103476116b2565b5b14610388576040517f08c379a000000000000000000000000000000000000000000000000000000000815260040161037f90611739565b60405180910390fd5b60015f9054906101000a900473ffffffffffffffffffffffffffffffffffffffff1673ffffffffffffffffffffffffffffffffffffffff166323b872dd3330678ac7230489e800006040518463ffffffff1660e01b81526004016103ee93929190611757565b6020604051808303815f875af115801561040a573d5f803e3d5ffd5b505050506040513d601f19601f8201168201806040525081019061042e9190611687565b5060025f9054906101000a900473ffffffffffffffffffffffffffffffffffffffff1673ffffffffffffffffffffffffffffffffffffffff16636352211e826040518263ffffffff1660e01b8152600401610489919061136a565b602060405180830381865afa1580156104a4573d5f803e3d5ffd5b505050506040513d601f19601f820116820180604052508101906104c891906117a0565b503373ffffffffffffffffffffffffffffffffffffffff167f42a066648d5669b827b485237fd3fb492e73e0559ef94a54eb5740d0aa9a4a7360405160405180910390a250565b60016002811115610523576105226116b2565b5b60075f3373ffffffffffffffffffffffffffffffffffffffff1673ffffffffffffffffffffffffffffffffffffffff1681526020019081526020015f205f9054906101000a900460ff16600281111561057f5761057e6116b2565b5b146105bf576040517f08c379a00000000000000000000000000000000000000000000000000000000081526004016105b690611815565b60405180910390fd5b6105d3336008610f5390919063ffffffff16565b610612576040517f08c379a00000000000000000000000000000000000000000000000000000000081526004016106099061187d565b60405180910390fd5b60025f9054906101000a900473ffffffffffffffffffffffffffffffffffffffff1673ffffffffffffffffffffffffffffffffffffffff1663b76e800883836040518363ffffffff1660e01b815260040161066e9291906118eb565b5f604051808303815f87803b158015610685575f80fd5b505af1158015610697573d5f803e3d5ffd5b505050505050565b67d02ab486cedc000081565b5f60028111156106be576106bd6116b2565b5b60075f3373ffffffffffffffffffffffffffffffffffffffff1673ffffffffffffffffffffffffffffffffffffffff1681526020019081526020015f205f9054906101000a900460ff16600281111561071a576107196116b2565b5b1461075a576040517f08c379a000000000000000000000000000000000000000000000000000000000815260040161075190611963565b60405180910390fd5b8060045f3373ffffffffffffffffffffffffffffffffffffffff1673ffffffffffffffffffffffffffffffffffffffff1681526020019081526020015f2081816107a49190611ea2565b905050600260075f3373ffffffffffffffffffffffffffffffffffffffff1673ffffffffffffffffffffffffffffffffffffffff1681526020019081526020015f205f6101000a81548160ff02191690836002811115610807576108066116b2565b5b02179055503373ffffffffffffffffffffffffffffffffffffffff167f62806c829f7c8d0f1563dbdcf4f05f12a6b3c0e29ab581b0ccdffd608e99393860405160405180910390a250565b678ac7230489e8000081565b610866610ecc565b61086f5f610f80565b565b5f805f9054906101000a900473ffffffffffffffffffffffffffffffffffffffff16905090565b6002808111156108ab576108aa6116b2565b5b60075f3373ffffffffffffffffffffffffffffffffffffffff1673ffffffffffffffffffffffffffffffffffffffff1681526020019081526020015f205f9054906101000a900460ff166002811115610907576109066116b2565b5b14610947576040517f08c379a000000000000000000000000000000000000000000000000000000000815260040161093e90611efa565b60405180910390fd5b5f60055f8581526020019081526020015f205f01540361099c576040517f08c379a000000000000000000000000000000000000000000000000000000000815260040161099390611f62565b60405180910390fd5b818160055f8681526020019081526020015f2060100191826109bf929190611c77565b5060015f9054906101000a900473ffffffffffffffffffffffffffffffffffffffff1673ffffffffffffffffffffffffffffffffffffffff166381a4af153367d02ab486cedc00006040518363ffffffff1660e01b8152600401610a2492919061162b565b5f604051808303815f87803b158015610a3b575f80fd5b505af1158015610a4d573d5f803e3d5ffd5b50505050823373ffffffffffffffffffffffffffffffffffffffff167fa5ffe3c8a5b0f27fa09a3627bb91ed2bddbb6cfe9eda65bc60c27ded3832038f8484604051610a9a929190611fac565b60405180910390a3505050565b5f6002811115610aba57610ab96116b2565b5b60075f3373ffffffffffffffffffffffffffffffffffffffff1673ffffffffffffffffffffffffffffffffffffffff1681526020019081526020015f205f9054906101000a900460ff166002811115610b1657610b156116b2565b5b14610b56576040517f08c379a0000000000000000000000000000000000000000000000000000000008152600401610b4d90611963565b60405180910390fd5b8060035f3373ffffffffffffffffffffffffffffffffffffffff1673ffffffffffffffffffffffffffffffffffffffff1681526020019081526020015f208181610ba091906120b7565b905050600160075f3373ffffffffffffffffffffffffffffffffffffffff1673ffffffffffffffffffffffffffffffffffffffff1681526020019081526020015f205f6101000a81548160ff02191690836002811115610c0357610c026116b2565b5b0217905550610c1c33600861104190919063ffffffff16565b5060025f9054906101000a900473ffffffffffffffffffffffffffffffffffffffff1673ffffffffffffffffffffffffffffffffffffffff16633dd1eb61336040518263ffffffff1660e01b8152600401610c7791906113fc565b5f604051808303815f87803b158015610c8e575f80fd5b505af1158015610ca0573d5f803e3d5ffd5b505050503373ffffffffffffffffffffffffffffffffffffffff167f065583abf6a1e576f5c0bd9e9d475ca0811ac12df7a5fdd43e22eb16deadbf8160405160405180910390a250565b5f60055f835f013581526020019081526020015f205f015414610d42576040517f08c379a0000000000000000000000000000000000000000000000000000000008152600401610d399061210f565b60405180910390fd5b8060055f835f013581526020019081526020015f208181610d639190612369565b905050805f01357fde7803a0a05f793f65dad5843953677bea5f2f920f0a1afccebd9f68adf8f54760405160405180910390a250565b5f60065f835f013581526020019081526020015f205f015414610df1576040517f08c379a0000000000000000000000000000000000000000000000000000000008152600401610de8906123c1565b60405180910390fd5b8060065f835f013581526020019081526020015f208181610e12919061250b565b905050805f01357f93efd3907149c30d51f6a8aa033d131acf0465add6ca277b929eb0fe932a63ce60405160405180910390a250565b610e50610ecc565b5f73ffffffffffffffffffffffffffffffffffffffff168173ffffffffffffffffffffffffffffffffffffffff1603610ec0575f6040517f1e4fbdf7000000000000000000000000000000000000000000000000000000008152600401610eb791906113fc565b60405180910390fd5b610ec981610f80565b50565b610ed461106e565b73ffffffffffffffffffffffffffffffffffffffff16610ef2610871565b73ffffffffffffffffffffffffffffffffffffffff1614610f5157610f1561106e565b6040517f118cdaa7000000000000000000000000000000000000000000000000000000008152600401610f4891906113fc565b60405180910390fd5b565b5f610f78835f018373ffffffffffffffffffffffffffffffffffffffff165f1b611075565b905092915050565b5f805f9054906101000a900473ffffffffffffffffffffffffffffffffffffffff169050815f806101000a81548173ffffffffffffffffffffffffffffffffffffffff021916908373ffffffffffffffffffffffffffffffffffffffff1602179055508173ffffffffffffffffffffffffffffffffffffffff168173ffffffffffffffffffffffffffffffffffffffff167f8be0079c531659141344cd1fd0a4f28419497f9722a3daafe3b4186f6b6457e060405160405180910390a35050565b5f611066835f018373ffffffffffffffffffffffffffffffffffffffff165f1b611095565b905092915050565b5f33905090565b5f80836001015f8481526020019081526020015f20541415905092915050565b5f6110a08383611075565b6110f257825f0182908060018154018082558091505060019003905f5260205f20015f9091909190915055825f0180549050836001015f8481526020019081526020015f2081905550600190506110f6565b5f90505b92915050565b5f604051905090565b5f80fd5b5f80fd5b5f819050919050565b61111f8161110d565b8114611129575f80fd5b50565b5f8135905061113a81611116565b92915050565b5f6020828403121561115557611154611105565b5b5f6111628482850161112c565b91505092915050565b5f73ffffffffffffffffffffffffffffffffffffffff82169050919050565b5f6111948261116b565b9050919050565b6111a48161118a565b81146111ae575f80fd5b50565b5f813590506111bf8161119b565b92915050565b5f80fd5b5f80fd5b5f601f19601f8301169050919050565b7f4e487b71000000000000000000000000000000000000000000000000000000005f52604160045260245ffd5b611213826111cd565b810181811067ffffffffffffffff82111715611232576112316111dd565b5b80604052505050565b5f6112446110fc565b9050611250828261120a565b919050565b5f67ffffffffffffffff82111561126f5761126e6111dd565b5b611278826111cd565b9050602081019050919050565b828183375f83830152505050565b5f6112a56112a084611255565b61123b565b9050828152602081018484840111156112c1576112c06111c9565b5b6112cc848285611285565b509392505050565b5f82601f8301126112e8576112e76111c5565b5b81356112f8848260208601611293565b91505092915050565b5f806040838503121561131757611316611105565b5b5f611324858286016111b1565b925050602083013567ffffffffffffffff81111561134557611344611109565b5b611351858286016112d4565b9150509250929050565b6113648161110d565b82525050565b5f60208201905061137d5f83018461135b565b92915050565b5f80fd5b5f610140828403121561139d5761139c611383565b5b81905092915050565b5f602082840312156113bb576113ba611105565b5b5f82013567ffffffffffffffff8111156113d8576113d7611109565b5b6113e484828501611387565b91505092915050565b6113f68161118a565b82525050565b5f60208201905061140f5f8301846113ed565b92915050565b5f80fd5b5f80fd5b5f8083601f840112611432576114316111c5565b5b8235905067ffffffffffffffff81111561144f5761144e611415565b5b60208301915083600182028301111561146b5761146a611419565b5b9250929050565b5f805f6040848603121561148957611488611105565b5b5f6114968682870161112c565b935050602084013567ffffffffffffffff8111156114b7576114b6611109565b5b6114c38682870161141d565b92509250509250925092565b5f60e082840312156114e4576114e3611383565b5b81905092915050565b5f6020828403121561150257611501611105565b5b5f82013567ffffffffffffffff81111561151f5761151e611109565b5b61152b848285016114cf565b91505092915050565b5f610220828403121561154a57611549611383565b5b81905092915050565b5f6020828403121561156857611567611105565b5b5f82013567ffffffffffffffff81111561158557611584611109565b5b61159184828501611534565b91505092915050565b5f61012082840312156115b0576115af611383565b5b81905092915050565b5f602082840312156115ce576115cd611105565b5b5f82013567ffffffffffffffff8111156115eb576115ea611109565b5b6115f78482850161159a565b91505092915050565b5f6020828403121561161557611614611105565b5b5f611622848285016111b1565b91505092915050565b5f60408201905061163e5f8301856113ed565b61164b602083018461135b565b9392505050565b5f8115159050919050565b61166681611652565b8114611670575f80fd5b50565b5f815190506116818161165d565b92915050565b5f6020828403121561169c5761169b611105565b5b5f6116a984828501611673565b91505092915050565b7f4e487b71000000000000000000000000000000000000000000000000000000005f52602160045260245ffd5b5f82825260208201905092915050565b7f4f6e6c79206120636f6d70616e792063616e20766572696679000000000000005f82015250565b5f6117236019836116df565b915061172e826116ef565b602082019050919050565b5f6020820190508181035f83015261175081611717565b9050919050565b5f60608201905061176a5f8301866113ed565b61177760208301856113ed565b611784604083018461135b565b949350505050565b5f8151905061179a8161119b565b92915050565b5f602082840312156117b5576117b4611105565b5b5f6117c28482850161178c565b91505092915050565b7f4f6e6c792065737461626c6973686d656e742063616e206d696e7400000000005f82015250565b5f6117ff601b836116df565b915061180a826117cb565b602082019050919050565b5f6020820190508181035f83015261182c816117f3565b9050919050565b7f45737461626c6973686d656e74206e6f7420617574686f72697a6564000000005f82015250565b5f611867601c836116df565b915061187282611833565b602082019050919050565b5f6020820190508181035f8301526118948161185b565b9050919050565b5f81519050919050565b8281835e5f83830152505050565b5f6118bd8261189b565b6118c781856116df565b93506118d78185602086016118a5565b6118e0816111cd565b840191505092915050565b5f6040820190506118fe5f8301856113ed565b818103602083015261191081846118b3565b90509392505050565b7f4163746f7220616c7265616479206578697374730000000000000000000000005f82015250565b5f61194d6014836116df565b915061195882611919565b602082019050919050565b5f6020820190508181035f83015261197a81611941565b9050919050565b5f813561198d81611116565b80915050919050565b5f815f1b9050919050565b5f7fffffffffffffffffffffffffffffffffffffffffffffffffffffffffffffffff6119cc84611996565b9350801983169250808416831791505092915050565b5f819050919050565b5f611a05611a006119fb8461110d565b6119e2565b61110d565b9050919050565b5f819050919050565b611a1e826119eb565b611a31611a2a82611a0c565b83546119a1565b8255505050565b5f80fd5b5f80fd5b5f80fd5b5f8083356001602003843603038112611a6057611a5f611a38565b5b80840192508235915067ffffffffffffffff821115611a8257611a81611a3c565b5b602083019250600182023603831315611a9e57611a9d611a40565b5b509250929050565b5f82905092915050565b7f4e487b71000000000000000000000000000000000000000000000000000000005f52602260045260245ffd5b5f6002820490506001821680611af457607f821691505b602082108103611b0757611b06611ab0565b5b50919050565b5f819050815f5260205f209050919050565b5f6020601f8301049050919050565b5f82821b905092915050565b5f60088302611b697fffffffffffffffffffffffffffffffffffffffffffffffffffffffffffffffff82611b2e565b611b738683611b2e565b95508019841693508086168417925050509392505050565b611b94836119eb565b611ba8611ba082611a0c565b848454611b3a565b825550505050565b5f90565b611bbc611bb0565b611bc7818484611b8b565b505050565b5b81811015611bea57611bdf5f82611bb4565b600181019050611bcd565b5050565b601f821115611c2f57611c0081611b0d565b611c0984611b1f565b81016020851015611c18578190505b611c2c611c2485611b1f565b830182611bcc565b50505b505050565b5f82821c905092915050565b5f611c4f5f1984600802611c34565b1980831691505092915050565b5f611c678383611c40565b9150826002028217905092915050565b611c818383611aa6565b67ffffffffffffffff811115611c9a57611c996111dd565b5b611ca48254611add565b611caf828285611bee565b5f601f831160018114611cdc575f8415611cca578287013590505b611cd48582611c5c565b865550611d3b565b601f198416611cea86611b0d565b5f5b82811015611d1157848901358255600182019150602085019450602081019050611cec565b86831015611d2e5784890135611d2a601f891682611c40565b8355505b6001600288020188555050505b50505050505050565b611d4f838383611c77565b505050565b5f81015f830180611d6481611981565b9050611d708184611a15565b5050506001810160208301611d858185611a44565b611d90818386611d44565b505050506002810160408301611da68185611a44565b611db1818386611d44565b505050506003810160608301611dc78185611a44565b611dd2818386611d44565b505050506004810160808301611de88185611a44565b611df3818386611d44565b505050506005810160a08301611e098185611a44565b611e14818386611d44565b505050506006810160c08301611e2a8185611a44565b611e35818386611d44565b505050506007810160e08301611e4b8185611a44565b611e56818386611d44565b50505050600881016101008301611e6d8185611a44565b611e78818386611d44565b50505050600981016101208301611e8f8185611a44565b611e9a818386611d44565b505050505050565b611eac8282611d54565b5050565b7f4f6e6c79206120636f6d70616e792063616e206576616c7561746500000000005f82015250565b5f611ee4601b836116df565b9150611eef82611eb0565b602082019050919050565b5f6020820190508181035f830152611f1181611ed8565b9050919050565b7f53747564656e7420646f6573206e6f74206578697374000000000000000000005f82015250565b5f611f4c6016836116df565b9150611f5782611f18565b602082019050919050565b5f6020820190508181035f830152611f7981611f40565b9050919050565b5f611f8b83856116df565b9350611f98838584611285565b611fa1836111cd565b840190509392505050565b5f6020820190508181035f830152611fc5818486611f80565b90509392505050565b5f81015f830180611fde81611981565b9050611fea8184611a15565b5050506001810160208301611fff8185611a44565b61200a818386611d44565b5050505060028101604083016120208185611a44565b61202b818386611d44565b5050505060038101606083016120418185611a44565b61204c818386611d44565b5050505060048101608083016120628185611a44565b61206d818386611d44565b505050506005810160a083016120838185611a44565b61208e818386611d44565b505050506006810160c08301806120a481611981565b90506120b08184611a15565b5050505050565b6120c18282611fce565b5050565b7f53747564656e7420616c726561647920657869737473000000000000000000005f82015250565b5f6120f96016836116df565b9150612104826120c5565b602082019050919050565b5f6020820190508181035f830152612126816120ed565b9050919050565b5f81015f83018061213d81611981565b90506121498184611a15565b505050600181016020830161215e8185611a44565b612169818386611d44565b50505050600281016040830161217f8185611a44565b61218a818386611d44565b5050505060038101606083016121a08185611a44565b6121ab818386611d44565b5050505060048101608083016121c18185611a44565b6121cc818386611d44565b505050506005810160a083016121e28185611a44565b6121ed818386611d44565b505050506006810160c083016122038185611a44565b61220e818386611d44565b505050506007810160e083016122248185611a44565b61222f818386611d44565b505050506008810161010083016122468185611a44565b612251818386611d44565b505050506009810161012083016122688185611a44565b612273818386611d44565b50505050600a8101610140830161228a8185611a44565b612295818386611d44565b50505050600b810161016083016122ac8185611a44565b6122b7818386611d44565b50505050600c810161018083016122ce8185611a44565b6122d9818386611d44565b50505050600d81016101a083016122f08185611a44565b6122fb818386611d44565b50505050600e81016101c083016123128185611a44565b61231d818386611d44565b50505050600f81016101e083016123348185611a44565b61233f818386611d44565b505050506010810161020083016123568185611a44565b612361818386611d44565b505050505050565b612373828261212d565b5050565b7f4469706c6f6d6120616c726561647920657869737473000000000000000000005f82015250565b5f6123ab6016836116df565b91506123b682612377565b602082019050919050565b5f6020820190508181035f8301526123d88161239f565b9050919050565b5f81015f8301806123ef81611981565b90506123fb8184611a15565b50505060018101602083018061241081611981565b905061241c8184611a15565b50505060028101604083016124318185611a44565b61243c818386611d44565b5050505060038101606083018061245281611981565b905061245e8184611a15565b50505060048101608083016124738185611a44565b61247e818386611d44565b505050506005810160a083016124948185611a44565b61249f818386611d44565b505050506006810160c083016124b58185611a44565b6124c0818386611d44565b505050506007810160e083016124d68185611a44565b6124e1818386611d44565b505050506008810161010083016124f88185611a44565b612503818386611d44565b505050505050565b61251582826123df565b505056fea26469706673582212207875532db182cf73fbbee947d6eecec9090d9998b7ae8d0ca08e2a6989e1772764736f6c634300081a0033",
			"opcodes": "PUSH1 0x80 PUSH1 0x40 MSTORE CALLVALUE DUP1 ISZERO PUSH2 0xF JUMPI PUSH0 DUP1 REVERT JUMPDEST POP PUSH1 0x40 MLOAD PUSH2 0x281A CODESIZE SUB DUP1 PUSH2 0x281A DUP4 CODECOPY DUP2 DUP2 ADD PUSH1 0x40 MSTORE DUP2 ADD SWAP1 PUSH2 0x31 SWAP2 SWAP1 PUSH2 0x258 JUMP JUMPDEST CALLER PUSH0 PUSH20 0xFFFFFFFFFFFFFFFFFFFFFFFFFFFFFFFFFFFFFFFF AND DUP2 PUSH20 0xFFFFFFFFFFFFFFFFFFFFFFFFFFFFFFFFFFFFFFFF AND SUB PUSH2 0xA2 JUMPI PUSH0 PUSH1 0x40 MLOAD PUSH32 0x1E4FBDF700000000000000000000000000000000000000000000000000000000 DUP2 MSTORE PUSH1 0x4 ADD PUSH2 0x99 SWAP2 SWAP1 PUSH2 0x2A5 JUMP JUMPDEST PUSH1 0x40 MLOAD DUP1 SWAP2 SUB SWAP1 REVERT JUMPDEST PUSH2 0xB1 DUP2 PUSH2 0x139 PUSH1 0x20 SHL PUSH1 0x20 SHR JUMP JUMPDEST POP DUP2 PUSH1 0x1 PUSH0 PUSH2 0x100 EXP DUP2 SLOAD DUP2 PUSH20 0xFFFFFFFFFFFFFFFFFFFFFFFFFFFFFFFFFFFFFFFF MUL NOT AND SWAP1 DUP4 PUSH20 0xFFFFFFFFFFFFFFFFFFFFFFFFFFFFFFFFFFFFFFFF AND MUL OR SWAP1 SSTORE POP DUP1 PUSH1 0x2 PUSH0 PUSH2 0x100 EXP DUP2 SLOAD DUP2 PUSH20 0xFFFFFFFFFFFFFFFFFFFFFFFFFFFFFFFFFFFFFFFF MUL NOT AND SWAP1 DUP4 PUSH20 0xFFFFFFFFFFFFFFFFFFFFFFFFFFFFFFFFFFFFFFFF AND MUL OR SWAP1 SSTORE POP POP POP PUSH2 0x2BE JUMP JUMPDEST PUSH0 DUP1 PUSH0 SWAP1 SLOAD SWAP1 PUSH2 0x100 EXP SWAP1 DIV PUSH20 0xFFFFFFFFFFFFFFFFFFFFFFFFFFFFFFFFFFFFFFFF AND SWAP1 POP DUP2 PUSH0 DUP1 PUSH2 0x100 EXP DUP2 SLOAD DUP2 PUSH20 0xFFFFFFFFFFFFFFFFFFFFFFFFFFFFFFFFFFFFFFFF MUL NOT AND SWAP1 DUP4 PUSH20 0xFFFFFFFFFFFFFFFFFFFFFFFFFFFFFFFFFFFFFFFF AND MUL OR SWAP1 SSTORE POP DUP2 PUSH20 0xFFFFFFFFFFFFFFFFFFFFFFFFFFFFFFFFFFFFFFFF AND DUP2 PUSH20 0xFFFFFFFFFFFFFFFFFFFFFFFFFFFFFFFFFFFFFFFF AND PUSH32 0x8BE0079C531659141344CD1FD0A4F28419497F9722A3DAAFE3B4186F6B6457E0 PUSH1 0x40 MLOAD PUSH1 0x40 MLOAD DUP1 SWAP2 SUB SWAP1 LOG3 POP POP JUMP JUMPDEST PUSH0 DUP1 REVERT JUMPDEST PUSH0 PUSH20 0xFFFFFFFFFFFFFFFFFFFFFFFFFFFFFFFFFFFFFFFF DUP3 AND SWAP1 POP SWAP2 SWAP1 POP JUMP JUMPDEST PUSH0 PUSH2 0x227 DUP3 PUSH2 0x1FE JUMP JUMPDEST SWAP1 POP SWAP2 SWAP1 POP JUMP JUMPDEST PUSH2 0x237 DUP2 PUSH2 0x21D JUMP JUMPDEST DUP2 EQ PUSH2 0x241 JUMPI PUSH0 DUP1 REVERT JUMPDEST POP JUMP JUMPDEST PUSH0 DUP2 MLOAD SWAP1 POP PUSH2 0x252 DUP2 PUSH2 0x22E JUMP JUMPDEST SWAP3 SWAP2 POP POP JUMP JUMPDEST PUSH0 DUP1 PUSH1 0x40 DUP4 DUP6 SUB SLT ISZERO PUSH2 0x26E JUMPI PUSH2 0x26D PUSH2 0x1FA JUMP JUMPDEST JUMPDEST PUSH0 PUSH2 0x27B DUP6 DUP3 DUP7 ADD PUSH2 0x244 JUMP JUMPDEST SWAP3 POP POP PUSH1 0x20 PUSH2 0x28C DUP6 DUP3 DUP7 ADD PUSH2 0x244 JUMP JUMPDEST SWAP2 POP POP SWAP3 POP SWAP3 SWAP1 POP JUMP JUMPDEST PUSH2 0x29F DUP2 PUSH2 0x21D JUMP JUMPDEST DUP3 MSTORE POP POP JUMP JUMPDEST PUSH0 PUSH1 0x20 DUP3 ADD SWAP1 POP PUSH2 0x2B8 PUSH0 DUP4 ADD DUP5 PUSH2 0x296 JUMP JUMPDEST SWAP3 SWAP2 POP POP JUMP JUMPDEST PUSH2 0x254F DUP1 PUSH2 0x2CB PUSH0 CODECOPY PUSH0 RETURN INVALID PUSH1 0x80 PUSH1 0x40 MSTORE CALLVALUE DUP1 ISZERO PUSH2 0xF JUMPI PUSH0 DUP1 REVERT JUMPDEST POP PUSH1 0x4 CALLDATASIZE LT PUSH2 0xCD JUMPI PUSH0 CALLDATALOAD PUSH1 0xE0 SHR DUP1 PUSH4 0x715018A6 GT PUSH2 0x8A JUMPI DUP1 PUSH4 0x9B873A77 GT PUSH2 0x64 JUMPI DUP1 PUSH4 0x9B873A77 EQ PUSH2 0x1C1 JUMPI DUP1 PUSH4 0xA4F266C3 EQ PUSH2 0x1DD JUMPI DUP1 PUSH4 0xE7031C3F EQ PUSH2 0x1F9 JUMPI DUP1 PUSH4 0xF2FDE38B EQ PUSH2 0x215 JUMPI PUSH2 0xCD JUMP JUMPDEST DUP1 PUSH4 0x715018A6 EQ PUSH2 0x17D JUMPI DUP1 PUSH4 0x8DA5CB5B EQ PUSH2 0x187 JUMPI DUP1 PUSH4 0x96303958 EQ PUSH2 0x1A5 JUMPI PUSH2 0xCD JUMP JUMPDEST DUP1 PUSH4 0x315A095D EQ PUSH2 0xD1 JUMPI DUP1 PUSH4 0x42DF8EC7 EQ PUSH2 0xED JUMPI DUP1 PUSH4 0x5AF4926A EQ PUSH2 0x109 JUMPI DUP1 PUSH4 0x5D61FBFD EQ PUSH2 0x125 JUMPI DUP1 PUSH4 0x63A1C895 EQ PUSH2 0x143 JUMPI DUP1 PUSH4 0x68323B9D EQ PUSH2 0x15F JUMPI JUMPDEST PUSH0 DUP1 REVERT JUMPDEST PUSH2 0xEB PUSH1 0x4 DUP1 CALLDATASIZE SUB DUP2 ADD SWAP1 PUSH2 0xE6 SWAP2 SWAP1 PUSH2 0x1140 JUMP JUMPDEST PUSH2 0x231 JUMP JUMPDEST STOP JUMPDEST PUSH2 0x107 PUSH1 0x4 DUP1 CALLDATASIZE SUB DUP2 ADD SWAP1 PUSH2 0x102 SWAP2 SWAP1 PUSH2 0x1140 JUMP JUMPDEST PUSH2 0x2D9 JUMP JUMPDEST STOP JUMPDEST PUSH2 0x123 PUSH1 0x4 DUP1 CALLDATASIZE SUB DUP2 ADD SWAP1 PUSH2 0x11E SWAP2 SWAP1 PUSH2 0x1301 JUMP JUMPDEST PUSH2 0x50F JUMP JUMPDEST STOP JUMPDEST PUSH2 0x12D PUSH2 0x69F JUMP JUMPDEST PUSH1 0x40 MLOAD PUSH2 0x13A SWAP2 SWAP1 PUSH2 0x136A JUMP JUMPDEST PUSH1 0x40 MLOAD DUP1 SWAP2 SUB SWAP1 RETURN JUMPDEST PUSH2 0x15D PUSH1 0x4 DUP1 CALLDATASIZE SUB DUP2 ADD SWAP1 PUSH2 0x158 SWAP2 SWAP1 PUSH2 0x13A6 JUMP JUMPDEST PUSH2 0x6AB JUMP JUMPDEST STOP JUMPDEST PUSH2 0x167 PUSH2 0x852 JUMP JUMPDEST PUSH1 0x40 MLOAD PUSH2 0x174 SWAP2 SWAP1 PUSH2 0x136A JUMP JUMPDEST PUSH1 0x40 MLOAD DUP1 SWAP2 SUB SWAP1 RETURN JUMPDEST PUSH2 0x185 PUSH2 0x85E JUMP JUMPDEST STOP JUMPDEST PUSH2 0x18F PUSH2 0x871 JUMP JUMPDEST PUSH1 0x40 MLOAD PUSH2 0x19C SWAP2 SWAP1 PUSH2 0x13FC JUMP JUMPDEST PUSH1 0x40 MLOAD DUP1 SWAP2 SUB SWAP1 RETURN JUMPDEST PUSH2 0x1BF PUSH1 0x4 DUP1 CALLDATASIZE SUB DUP2 ADD SWAP1 PUSH2 0x1BA SWAP2 SWAP1 PUSH2 0x1472 JUMP JUMPDEST PUSH2 0x898 JUMP JUMPDEST STOP JUMPDEST PUSH2 0x1DB PUSH1 0x4 DUP1 CALLDATASIZE SUB DUP2 ADD SWAP1 PUSH2 0x1D6 SWAP2 SWAP1 PUSH2 0x14ED JUMP JUMPDEST PUSH2 0xAA7 JUMP JUMPDEST STOP JUMPDEST PUSH2 0x1F7 PUSH1 0x4 DUP1 CALLDATASIZE SUB DUP2 ADD SWAP1 PUSH2 0x1F2 SWAP2 SWAP1 PUSH2 0x1553 JUMP JUMPDEST PUSH2 0xCEA JUMP JUMPDEST STOP JUMPDEST PUSH2 0x213 PUSH1 0x4 DUP1 CALLDATASIZE SUB DUP2 ADD SWAP1 PUSH2 0x20E SWAP2 SWAP1 PUSH2 0x15B9 JUMP JUMPDEST PUSH2 0xD99 JUMP JUMPDEST STOP JUMPDEST PUSH2 0x22F PUSH1 0x4 DUP1 CALLDATASIZE SUB DUP2 ADD SWAP1 PUSH2 0x22A SWAP2 SWAP1 PUSH2 0x1600 JUMP JUMPDEST PUSH2 0xE48 JUMP JUMPDEST STOP JUMPDEST PUSH2 0x239 PUSH2 0xECC JUMP JUMPDEST PUSH1 0x1 PUSH0 SWAP1 SLOAD SWAP1 PUSH2 0x100 EXP SWAP1 DIV PUSH20 0xFFFFFFFFFFFFFFFFFFFFFFFFFFFFFFFFFFFFFFFF AND PUSH20 0xFFFFFFFFFFFFFFFFFFFFFFFFFFFFFFFFFFFFFFFF AND PUSH4 0xA9059CBB CALLER DUP4 PUSH1 0x40 MLOAD DUP4 PUSH4 0xFFFFFFFF AND PUSH1 0xE0 SHL DUP2 MSTORE PUSH1 0x4 ADD PUSH2 0x295 SWAP3 SWAP2 SWAP1 PUSH2 0x162B JUMP JUMPDEST PUSH1 0x20 PUSH1 0x40 MLOAD DUP1 DUP4 SUB DUP2 PUSH0 DUP8 GAS CALL ISZERO DUP1 ISZERO PUSH2 0x2B1 JUMPI RETURNDATASIZE PUSH0 DUP1 RETURNDATACOPY RETURNDATASIZE PUSH0 REVERT JUMPDEST POP POP POP POP PUSH1 0x40 MLOAD RETURNDATASIZE PUSH1 0x1F NOT PUSH1 0x1F DUP3 ADD AND DUP3 ADD DUP1 PUSH1 0x40 MSTORE POP DUP2 ADD SWAP1 PUSH2 0x2D5 SWAP2 SWAP1 PUSH2 0x1687 JUMP JUMPDEST POP POP JUMP JUMPDEST PUSH1 0x2 DUP1 DUP2 GT ISZERO PUSH2 0x2EC JUMPI PUSH2 0x2EB PUSH2 0x16B2 JUMP JUMPDEST JUMPDEST PUSH1 0x7 PUSH0 CALLER PUSH20 0xFFFFFFFFFFFFFFFFFFFFFFFFFFFFFFFFFFFFFFFF AND PUSH20 0xFFFFFFFFFFFFFFFFFFFFFFFFFFFFFFFFFFFFFFFF AND DUP2 MSTORE PUSH1 0x20 ADD SWAP1 DUP2 MSTORE PUSH1 0x20 ADD PUSH0 KECCAK256 PUSH0 SWAP1 SLOAD SWAP1 PUSH2 0x100 EXP SWAP1 DIV PUSH1 0xFF AND PUSH1 0x2 DUP2 GT ISZERO PUSH2 0x348 JUMPI PUSH2 0x347 PUSH2 0x16B2 JUMP JUMPDEST JUMPDEST EQ PUSH2 0x388 JUMPI PUSH1 0x40 MLOAD PUSH32 0x8C379A000000000000000000000000000000000000000000000000000000000 DUP2 MSTORE PUSH1 0x4 ADD PUSH2 0x37F SWAP1 PUSH2 0x1739 JUMP JUMPDEST PUSH1 0x40 MLOAD DUP1 SWAP2 SUB SWAP1 REVERT JUMPDEST PUSH1 0x1 PUSH0 SWAP1 SLOAD SWAP1 PUSH2 0x100 EXP SWAP1 DIV PUSH20 0xFFFFFFFFFFFFFFFFFFFFFFFFFFFFFFFFFFFFFFFF AND PUSH20 0xFFFFFFFFFFFFFFFFFFFFFFFFFFFFFFFFFFFFFFFF AND PUSH4 0x23B872DD CALLER ADDRESS PUSH8 0x8AC7230489E80000 PUSH1 0x40 MLOAD DUP5 PUSH4 0xFFFFFFFF AND PUSH1 0xE0 SHL DUP2 MSTORE PUSH1 0x4 ADD PUSH2 0x3EE SWAP4 SWAP3 SWAP2 SWAP1 PUSH2 0x1757 JUMP JUMPDEST PUSH1 0x20 PUSH1 0x40 MLOAD DUP1 DUP4 SUB DUP2 PUSH0 DUP8 GAS CALL ISZERO DUP1 ISZERO PUSH2 0x40A JUMPI RETURNDATASIZE PUSH0 DUP1 RETURNDATACOPY RETURNDATASIZE PUSH0 REVERT JUMPDEST POP POP POP POP PUSH1 0x40 MLOAD RETURNDATASIZE PUSH1 0x1F NOT PUSH1 0x1F DUP3 ADD AND DUP3 ADD DUP1 PUSH1 0x40 MSTORE POP DUP2 ADD SWAP1 PUSH2 0x42E SWAP2 SWAP1 PUSH2 0x1687 JUMP JUMPDEST POP PUSH1 0x2 PUSH0 SWAP1 SLOAD SWAP1 PUSH2 0x100 EXP SWAP1 DIV PUSH20 0xFFFFFFFFFFFFFFFFFFFFFFFFFFFFFFFFFFFFFFFF AND PUSH20 0xFFFFFFFFFFFFFFFFFFFFFFFFFFFFFFFFFFFFFFFF AND PUSH4 0x6352211E DUP3 PUSH1 0x40 MLOAD DUP3 PUSH4 0xFFFFFFFF AND PUSH1 0xE0 SHL DUP2 MSTORE PUSH1 0x4 ADD PUSH2 0x489 SWAP2 SWAP1 PUSH2 0x136A JUMP JUMPDEST PUSH1 0x20 PUSH1 0x40 MLOAD DUP1 DUP4 SUB DUP2 DUP7 GAS STATICCALL ISZERO DUP1 ISZERO PUSH2 0x4A4 JUMPI RETURNDATASIZE PUSH0 DUP1 RETURNDATACOPY RETURNDATASIZE PUSH0 REVERT JUMPDEST POP POP POP POP PUSH1 0x40 MLOAD RETURNDATASIZE PUSH1 0x1F NOT PUSH1 0x1F DUP3 ADD AND DUP3 ADD DUP1 PUSH1 0x40 MSTORE POP DUP2 ADD SWAP1 PUSH2 0x4C8 SWAP2 SWAP1 PUSH2 0x17A0 JUMP JUMPDEST POP CALLER PUSH20 0xFFFFFFFFFFFFFFFFFFFFFFFFFFFFFFFFFFFFFFFF AND PUSH32 0x42A066648D5669B827B485237FD3FB492E73E0559EF94A54EB5740D0AA9A4A73 PUSH1 0x40 MLOAD PUSH1 0x40 MLOAD DUP1 SWAP2 SUB SWAP1 LOG2 POP JUMP JUMPDEST PUSH1 0x1 PUSH1 0x2 DUP2 GT ISZERO PUSH2 0x523 JUMPI PUSH2 0x522 PUSH2 0x16B2 JUMP JUMPDEST JUMPDEST PUSH1 0x7 PUSH0 CALLER PUSH20 0xFFFFFFFFFFFFFFFFFFFFFFFFFFFFFFFFFFFFFFFF AND PUSH20 0xFFFFFFFFFFFFFFFFFFFFFFFFFFFFFFFFFFFFFFFF AND DUP2 MSTORE PUSH1 0x20 ADD SWAP1 DUP2 MSTORE PUSH1 0x20 ADD PUSH0 KECCAK256 PUSH0 SWAP1 SLOAD SWAP1 PUSH2 0x100 EXP SWAP1 DIV PUSH1 0xFF AND PUSH1 0x2 DUP2 GT ISZERO PUSH2 0x57F JUMPI PUSH2 0x57E PUSH2 0x16B2 JUMP JUMPDEST JUMPDEST EQ PUSH2 0x5BF JUMPI PUSH1 0x40 MLOAD PUSH32 0x8C379A000000000000000000000000000000000000000000000000000000000 DUP2 MSTORE PUSH1 0x4 ADD PUSH2 0x5B6 SWAP1 PUSH2 0x1815 JUMP JUMPDEST PUSH1 0x40 MLOAD DUP1 SWAP2 SUB SWAP1 REVERT JUMPDEST PUSH2 0x5D3 CALLER PUSH1 0x8 PUSH2 0xF53 SWAP1 SWAP2 SWAP1 PUSH4 0xFFFFFFFF AND JUMP JUMPDEST PUSH2 0x612 JUMPI PUSH1 0x40 MLOAD PUSH32 0x8C379A000000000000000000000000000000000000000000000000000000000 DUP2 MSTORE PUSH1 0x4 ADD PUSH2 0x609 SWAP1 PUSH2 0x187D JUMP JUMPDEST PUSH1 0x40 MLOAD DUP1 SWAP2 SUB SWAP1 REVERT JUMPDEST PUSH1 0x2 PUSH0 SWAP1 SLOAD SWAP1 PUSH2 0x100 EXP SWAP1 DIV PUSH20 0xFFFFFFFFFFFFFFFFFFFFFFFFFFFFFFFFFFFFFFFF AND PUSH20 0xFFFFFFFFFFFFFFFFFFFFFFFFFFFFFFFFFFFFFFFF AND PUSH4 0xB76E8008 DUP4 DUP4 PUSH1 0x40 MLOAD DUP4 PUSH4 0xFFFFFFFF AND PUSH1 0xE0 SHL DUP2 MSTORE PUSH1 0x4 ADD PUSH2 0x66E SWAP3 SWAP2 SWAP1 PUSH2 0x18EB JUMP JUMPDEST PUSH0 PUSH1 0x40 MLOAD DUP1 DUP4 SUB DUP2 PUSH0 DUP8 DUP1 EXTCODESIZE ISZERO DUP1 ISZERO PUSH2 0x685 JUMPI PUSH0 DUP1 REVERT JUMPDEST POP GAS CALL ISZERO DUP1 ISZERO PUSH2 0x697 JUMPI RETURNDATASIZE PUSH0 DUP1 RETURNDATACOPY RETURNDATASIZE PUSH0 REVERT JUMPDEST POP POP POP POP POP POP JUMP JUMPDEST PUSH8 0xD02AB486CEDC0000 DUP2 JUMP JUMPDEST PUSH0 PUSH1 0x2 DUP2 GT ISZERO PUSH2 0x6BE JUMPI PUSH2 0x6BD PUSH2 0x16B2 JUMP JUMPDEST JUMPDEST PUSH1 0x7 PUSH0 CALLER PUSH20 0xFFFFFFFFFFFFFFFFFFFFFFFFFFFFFFFFFFFFFFFF AND PUSH20 0xFFFFFFFFFFFFFFFFFFFFFFFFFFFFFFFFFFFFFFFF AND DUP2 MSTORE PUSH1 0x20 ADD SWAP1 DUP2 MSTORE PUSH1 0x20 ADD PUSH0 KECCAK256 PUSH0 SWAP1 SLOAD SWAP1 PUSH2 0x100 EXP SWAP1 DIV PUSH1 0xFF AND PUSH1 0x2 DUP2 GT ISZERO PUSH2 0x71A JUMPI PUSH2 0x719 PUSH2 0x16B2 JUMP JUMPDEST JUMPDEST EQ PUSH2 0x75A JUMPI PUSH1 0x40 MLOAD PUSH32 0x8C379A000000000000000000000000000000000000000000000000000000000 DUP2 MSTORE PUSH1 0x4 ADD PUSH2 0x751 SWAP1 PUSH2 0x1963 JUMP JUMPDEST PUSH1 0x40 MLOAD DUP1 SWAP2 SUB SWAP1 REVERT JUMPDEST DUP1 PUSH1 0x4 PUSH0 CALLER PUSH20 0xFFFFFFFFFFFFFFFFFFFFFFFFFFFFFFFFFFFFFFFF AND PUSH20 0xFFFFFFFFFFFFFFFFFFFFFFFFFFFFFFFFFFFFFFFF AND DUP2 MSTORE PUSH1 0x20 ADD SWAP1 DUP2 MSTORE PUSH1 0x20 ADD PUSH0 KECCAK256 DUP2 DUP2 PUSH2 0x7A4 SWAP2 SWAP1 PUSH2 0x1EA2 JUMP JUMPDEST SWAP1 POP POP PUSH1 0x2 PUSH1 0x7 PUSH0 CALLER PUSH20 0xFFFFFFFFFFFFFFFFFFFFFFFFFFFFFFFFFFFFFFFF AND PUSH20 0xFFFFFFFFFFFFFFFFFFFFFFFFFFFFFFFFFFFFFFFF AND DUP2 MSTORE PUSH1 0x20 ADD SWAP1 DUP2 MSTORE PUSH1 0x20 ADD PUSH0 KECCAK256 PUSH0 PUSH2 0x100 EXP DUP2 SLOAD DUP2 PUSH1 0xFF MUL NOT AND SWAP1 DUP4 PUSH1 0x2 DUP2 GT ISZERO PUSH2 0x807 JUMPI PUSH2 0x806 PUSH2 0x16B2 JUMP JUMPDEST JUMPDEST MUL OR SWAP1 SSTORE POP CALLER PUSH20 0xFFFFFFFFFFFFFFFFFFFFFFFFFFFFFFFFFFFFFFFF AND PUSH32 0x62806C829F7C8D0F1563DBDCF4F05F12A6B3C0E29AB581B0CCDFFD608E993938 PUSH1 0x40 MLOAD PUSH1 0x40 MLOAD DUP1 SWAP2 SUB SWAP1 LOG2 POP JUMP JUMPDEST PUSH8 0x8AC7230489E80000 DUP2 JUMP JUMPDEST PUSH2 0x866 PUSH2 0xECC JUMP JUMPDEST PUSH2 0x86F PUSH0 PUSH2 0xF80 JUMP JUMPDEST JUMP JUMPDEST PUSH0 DUP1 PUSH0 SWAP1 SLOAD SWAP1 PUSH2 0x100 EXP SWAP1 DIV PUSH20 0xFFFFFFFFFFFFFFFFFFFFFFFFFFFFFFFFFFFFFFFF AND SWAP1 POP SWAP1 JUMP JUMPDEST PUSH1 0x2 DUP1 DUP2 GT ISZERO PUSH2 0x8AB JUMPI PUSH2 0x8AA PUSH2 0x16B2 JUMP JUMPDEST JUMPDEST PUSH1 0x7 PUSH0 CALLER PUSH20 0xFFFFFFFFFFFFFFFFFFFFFFFFFFFFFFFFFFFFFFFF AND PUSH20 0xFFFFFFFFFFFFFFFFFFFFFFFFFFFFFFFFFFFFFFFF AND DUP2 MSTORE PUSH1 0x20 ADD SWAP1 DUP2 MSTORE PUSH1 0x20 ADD PUSH0 KECCAK256 PUSH0 SWAP1 SLOAD SWAP1 PUSH2 0x100 EXP SWAP1 DIV PUSH1 0xFF AND PUSH1 0x2 DUP2 GT ISZERO PUSH2 0x907 JUMPI PUSH2 0x906 PUSH2 0x16B2 JUMP JUMPDEST JUMPDEST EQ PUSH2 0x947 JUMPI PUSH1 0x40 MLOAD PUSH32 0x8C379A000000000000000000000000000000000000000000000000000000000 DUP2 MSTORE PUSH1 0x4 ADD PUSH2 0x93E SWAP1 PUSH2 0x1EFA JUMP JUMPDEST PUSH1 0x40 MLOAD DUP1 SWAP2 SUB SWAP1 REVERT JUMPDEST PUSH0 PUSH1 0x5 PUSH0 DUP6 DUP2 MSTORE PUSH1 0x20 ADD SWAP1 DUP2 MSTORE PUSH1 0x20 ADD PUSH0 KECCAK256 PUSH0 ADD SLOAD SUB PUSH2 0x99C JUMPI PUSH1 0x40 MLOAD PUSH32 0x8C379A000000000000000000000000000000000000000000000000000000000 DUP2 MSTORE PUSH1 0x4 ADD PUSH2 0x993 SWAP1 PUSH2 0x1F62 JUMP JUMPDEST PUSH1 0x40 MLOAD DUP1 SWAP2 SUB SWAP1 REVERT JUMPDEST DUP2 DUP2 PUSH1 0x5 PUSH0 DUP7 DUP2 MSTORE PUSH1 0x20 ADD SWAP1 DUP2 MSTORE PUSH1 0x20 ADD PUSH0 KECCAK256 PUSH1 0x10 ADD SWAP2 DUP3 PUSH2 0x9BF SWAP3 SWAP2 SWAP1 PUSH2 0x1C77 JUMP JUMPDEST POP PUSH1 0x1 PUSH0 SWAP1 SLOAD SWAP1 PUSH2 0x100 EXP SWAP1 DIV PUSH20 0xFFFFFFFFFFFFFFFFFFFFFFFFFFFFFFFFFFFFFFFF AND PUSH20 0xFFFFFFFFFFFFFFFFFFFFFFFFFFFFFFFFFFFFFFFF AND PUSH4 0x81A4AF15 CALLER PUSH8 0xD02AB486CEDC0000 PUSH1 0x40 MLOAD DUP4 PUSH4 0xFFFFFFFF AND PUSH1 0xE0 SHL DUP2 MSTORE PUSH1 0x4 ADD PUSH2 0xA24 SWAP3 SWAP2 SWAP1 PUSH2 0x162B JUMP JUMPDEST PUSH0 PUSH1 0x40 MLOAD DUP1 DUP4 SUB DUP2 PUSH0 DUP8 DUP1 EXTCODESIZE ISZERO DUP1 ISZERO PUSH2 0xA3B JUMPI PUSH0 DUP1 REVERT JUMPDEST POP GAS CALL ISZERO DUP1 ISZERO PUSH2 0xA4D JUMPI RETURNDATASIZE PUSH0 DUP1 RETURNDATACOPY RETURNDATASIZE PUSH0 REVERT JUMPDEST POP POP POP POP DUP3 CALLER PUSH20 0xFFFFFFFFFFFFFFFFFFFFFFFFFFFFFFFFFFFFFFFF AND PUSH32 0xA5FFE3C8A5B0F27FA09A3627BB91ED2BDDBB6CFE9EDA65BC60C27DED3832038F DUP5 DUP5 PUSH1 0x40 MLOAD PUSH2 0xA9A SWAP3 SWAP2 SWAP1 PUSH2 0x1FAC JUMP JUMPDEST PUSH1 0x40 MLOAD DUP1 SWAP2 SUB SWAP1 LOG3 POP POP POP JUMP JUMPDEST PUSH0 PUSH1 0x2 DUP2 GT ISZERO PUSH2 0xABA JUMPI PUSH2 0xAB9 PUSH2 0x16B2 JUMP JUMPDEST JUMPDEST PUSH1 0x7 PUSH0 CALLER PUSH20 0xFFFFFFFFFFFFFFFFFFFFFFFFFFFFFFFFFFFFFFFF AND PUSH20 0xFFFFFFFFFFFFFFFFFFFFFFFFFFFFFFFFFFFFFFFF AND DUP2 MSTORE PUSH1 0x20 ADD SWAP1 DUP2 MSTORE PUSH1 0x20 ADD PUSH0 KECCAK256 PUSH0 SWAP1 SLOAD SWAP1 PUSH2 0x100 EXP SWAP1 DIV PUSH1 0xFF AND PUSH1 0x2 DUP2 GT ISZERO PUSH2 0xB16 JUMPI PUSH2 0xB15 PUSH2 0x16B2 JUMP JUMPDEST JUMPDEST EQ PUSH2 0xB56 JUMPI PUSH1 0x40 MLOAD PUSH32 0x8C379A000000000000000000000000000000000000000000000000000000000 DUP2 MSTORE PUSH1 0x4 ADD PUSH2 0xB4D SWAP1 PUSH2 0x1963 JUMP JUMPDEST PUSH1 0x40 MLOAD DUP1 SWAP2 SUB SWAP1 REVERT JUMPDEST DUP1 PUSH1 0x3 PUSH0 CALLER PUSH20 0xFFFFFFFFFFFFFFFFFFFFFFFFFFFFFFFFFFFFFFFF AND PUSH20 0xFFFFFFFFFFFFFFFFFFFFFFFFFFFFFFFFFFFFFFFF AND DUP2 MSTORE PUSH1 0x20 ADD SWAP1 DUP2 MSTORE PUSH1 0x20 ADD PUSH0 KECCAK256 DUP2 DUP2 PUSH2 0xBA0 SWAP2 SWAP1 PUSH2 0x20B7 JUMP JUMPDEST SWAP1 POP POP PUSH1 0x1 PUSH1 0x7 PUSH0 CALLER PUSH20 0xFFFFFFFFFFFFFFFFFFFFFFFFFFFFFFFFFFFFFFFF AND PUSH20 0xFFFFFFFFFFFFFFFFFFFFFFFFFFFFFFFFFFFFFFFF AND DUP2 MSTORE PUSH1 0x20 ADD SWAP1 DUP2 MSTORE PUSH1 0x20 ADD PUSH0 KECCAK256 PUSH0 PUSH2 0x100 EXP DUP2 SLOAD DUP2 PUSH1 0xFF MUL NOT AND SWAP1 DUP4 PUSH1 0x2 DUP2 GT ISZERO PUSH2 0xC03 JUMPI PUSH2 0xC02 PUSH2 0x16B2 JUMP JUMPDEST JUMPDEST MUL OR SWAP1 SSTORE POP PUSH2 0xC1C CALLER PUSH1 0x8 PUSH2 0x1041 SWAP1 SWAP2 SWAP1 PUSH4 0xFFFFFFFF AND JUMP JUMPDEST POP PUSH1 0x2 PUSH0 SWAP1 SLOAD SWAP1 PUSH2 0x100 EXP SWAP1 DIV PUSH20 0xFFFFFFFFFFFFFFFFFFFFFFFFFFFFFFFFFFFFFFFF AND PUSH20 0xFFFFFFFFFFFFFFFFFFFFFFFFFFFFFFFFFFFFFFFF AND PUSH4 0x3DD1EB61 CALLER PUSH1 0x40 MLOAD DUP3 PUSH4 0xFFFFFFFF AND PUSH1 0xE0 SHL DUP2 MSTORE PUSH1 0x4 ADD PUSH2 0xC77 SWAP2 SWAP1 PUSH2 0x13FC JUMP JUMPDEST PUSH0 PUSH1 0x40 MLOAD DUP1 DUP4 SUB DUP2 PUSH0 DUP8 DUP1 EXTCODESIZE ISZERO DUP1 ISZERO PUSH2 0xC8E JUMPI PUSH0 DUP1 REVERT JUMPDEST POP GAS CALL ISZERO DUP1 ISZERO PUSH2 0xCA0 JUMPI RETURNDATASIZE PUSH0 DUP1 RETURNDATACOPY RETURNDATASIZE PUSH0 REVERT JUMPDEST POP POP POP POP CALLER PUSH20 0xFFFFFFFFFFFFFFFFFFFFFFFFFFFFFFFFFFFFFFFF AND PUSH32 0x65583ABF6A1E576F5C0BD9E9D475CA0811AC12DF7A5FDD43E22EB16DEADBF81 PUSH1 0x40 MLOAD PUSH1 0x40 MLOAD DUP1 SWAP2 SUB SWAP1 LOG2 POP JUMP JUMPDEST PUSH0 PUSH1 0x5 PUSH0 DUP4 PUSH0 ADD CALLDATALOAD DUP2 MSTORE PUSH1 0x20 ADD SWAP1 DUP2 MSTORE PUSH1 0x20 ADD PUSH0 KECCAK256 PUSH0 ADD SLOAD EQ PUSH2 0xD42 JUMPI PUSH1 0x40 MLOAD PUSH32 0x8C379A000000000000000000000000000000000000000000000000000000000 DUP2 MSTORE PUSH1 0x4 ADD PUSH2 0xD39 SWAP1 PUSH2 0x210F JUMP JUMPDEST PUSH1 0x40 MLOAD DUP1 SWAP2 SUB SWAP1 REVERT JUMPDEST DUP1 PUSH1 0x5 PUSH0 DUP4 PUSH0 ADD CALLDATALOAD DUP2 MSTORE PUSH1 0x20 ADD SWAP1 DUP2 MSTORE PUSH1 0x20 ADD PUSH0 KECCAK256 DUP2 DUP2 PUSH2 0xD63 SWAP2 SWAP1 PUSH2 0x2369 JUMP JUMPDEST SWAP1 POP POP DUP1 PUSH0 ADD CALLDATALOAD PUSH32 0xDE7803A0A05F793F65DAD5843953677BEA5F2F920F0A1AFCCEBD9F68ADF8F547 PUSH1 0x40 MLOAD PUSH1 0x40 MLOAD DUP1 SWAP2 SUB SWAP1 LOG2 POP JUMP JUMPDEST PUSH0 PUSH1 0x6 PUSH0 DUP4 PUSH0 ADD CALLDATALOAD DUP2 MSTORE PUSH1 0x20 ADD SWAP1 DUP2 MSTORE PUSH1 0x20 ADD PUSH0 KECCAK256 PUSH0 ADD SLOAD EQ PUSH2 0xDF1 JUMPI PUSH1 0x40 MLOAD PUSH32 0x8C379A000000000000000000000000000000000000000000000000000000000 DUP2 MSTORE PUSH1 0x4 ADD PUSH2 0xDE8 SWAP1 PUSH2 0x23C1 JUMP JUMPDEST PUSH1 0x40 MLOAD DUP1 SWAP2 SUB SWAP1 REVERT JUMPDEST DUP1 PUSH1 0x6 PUSH0 DUP4 PUSH0 ADD CALLDATALOAD DUP2 MSTORE PUSH1 0x20 ADD SWAP1 DUP2 MSTORE PUSH1 0x20 ADD PUSH0 KECCAK256 DUP2 DUP2 PUSH2 0xE12 SWAP2 SWAP1 PUSH2 0x250B JUMP JUMPDEST SWAP1 POP POP DUP1 PUSH0 ADD CALLDATALOAD PUSH32 0x93EFD3907149C30D51F6A8AA033D131ACF0465ADD6CA277B929EB0FE932A63CE PUSH1 0x40 MLOAD PUSH1 0x40 MLOAD DUP1 SWAP2 SUB SWAP1 LOG2 POP JUMP JUMPDEST PUSH2 0xE50 PUSH2 0xECC JUMP JUMPDEST PUSH0 PUSH20 0xFFFFFFFFFFFFFFFFFFFFFFFFFFFFFFFFFFFFFFFF AND DUP2 PUSH20 0xFFFFFFFFFFFFFFFFFFFFFFFFFFFFFFFFFFFFFFFF AND SUB PUSH2 0xEC0 JUMPI PUSH0 PUSH1 0x40 MLOAD PUSH32 0x1E4FBDF700000000000000000000000000000000000000000000000000000000 DUP2 MSTORE PUSH1 0x4 ADD PUSH2 0xEB7 SWAP2 SWAP1 PUSH2 0x13FC JUMP JUMPDEST PUSH1 0x40 MLOAD DUP1 SWAP2 SUB SWAP1 REVERT JUMPDEST PUSH2 0xEC9 DUP2 PUSH2 0xF80 JUMP JUMPDEST POP JUMP JUMPDEST PUSH2 0xED4 PUSH2 0x106E JUMP JUMPDEST PUSH20 0xFFFFFFFFFFFFFFFFFFFFFFFFFFFFFFFFFFFFFFFF AND PUSH2 0xEF2 PUSH2 0x871 JUMP JUMPDEST PUSH20 0xFFFFFFFFFFFFFFFFFFFFFFFFFFFFFFFFFFFFFFFF AND EQ PUSH2 0xF51 JUMPI PUSH2 0xF15 PUSH2 0x106E JUMP JUMPDEST PUSH1 0x40 MLOAD PUSH32 0x118CDAA700000000000000000000000000000000000000000000000000000000 DUP2 MSTORE PUSH1 0x4 ADD PUSH2 0xF48 SWAP2 SWAP1 PUSH2 0x13FC JUMP JUMPDEST PUSH1 0x40 MLOAD DUP1 SWAP2 SUB SWAP1 REVERT JUMPDEST JUMP JUMPDEST PUSH0 PUSH2 0xF78 DUP4 PUSH0 ADD DUP4 PUSH20 0xFFFFFFFFFFFFFFFFFFFFFFFFFFFFFFFFFFFFFFFF AND PUSH0 SHL PUSH2 0x1075 JUMP JUMPDEST SWAP1 POP SWAP3 SWAP2 POP POP JUMP JUMPDEST PUSH0 DUP1 PUSH0 SWAP1 SLOAD SWAP1 PUSH2 0x100 EXP SWAP1 DIV PUSH20 0xFFFFFFFFFFFFFFFFFFFFFFFFFFFFFFFFFFFFFFFF AND SWAP1 POP DUP2 PUSH0 DUP1 PUSH2 0x100 EXP DUP2 SLOAD DUP2 PUSH20 0xFFFFFFFFFFFFFFFFFFFFFFFFFFFFFFFFFFFFFFFF MUL NOT AND SWAP1 DUP4 PUSH20 0xFFFFFFFFFFFFFFFFFFFFFFFFFFFFFFFFFFFFFFFF AND MUL OR SWAP1 SSTORE POP DUP2 PUSH20 0xFFFFFFFFFFFFFFFFFFFFFFFFFFFFFFFFFFFFFFFF AND DUP2 PUSH20 0xFFFFFFFFFFFFFFFFFFFFFFFFFFFFFFFFFFFFFFFF AND PUSH32 0x8BE0079C531659141344CD1FD0A4F28419497F9722A3DAAFE3B4186F6B6457E0 PUSH1 0x40 MLOAD PUSH1 0x40 MLOAD DUP1 SWAP2 SUB SWAP1 LOG3 POP POP JUMP JUMPDEST PUSH0 PUSH2 0x1066 DUP4 PUSH0 ADD DUP4 PUSH20 0xFFFFFFFFFFFFFFFFFFFFFFFFFFFFFFFFFFFFFFFF AND PUSH0 SHL PUSH2 0x1095 JUMP JUMPDEST SWAP1 POP SWAP3 SWAP2 POP POP JUMP JUMPDEST PUSH0 CALLER SWAP1 POP SWAP1 JUMP JUMPDEST PUSH0 DUP1 DUP4 PUSH1 0x1 ADD PUSH0 DUP5 DUP2 MSTORE PUSH1 0x20 ADD SWAP1 DUP2 MSTORE PUSH1 0x20 ADD PUSH0 KECCAK256 SLOAD EQ ISZERO SWAP1 POP SWAP3 SWAP2 POP POP JUMP JUMPDEST PUSH0 PUSH2 0x10A0 DUP4 DUP4 PUSH2 0x1075 JUMP JUMPDEST PUSH2 0x10F2 JUMPI DUP3 PUSH0 ADD DUP3 SWAP1 DUP1 PUSH1 0x1 DUP2 SLOAD ADD DUP1 DUP3 SSTORE DUP1 SWAP2 POP POP PUSH1 0x1 SWAP1 SUB SWAP1 PUSH0 MSTORE PUSH1 0x20 PUSH0 KECCAK256 ADD PUSH0 SWAP1 SWAP2 SWAP1 SWAP2 SWAP1 SWAP2 POP SSTORE DUP3 PUSH0 ADD DUP1 SLOAD SWAP1 POP DUP4 PUSH1 0x1 ADD PUSH0 DUP5 DUP2 MSTORE PUSH1 0x20 ADD SWAP1 DUP2 MSTORE PUSH1 0x20 ADD PUSH0 KECCAK256 DUP2 SWAP1 SSTORE POP PUSH1 0x1 SWAP1 POP PUSH2 0x10F6 JUMP JUMPDEST PUSH0 SWAP1 POP JUMPDEST SWAP3 SWAP2 POP POP JUMP JUMPDEST PUSH0 PUSH1 0x40 MLOAD SWAP1 POP SWAP1 JUMP JUMPDEST PUSH0 DUP1 REVERT JUMPDEST PUSH0 DUP1 REVERT JUMPDEST PUSH0 DUP2 SWAP1 POP SWAP2 SWAP1 POP JUMP JUMPDEST PUSH2 0x111F DUP2 PUSH2 0x110D JUMP JUMPDEST DUP2 EQ PUSH2 0x1129 JUMPI PUSH0 DUP1 REVERT JUMPDEST POP JUMP JUMPDEST PUSH0 DUP2 CALLDATALOAD SWAP1 POP PUSH2 0x113A DUP2 PUSH2 0x1116 JUMP JUMPDEST SWAP3 SWAP2 POP POP JUMP JUMPDEST PUSH0 PUSH1 0x20 DUP3 DUP5 SUB SLT ISZERO PUSH2 0x1155 JUMPI PUSH2 0x1154 PUSH2 0x1105 JUMP JUMPDEST JUMPDEST PUSH0 PUSH2 0x1162 DUP5 DUP3 DUP6 ADD PUSH2 0x112C JUMP JUMPDEST SWAP2 POP POP SWAP3 SWAP2 POP POP JUMP JUMPDEST PUSH0 PUSH20 0xFFFFFFFFFFFFFFFFFFFFFFFFFFFFFFFFFFFFFFFF DUP3 AND SWAP1 POP SWAP2 SWAP1 POP JUMP JUMPDEST PUSH0 PUSH2 0x1194 DUP3 PUSH2 0x116B JUMP JUMPDEST SWAP1 POP SWAP2 SWAP1 POP JUMP JUMPDEST PUSH2 0x11A4 DUP2 PUSH2 0x118A JUMP JUMPDEST DUP2 EQ PUSH2 0x11AE JUMPI PUSH0 DUP1 REVERT JUMPDEST POP JUMP JUMPDEST PUSH0 DUP2 CALLDATALOAD SWAP1 POP PUSH2 0x11BF DUP2 PUSH2 0x119B JUMP JUMPDEST SWAP3 SWAP2 POP POP JUMP JUMPDEST PUSH0 DUP1 REVERT JUMPDEST PUSH0 DUP1 REVERT JUMPDEST PUSH0 PUSH1 0x1F NOT PUSH1 0x1F DUP4 ADD AND SWAP1 POP SWAP2 SWAP1 POP JUMP JUMPDEST PUSH32 0x4E487B7100000000000000000000000000000000000000000000000000000000 PUSH0 MSTORE PUSH1 0x41 PUSH1 0x4 MSTORE PUSH1 0x24 PUSH0 REVERT JUMPDEST PUSH2 0x1213 DUP3 PUSH2 0x11CD JUMP JUMPDEST DUP2 ADD DUP2 DUP2 LT PUSH8 0xFFFFFFFFFFFFFFFF DUP3 GT OR ISZERO PUSH2 0x1232 JUMPI PUSH2 0x1231 PUSH2 0x11DD JUMP JUMPDEST JUMPDEST DUP1 PUSH1 0x40 MSTORE POP POP POP JUMP JUMPDEST PUSH0 PUSH2 0x1244 PUSH2 0x10FC JUMP JUMPDEST SWAP1 POP PUSH2 0x1250 DUP3 DUP3 PUSH2 0x120A JUMP JUMPDEST SWAP2 SWAP1 POP JUMP JUMPDEST PUSH0 PUSH8 0xFFFFFFFFFFFFFFFF DUP3 GT ISZERO PUSH2 0x126F JUMPI PUSH2 0x126E PUSH2 0x11DD JUMP JUMPDEST JUMPDEST PUSH2 0x1278 DUP3 PUSH2 0x11CD JUMP JUMPDEST SWAP1 POP PUSH1 0x20 DUP2 ADD SWAP1 POP SWAP2 SWAP1 POP JUMP JUMPDEST DUP3 DUP2 DUP4 CALLDATACOPY PUSH0 DUP4 DUP4 ADD MSTORE POP POP POP JUMP JUMPDEST PUSH0 PUSH2 0x12A5 PUSH2 0x12A0 DUP5 PUSH2 0x1255 JUMP JUMPDEST PUSH2 0x123B JUMP JUMPDEST SWAP1 POP DUP3 DUP2 MSTORE PUSH1 0x20 DUP2 ADD DUP5 DUP5 DUP5 ADD GT ISZERO PUSH2 0x12C1 JUMPI PUSH2 0x12C0 PUSH2 0x11C9 JUMP JUMPDEST JUMPDEST PUSH2 0x12CC DUP5 DUP3 DUP6 PUSH2 0x1285 JUMP JUMPDEST POP SWAP4 SWAP3 POP POP POP JUMP JUMPDEST PUSH0 DUP3 PUSH1 0x1F DUP4 ADD SLT PUSH2 0x12E8 JUMPI PUSH2 0x12E7 PUSH2 0x11C5 JUMP JUMPDEST JUMPDEST DUP2 CALLDATALOAD PUSH2 0x12F8 DUP5 DUP3 PUSH1 0x20 DUP7 ADD PUSH2 0x1293 JUMP JUMPDEST SWAP2 POP POP SWAP3 SWAP2 POP POP JUMP JUMPDEST PUSH0 DUP1 PUSH1 0x40 DUP4 DUP6 SUB SLT ISZERO PUSH2 0x1317 JUMPI PUSH2 0x1316 PUSH2 0x1105 JUMP JUMPDEST JUMPDEST PUSH0 PUSH2 0x1324 DUP6 DUP3 DUP7 ADD PUSH2 0x11B1 JUMP JUMPDEST SWAP3 POP POP PUSH1 0x20 DUP4 ADD CALLDATALOAD PUSH8 0xFFFFFFFFFFFFFFFF DUP2 GT ISZERO PUSH2 0x1345 JUMPI PUSH2 0x1344 PUSH2 0x1109 JUMP JUMPDEST JUMPDEST PUSH2 0x1351 DUP6 DUP3 DUP7 ADD PUSH2 0x12D4 JUMP JUMPDEST SWAP2 POP POP SWAP3 POP SWAP3 SWAP1 POP JUMP JUMPDEST PUSH2 0x1364 DUP2 PUSH2 0x110D JUMP JUMPDEST DUP3 MSTORE POP POP JUMP JUMPDEST PUSH0 PUSH1 0x20 DUP3 ADD SWAP1 POP PUSH2 0x137D PUSH0 DUP4 ADD DUP5 PUSH2 0x135B JUMP JUMPDEST SWAP3 SWAP2 POP POP JUMP JUMPDEST PUSH0 DUP1 REVERT JUMPDEST PUSH0 PUSH2 0x140 DUP3 DUP5 SUB SLT ISZERO PUSH2 0x139D JUMPI PUSH2 0x139C PUSH2 0x1383 JUMP JUMPDEST JUMPDEST DUP2 SWAP1 POP SWAP3 SWAP2 POP POP JUMP JUMPDEST PUSH0 PUSH1 0x20 DUP3 DUP5 SUB SLT ISZERO PUSH2 0x13BB JUMPI PUSH2 0x13BA PUSH2 0x1105 JUMP JUMPDEST JUMPDEST PUSH0 DUP3 ADD CALLDATALOAD PUSH8 0xFFFFFFFFFFFFFFFF DUP2 GT ISZERO PUSH2 0x13D8 JUMPI PUSH2 0x13D7 PUSH2 0x1109 JUMP JUMPDEST JUMPDEST PUSH2 0x13E4 DUP5 DUP3 DUP6 ADD PUSH2 0x1387 JUMP JUMPDEST SWAP2 POP POP SWAP3 SWAP2 POP POP JUMP JUMPDEST PUSH2 0x13F6 DUP2 PUSH2 0x118A JUMP JUMPDEST DUP3 MSTORE POP POP JUMP JUMPDEST PUSH0 PUSH1 0x20 DUP3 ADD SWAP1 POP PUSH2 0x140F PUSH0 DUP4 ADD DUP5 PUSH2 0x13ED JUMP JUMPDEST SWAP3 SWAP2 POP POP JUMP JUMPDEST PUSH0 DUP1 REVERT JUMPDEST PUSH0 DUP1 REVERT JUMPDEST PUSH0 DUP1 DUP4 PUSH1 0x1F DUP5 ADD SLT PUSH2 0x1432 JUMPI PUSH2 0x1431 PUSH2 0x11C5 JUMP JUMPDEST JUMPDEST DUP3 CALLDATALOAD SWAP1 POP PUSH8 0xFFFFFFFFFFFFFFFF DUP2 GT ISZERO PUSH2 0x144F JUMPI PUSH2 0x144E PUSH2 0x1415 JUMP JUMPDEST JUMPDEST PUSH1 0x20 DUP4 ADD SWAP2 POP DUP4 PUSH1 0x1 DUP3 MUL DUP4 ADD GT ISZERO PUSH2 0x146B JUMPI PUSH2 0x146A PUSH2 0x1419 JUMP JUMPDEST JUMPDEST SWAP3 POP SWAP3 SWAP1 POP JUMP JUMPDEST PUSH0 DUP1 PUSH0 PUSH1 0x40 DUP5 DUP7 SUB SLT ISZERO PUSH2 0x1489 JUMPI PUSH2 0x1488 PUSH2 0x1105 JUMP JUMPDEST JUMPDEST PUSH0 PUSH2 0x1496 DUP7 DUP3 DUP8 ADD PUSH2 0x112C JUMP JUMPDEST SWAP4 POP POP PUSH1 0x20 DUP5 ADD CALLDATALOAD PUSH8 0xFFFFFFFFFFFFFFFF DUP2 GT ISZERO PUSH2 0x14B7 JUMPI PUSH2 0x14B6 PUSH2 0x1109 JUMP JUMPDEST JUMPDEST PUSH2 0x14C3 DUP7 DUP3 DUP8 ADD PUSH2 0x141D JUMP JUMPDEST SWAP3 POP SWAP3 POP POP SWAP3 POP SWAP3 POP SWAP3 JUMP JUMPDEST PUSH0 PUSH1 0xE0 DUP3 DUP5 SUB SLT ISZERO PUSH2 0x14E4 JUMPI PUSH2 0x14E3 PUSH2 0x1383 JUMP JUMPDEST JUMPDEST DUP2 SWAP1 POP SWAP3 SWAP2 POP POP JUMP JUMPDEST PUSH0 PUSH1 0x20 DUP3 DUP5 SUB SLT ISZERO PUSH2 0x1502 JUMPI PUSH2 0x1501 PUSH2 0x1105 JUMP JUMPDEST JUMPDEST PUSH0 DUP3 ADD CALLDATALOAD PUSH8 0xFFFFFFFFFFFFFFFF DUP2 GT ISZERO PUSH2 0x151F JUMPI PUSH2 0x151E PUSH2 0x1109 JUMP JUMPDEST JUMPDEST PUSH2 0x152B DUP5 DUP3 DUP6 ADD PUSH2 0x14CF JUMP JUMPDEST SWAP2 POP POP SWAP3 SWAP2 POP POP JUMP JUMPDEST PUSH0 PUSH2 0x220 DUP3 DUP5 SUB SLT ISZERO PUSH2 0x154A JUMPI PUSH2 0x1549 PUSH2 0x1383 JUMP JUMPDEST JUMPDEST DUP2 SWAP1 POP SWAP3 SWAP2 POP POP JUMP JUMPDEST PUSH0 PUSH1 0x20 DUP3 DUP5 SUB SLT ISZERO PUSH2 0x1568 JUMPI PUSH2 0x1567 PUSH2 0x1105 JUMP JUMPDEST JUMPDEST PUSH0 DUP3 ADD CALLDATALOAD PUSH8 0xFFFFFFFFFFFFFFFF DUP2 GT ISZERO PUSH2 0x1585 JUMPI PUSH2 0x1584 PUSH2 0x1109 JUMP JUMPDEST JUMPDEST PUSH2 0x1591 DUP5 DUP3 DUP6 ADD PUSH2 0x1534 JUMP JUMPDEST SWAP2 POP POP SWAP3 SWAP2 POP POP JUMP JUMPDEST PUSH0 PUSH2 0x120 DUP3 DUP5 SUB SLT ISZERO PUSH2 0x15B0 JUMPI PUSH2 0x15AF PUSH2 0x1383 JUMP JUMPDEST JUMPDEST DUP2 SWAP1 POP SWAP3 SWAP2 POP POP JUMP JUMPDEST PUSH0 PUSH1 0x20 DUP3 DUP5 SUB SLT ISZERO PUSH2 0x15CE JUMPI PUSH2 0x15CD PUSH2 0x1105 JUMP JUMPDEST JUMPDEST PUSH0 DUP3 ADD CALLDATALOAD PUSH8 0xFFFFFFFFFFFFFFFF DUP2 GT ISZERO PUSH2 0x15EB JUMPI PUSH2 0x15EA PUSH2 0x1109 JUMP JUMPDEST JUMPDEST PUSH2 0x15F7 DUP5 DUP3 DUP6 ADD PUSH2 0x159A JUMP JUMPDEST SWAP2 POP POP SWAP3 SWAP2 POP POP JUMP JUMPDEST PUSH0 PUSH1 0x20 DUP3 DUP5 SUB SLT ISZERO PUSH2 0x1615 JUMPI PUSH2 0x1614 PUSH2 0x1105 JUMP JUMPDEST JUMPDEST PUSH0 PUSH2 0x1622 DUP5 DUP3 DUP6 ADD PUSH2 0x11B1 JUMP JUMPDEST SWAP2 POP POP SWAP3 SWAP2 POP POP JUMP JUMPDEST PUSH0 PUSH1 0x40 DUP3 ADD SWAP1 POP PUSH2 0x163E PUSH0 DUP4 ADD DUP6 PUSH2 0x13ED JUMP JUMPDEST PUSH2 0x164B PUSH1 0x20 DUP4 ADD DUP5 PUSH2 0x135B JUMP JUMPDEST SWAP4 SWAP3 POP POP POP JUMP JUMPDEST PUSH0 DUP2 ISZERO ISZERO SWAP1 POP SWAP2 SWAP1 POP JUMP JUMPDEST PUSH2 0x1666 DUP2 PUSH2 0x1652 JUMP JUMPDEST DUP2 EQ PUSH2 0x1670 JUMPI PUSH0 DUP1 REVERT JUMPDEST POP JUMP JUMPDEST PUSH0 DUP2 MLOAD SWAP1 POP PUSH2 0x1681 DUP2 PUSH2 0x165D JUMP JUMPDEST SWAP3 SWAP2 POP POP JUMP JUMPDEST PUSH0 PUSH1 0x20 DUP3 DUP5 SUB SLT ISZERO PUSH2 0x169C JUMPI PUSH2 0x169B PUSH2 0x1105 JUMP JUMPDEST JUMPDEST PUSH0 PUSH2 0x16A9 DUP5 DUP3 DUP6 ADD PUSH2 0x1673 JUMP JUMPDEST SWAP2 POP POP SWAP3 SWAP2 POP POP JUMP JUMPDEST PUSH32 0x4E487B7100000000000000000000000000000000000000000000000000000000 PUSH0 MSTORE PUSH1 0x21 PUSH1 0x4 MSTORE PUSH1 0x24 PUSH0 REVERT JUMPDEST PUSH0 DUP3 DUP3 MSTORE PUSH1 0x20 DUP3 ADD SWAP1 POP SWAP3 SWAP2 POP POP JUMP JUMPDEST PUSH32 0x4F6E6C79206120636F6D70616E792063616E2076657269667900000000000000 PUSH0 DUP3 ADD MSTORE POP JUMP JUMPDEST PUSH0 PUSH2 0x1723 PUSH1 0x19 DUP4 PUSH2 0x16DF JUMP JUMPDEST SWAP2 POP PUSH2 0x172E DUP3 PUSH2 0x16EF JUMP JUMPDEST PUSH1 0x20 DUP3 ADD SWAP1 POP SWAP2 SWAP1 POP JUMP JUMPDEST PUSH0 PUSH1 0x20 DUP3 ADD SWAP1 POP DUP2 DUP2 SUB PUSH0 DUP4 ADD MSTORE PUSH2 0x1750 DUP2 PUSH2 0x1717 JUMP JUMPDEST SWAP1 POP SWAP2 SWAP1 POP JUMP JUMPDEST PUSH0 PUSH1 0x60 DUP3 ADD SWAP1 POP PUSH2 0x176A PUSH0 DUP4 ADD DUP7 PUSH2 0x13ED JUMP JUMPDEST PUSH2 0x1777 PUSH1 0x20 DUP4 ADD DUP6 PUSH2 0x13ED JUMP JUMPDEST PUSH2 0x1784 PUSH1 0x40 DUP4 ADD DUP5 PUSH2 0x135B JUMP JUMPDEST SWAP5 SWAP4 POP POP POP POP JUMP JUMPDEST PUSH0 DUP2 MLOAD SWAP1 POP PUSH2 0x179A DUP2 PUSH2 0x119B JUMP JUMPDEST SWAP3 SWAP2 POP POP JUMP JUMPDEST PUSH0 PUSH1 0x20 DUP3 DUP5 SUB SLT ISZERO PUSH2 0x17B5 JUMPI PUSH2 0x17B4 PUSH2 0x1105 JUMP JUMPDEST JUMPDEST PUSH0 PUSH2 0x17C2 DUP5 DUP3 DUP6 ADD PUSH2 0x178C JUMP JUMPDEST SWAP2 POP POP SWAP3 SWAP2 POP POP JUMP JUMPDEST PUSH32 0x4F6E6C792065737461626C6973686D656E742063616E206D696E740000000000 PUSH0 DUP3 ADD MSTORE POP JUMP JUMPDEST PUSH0 PUSH2 0x17FF PUSH1 0x1B DUP4 PUSH2 0x16DF JUMP JUMPDEST SWAP2 POP PUSH2 0x180A DUP3 PUSH2 0x17CB JUMP JUMPDEST PUSH1 0x20 DUP3 ADD SWAP1 POP SWAP2 SWAP1 POP JUMP JUMPDEST PUSH0 PUSH1 0x20 DUP3 ADD SWAP1 POP DUP2 DUP2 SUB PUSH0 DUP4 ADD MSTORE PUSH2 0x182C DUP2 PUSH2 0x17F3 JUMP JUMPDEST SWAP1 POP SWAP2 SWAP1 POP JUMP JUMPDEST PUSH32 0x45737461626C6973686D656E74206E6F7420617574686F72697A656400000000 PUSH0 DUP3 ADD MSTORE POP JUMP JUMPDEST PUSH0 PUSH2 0x1867 PUSH1 0x1C DUP4 PUSH2 0x16DF JUMP JUMPDEST SWAP2 POP PUSH2 0x1872 DUP3 PUSH2 0x1833 JUMP JUMPDEST PUSH1 0x20 DUP3 ADD SWAP1 POP SWAP2 SWAP1 POP JUMP JUMPDEST PUSH0 PUSH1 0x20 DUP3 ADD SWAP1 POP DUP2 DUP2 SUB PUSH0 DUP4 ADD MSTORE PUSH2 0x1894 DUP2 PUSH2 0x185B JUMP JUMPDEST SWAP1 POP SWAP2 SWAP1 POP JUMP JUMPDEST PUSH0 DUP2 MLOAD SWAP1 POP SWAP2 SWAP1 POP JUMP JUMPDEST DUP3 DUP2 DUP4 MCOPY PUSH0 DUP4 DUP4 ADD MSTORE POP POP POP JUMP JUMPDEST PUSH0 PUSH2 0x18BD DUP3 PUSH2 0x189B JUMP JUMPDEST PUSH2 0x18C7 DUP2 DUP6 PUSH2 0x16DF JUMP JUMPDEST SWAP4 POP PUSH2 0x18D7 DUP2 DUP6 PUSH1 0x20 DUP7 ADD PUSH2 0x18A5 JUMP JUMPDEST PUSH2 0x18E0 DUP2 PUSH2 0x11CD JUMP JUMPDEST DUP5 ADD SWAP2 POP POP SWAP3 SWAP2 POP POP JUMP JUMPDEST PUSH0 PUSH1 0x40 DUP3 ADD SWAP1 POP PUSH2 0x18FE PUSH0 DUP4 ADD DUP6 PUSH2 0x13ED JUMP JUMPDEST DUP2 DUP2 SUB PUSH1 0x20 DUP4 ADD MSTORE PUSH2 0x1910 DUP2 DUP5 PUSH2 0x18B3 JUMP JUMPDEST SWAP1 POP SWAP4 SWAP3 POP POP POP JUMP JUMPDEST PUSH32 0x4163746F7220616C726561647920657869737473000000000000000000000000 PUSH0 DUP3 ADD MSTORE POP JUMP JUMPDEST PUSH0 PUSH2 0x194D PUSH1 0x14 DUP4 PUSH2 0x16DF JUMP JUMPDEST SWAP2 POP PUSH2 0x1958 DUP3 PUSH2 0x1919 JUMP JUMPDEST PUSH1 0x20 DUP3 ADD SWAP1 POP SWAP2 SWAP1 POP JUMP JUMPDEST PUSH0 PUSH1 0x20 DUP3 ADD SWAP1 POP DUP2 DUP2 SUB PUSH0 DUP4 ADD MSTORE PUSH2 0x197A DUP2 PUSH2 0x1941 JUMP JUMPDEST SWAP1 POP SWAP2 SWAP1 POP JUMP JUMPDEST PUSH0 DUP2 CALLDATALOAD PUSH2 0x198D DUP2 PUSH2 0x1116 JUMP JUMPDEST DUP1 SWAP2 POP POP SWAP2 SWAP1 POP JUMP JUMPDEST PUSH0 DUP2 PUSH0 SHL SWAP1 POP SWAP2 SWAP1 POP JUMP JUMPDEST PUSH0 PUSH32 0xFFFFFFFFFFFFFFFFFFFFFFFFFFFFFFFFFFFFFFFFFFFFFFFFFFFFFFFFFFFFFFFF PUSH2 0x19CC DUP5 PUSH2 0x1996 JUMP JUMPDEST SWAP4 POP DUP1 NOT DUP4 AND SWAP3 POP DUP1 DUP5 AND DUP4 OR SWAP2 POP POP SWAP3 SWAP2 POP POP JUMP JUMPDEST PUSH0 DUP2 SWAP1 POP SWAP2 SWAP1 POP JUMP JUMPDEST PUSH0 PUSH2 0x1A05 PUSH2 0x1A00 PUSH2 0x19FB DUP5 PUSH2 0x110D JUMP JUMPDEST PUSH2 0x19E2 JUMP JUMPDEST PUSH2 0x110D JUMP JUMPDEST SWAP1 POP SWAP2 SWAP1 POP JUMP JUMPDEST PUSH0 DUP2 SWAP1 POP SWAP2 SWAP1 POP JUMP JUMPDEST PUSH2 0x1A1E DUP3 PUSH2 0x19EB JUMP JUMPDEST PUSH2 0x1A31 PUSH2 0x1A2A DUP3 PUSH2 0x1A0C JUMP JUMPDEST DUP4 SLOAD PUSH2 0x19A1 JUMP JUMPDEST DUP3 SSTORE POP POP POP JUMP JUMPDEST PUSH0 DUP1 REVERT JUMPDEST PUSH0 DUP1 REVERT JUMPDEST PUSH0 DUP1 REVERT JUMPDEST PUSH0 DUP1 DUP4 CALLDATALOAD PUSH1 0x1 PUSH1 0x20 SUB DUP5 CALLDATASIZE SUB SUB DUP2 SLT PUSH2 0x1A60 JUMPI PUSH2 0x1A5F PUSH2 0x1A38 JUMP JUMPDEST JUMPDEST DUP1 DUP5 ADD SWAP3 POP DUP3 CALLDATALOAD SWAP2 POP PUSH8 0xFFFFFFFFFFFFFFFF DUP3 GT ISZERO PUSH2 0x1A82 JUMPI PUSH2 0x1A81 PUSH2 0x1A3C JUMP JUMPDEST JUMPDEST PUSH1 0x20 DUP4 ADD SWAP3 POP PUSH1 0x1 DUP3 MUL CALLDATASIZE SUB DUP4 SGT ISZERO PUSH2 0x1A9E JUMPI PUSH2 0x1A9D PUSH2 0x1A40 JUMP JUMPDEST JUMPDEST POP SWAP3 POP SWAP3 SWAP1 POP JUMP JUMPDEST PUSH0 DUP3 SWAP1 POP SWAP3 SWAP2 POP POP JUMP JUMPDEST PUSH32 0x4E487B7100000000000000000000000000000000000000000000000000000000 PUSH0 MSTORE PUSH1 0x22 PUSH1 0x4 MSTORE PUSH1 0x24 PUSH0 REVERT JUMPDEST PUSH0 PUSH1 0x2 DUP3 DIV SWAP1 POP PUSH1 0x1 DUP3 AND DUP1 PUSH2 0x1AF4 JUMPI PUSH1 0x7F DUP3 AND SWAP2 POP JUMPDEST PUSH1 0x20 DUP3 LT DUP2 SUB PUSH2 0x1B07 JUMPI PUSH2 0x1B06 PUSH2 0x1AB0 JUMP JUMPDEST JUMPDEST POP SWAP2 SWAP1 POP JUMP JUMPDEST PUSH0 DUP2 SWAP1 POP DUP2 PUSH0 MSTORE PUSH1 0x20 PUSH0 KECCAK256 SWAP1 POP SWAP2 SWAP1 POP JUMP JUMPDEST PUSH0 PUSH1 0x20 PUSH1 0x1F DUP4 ADD DIV SWAP1 POP SWAP2 SWAP1 POP JUMP JUMPDEST PUSH0 DUP3 DUP3 SHL SWAP1 POP SWAP3 SWAP2 POP POP JUMP JUMPDEST PUSH0 PUSH1 0x8 DUP4 MUL PUSH2 0x1B69 PUSH32 0xFFFFFFFFFFFFFFFFFFFFFFFFFFFFFFFFFFFFFFFFFFFFFFFFFFFFFFFFFFFFFFFF DUP3 PUSH2 0x1B2E JUMP JUMPDEST PUSH2 0x1B73 DUP7 DUP4 PUSH2 0x1B2E JUMP JUMPDEST SWAP6 POP DUP1 NOT DUP5 AND SWAP4 POP DUP1 DUP7 AND DUP5 OR SWAP3 POP POP POP SWAP4 SWAP3 POP POP POP JUMP JUMPDEST PUSH2 0x1B94 DUP4 PUSH2 0x19EB JUMP JUMPDEST PUSH2 0x1BA8 PUSH2 0x1BA0 DUP3 PUSH2 0x1A0C JUMP JUMPDEST DUP5 DUP5 SLOAD PUSH2 0x1B3A JUMP JUMPDEST DUP3 SSTORE POP POP POP POP JUMP JUMPDEST PUSH0 SWAP1 JUMP JUMPDEST PUSH2 0x1BBC PUSH2 0x1BB0 JUMP JUMPDEST PUSH2 0x1BC7 DUP2 DUP5 DUP5 PUSH2 0x1B8B JUMP JUMPDEST POP POP POP JUMP JUMPDEST JUMPDEST DUP2 DUP2 LT ISZERO PUSH2 0x1BEA JUMPI PUSH2 0x1BDF PUSH0 DUP3 PUSH2 0x1BB4 JUMP JUMPDEST PUSH1 0x1 DUP2 ADD SWAP1 POP PUSH2 0x1BCD JUMP JUMPDEST POP POP JUMP JUMPDEST PUSH1 0x1F DUP3 GT ISZERO PUSH2 0x1C2F JUMPI PUSH2 0x1C00 DUP2 PUSH2 0x1B0D JUMP JUMPDEST PUSH2 0x1C09 DUP5 PUSH2 0x1B1F JUMP JUMPDEST DUP2 ADD PUSH1 0x20 DUP6 LT ISZERO PUSH2 0x1C18 JUMPI DUP2 SWAP1 POP JUMPDEST PUSH2 0x1C2C PUSH2 0x1C24 DUP6 PUSH2 0x1B1F JUMP JUMPDEST DUP4 ADD DUP3 PUSH2 0x1BCC JUMP JUMPDEST POP POP JUMPDEST POP POP POP JUMP JUMPDEST PUSH0 DUP3 DUP3 SHR SWAP1 POP SWAP3 SWAP2 POP POP JUMP JUMPDEST PUSH0 PUSH2 0x1C4F PUSH0 NOT DUP5 PUSH1 0x8 MUL PUSH2 0x1C34 JUMP JUMPDEST NOT DUP1 DUP4 AND SWAP2 POP POP SWAP3 SWAP2 POP POP JUMP JUMPDEST PUSH0 PUSH2 0x1C67 DUP4 DUP4 PUSH2 0x1C40 JUMP JUMPDEST SWAP2 POP DUP3 PUSH1 0x2 MUL DUP3 OR SWAP1 POP SWAP3 SWAP2 POP POP JUMP JUMPDEST PUSH2 0x1C81 DUP4 DUP4 PUSH2 0x1AA6 JUMP JUMPDEST PUSH8 0xFFFFFFFFFFFFFFFF DUP2 GT ISZERO PUSH2 0x1C9A JUMPI PUSH2 0x1C99 PUSH2 0x11DD JUMP JUMPDEST JUMPDEST PUSH2 0x1CA4 DUP3 SLOAD PUSH2 0x1ADD JUMP JUMPDEST PUSH2 0x1CAF DUP3 DUP3 DUP6 PUSH2 0x1BEE JUMP JUMPDEST PUSH0 PUSH1 0x1F DUP4 GT PUSH1 0x1 DUP2 EQ PUSH2 0x1CDC JUMPI PUSH0 DUP5 ISZERO PUSH2 0x1CCA JUMPI DUP3 DUP8 ADD CALLDATALOAD SWAP1 POP JUMPDEST PUSH2 0x1CD4 DUP6 DUP3 PUSH2 0x1C5C JUMP JUMPDEST DUP7 SSTORE POP PUSH2 0x1D3B JUMP JUMPDEST PUSH1 0x1F NOT DUP5 AND PUSH2 0x1CEA DUP7 PUSH2 0x1B0D JUMP JUMPDEST PUSH0 JUMPDEST DUP3 DUP2 LT ISZERO PUSH2 0x1D11 JUMPI DUP5 DUP10 ADD CALLDATALOAD DUP3 SSTORE PUSH1 0x1 DUP3 ADD SWAP2 POP PUSH1 0x20 DUP6 ADD SWAP5 POP PUSH1 0x20 DUP2 ADD SWAP1 POP PUSH2 0x1CEC JUMP JUMPDEST DUP7 DUP4 LT ISZERO PUSH2 0x1D2E JUMPI DUP5 DUP10 ADD CALLDATALOAD PUSH2 0x1D2A PUSH1 0x1F DUP10 AND DUP3 PUSH2 0x1C40 JUMP JUMPDEST DUP4 SSTORE POP JUMPDEST PUSH1 0x1 PUSH1 0x2 DUP9 MUL ADD DUP9 SSTORE POP POP POP JUMPDEST POP POP POP POP POP POP POP JUMP JUMPDEST PUSH2 0x1D4F DUP4 DUP4 DUP4 PUSH2 0x1C77 JUMP JUMPDEST POP POP POP JUMP JUMPDEST PUSH0 DUP2 ADD PUSH0 DUP4 ADD DUP1 PUSH2 0x1D64 DUP2 PUSH2 0x1981 JUMP JUMPDEST SWAP1 POP PUSH2 0x1D70 DUP2 DUP5 PUSH2 0x1A15 JUMP JUMPDEST POP POP POP PUSH1 0x1 DUP2 ADD PUSH1 0x20 DUP4 ADD PUSH2 0x1D85 DUP2 DUP6 PUSH2 0x1A44 JUMP JUMPDEST PUSH2 0x1D90 DUP2 DUP4 DUP7 PUSH2 0x1D44 JUMP JUMPDEST POP POP POP POP PUSH1 0x2 DUP2 ADD PUSH1 0x40 DUP4 ADD PUSH2 0x1DA6 DUP2 DUP6 PUSH2 0x1A44 JUMP JUMPDEST PUSH2 0x1DB1 DUP2 DUP4 DUP7 PUSH2 0x1D44 JUMP JUMPDEST POP POP POP POP PUSH1 0x3 DUP2 ADD PUSH1 0x60 DUP4 ADD PUSH2 0x1DC7 DUP2 DUP6 PUSH2 0x1A44 JUMP JUMPDEST PUSH2 0x1DD2 DUP2 DUP4 DUP7 PUSH2 0x1D44 JUMP JUMPDEST POP POP POP POP PUSH1 0x4 DUP2 ADD PUSH1 0x80 DUP4 ADD PUSH2 0x1DE8 DUP2 DUP6 PUSH2 0x1A44 JUMP JUMPDEST PUSH2 0x1DF3 DUP2 DUP4 DUP7 PUSH2 0x1D44 JUMP JUMPDEST POP POP POP POP PUSH1 0x5 DUP2 ADD PUSH1 0xA0 DUP4 ADD PUSH2 0x1E09 DUP2 DUP6 PUSH2 0x1A44 JUMP JUMPDEST PUSH2 0x1E14 DUP2 DUP4 DUP7 PUSH2 0x1D44 JUMP JUMPDEST POP POP POP POP PUSH1 0x6 DUP2 ADD PUSH1 0xC0 DUP4 ADD PUSH2 0x1E2A DUP2 DUP6 PUSH2 0x1A44 JUMP JUMPDEST PUSH2 0x1E35 DUP2 DUP4 DUP7 PUSH2 0x1D44 JUMP JUMPDEST POP POP POP POP PUSH1 0x7 DUP2 ADD PUSH1 0xE0 DUP4 ADD PUSH2 0x1E4B DUP2 DUP6 PUSH2 0x1A44 JUMP JUMPDEST PUSH2 0x1E56 DUP2 DUP4 DUP7 PUSH2 0x1D44 JUMP JUMPDEST POP POP POP POP PUSH1 0x8 DUP2 ADD PUSH2 0x100 DUP4 ADD PUSH2 0x1E6D DUP2 DUP6 PUSH2 0x1A44 JUMP JUMPDEST PUSH2 0x1E78 DUP2 DUP4 DUP7 PUSH2 0x1D44 JUMP JUMPDEST POP POP POP POP PUSH1 0x9 DUP2 ADD PUSH2 0x120 DUP4 ADD PUSH2 0x1E8F DUP2 DUP6 PUSH2 0x1A44 JUMP JUMPDEST PUSH2 0x1E9A DUP2 DUP4 DUP7 PUSH2 0x1D44 JUMP JUMPDEST POP POP POP POP POP POP JUMP JUMPDEST PUSH2 0x1EAC DUP3 DUP3 PUSH2 0x1D54 JUMP JUMPDEST POP POP JUMP JUMPDEST PUSH32 0x4F6E6C79206120636F6D70616E792063616E206576616C756174650000000000 PUSH0 DUP3 ADD MSTORE POP JUMP JUMPDEST PUSH0 PUSH2 0x1EE4 PUSH1 0x1B DUP4 PUSH2 0x16DF JUMP JUMPDEST SWAP2 POP PUSH2 0x1EEF DUP3 PUSH2 0x1EB0 JUMP JUMPDEST PUSH1 0x20 DUP3 ADD SWAP1 POP SWAP2 SWAP1 POP JUMP JUMPDEST PUSH0 PUSH1 0x20 DUP3 ADD SWAP1 POP DUP2 DUP2 SUB PUSH0 DUP4 ADD MSTORE PUSH2 0x1F11 DUP2 PUSH2 0x1ED8 JUMP JUMPDEST SWAP1 POP SWAP2 SWAP1 POP JUMP JUMPDEST PUSH32 0x53747564656E7420646F6573206E6F7420657869737400000000000000000000 PUSH0 DUP3 ADD MSTORE POP JUMP JUMPDEST PUSH0 PUSH2 0x1F4C PUSH1 0x16 DUP4 PUSH2 0x16DF JUMP JUMPDEST SWAP2 POP PUSH2 0x1F57 DUP3 PUSH2 0x1F18 JUMP JUMPDEST PUSH1 0x20 DUP3 ADD SWAP1 POP SWAP2 SWAP1 POP JUMP JUMPDEST PUSH0 PUSH1 0x20 DUP3 ADD SWAP1 POP DUP2 DUP2 SUB PUSH0 DUP4 ADD MSTORE PUSH2 0x1F79 DUP2 PUSH2 0x1F40 JUMP JUMPDEST SWAP1 POP SWAP2 SWAP1 POP JUMP JUMPDEST PUSH0 PUSH2 0x1F8B DUP4 DUP6 PUSH2 0x16DF JUMP JUMPDEST SWAP4 POP PUSH2 0x1F98 DUP4 DUP6 DUP5 PUSH2 0x1285 JUMP JUMPDEST PUSH2 0x1FA1 DUP4 PUSH2 0x11CD JUMP JUMPDEST DUP5 ADD SWAP1 POP SWAP4 SWAP3 POP POP POP JUMP JUMPDEST PUSH0 PUSH1 0x20 DUP3 ADD SWAP1 POP DUP2 DUP2 SUB PUSH0 DUP4 ADD MSTORE PUSH2 0x1FC5 DUP2 DUP5 DUP7 PUSH2 0x1F80 JUMP JUMPDEST SWAP1 POP SWAP4 SWAP3 POP POP POP JUMP JUMPDEST PUSH0 DUP2 ADD PUSH0 DUP4 ADD DUP1 PUSH2 0x1FDE DUP2 PUSH2 0x1981 JUMP JUMPDEST SWAP1 POP PUSH2 0x1FEA DUP2 DUP5 PUSH2 0x1A15 JUMP JUMPDEST POP POP POP PUSH1 0x1 DUP2 ADD PUSH1 0x20 DUP4 ADD PUSH2 0x1FFF DUP2 DUP6 PUSH2 0x1A44 JUMP JUMPDEST PUSH2 0x200A DUP2 DUP4 DUP7 PUSH2 0x1D44 JUMP JUMPDEST POP POP POP POP PUSH1 0x2 DUP2 ADD PUSH1 0x40 DUP4 ADD PUSH2 0x2020 DUP2 DUP6 PUSH2 0x1A44 JUMP JUMPDEST PUSH2 0x202B DUP2 DUP4 DUP7 PUSH2 0x1D44 JUMP JUMPDEST POP POP POP POP PUSH1 0x3 DUP2 ADD PUSH1 0x60 DUP4 ADD PUSH2 0x2041 DUP2 DUP6 PUSH2 0x1A44 JUMP JUMPDEST PUSH2 0x204C DUP2 DUP4 DUP7 PUSH2 0x1D44 JUMP JUMPDEST POP POP POP POP PUSH1 0x4 DUP2 ADD PUSH1 0x80 DUP4 ADD PUSH2 0x2062 DUP2 DUP6 PUSH2 0x1A44 JUMP JUMPDEST PUSH2 0x206D DUP2 DUP4 DUP7 PUSH2 0x1D44 JUMP JUMPDEST POP POP POP POP PUSH1 0x5 DUP2 ADD PUSH1 0xA0 DUP4 ADD PUSH2 0x2083 DUP2 DUP6 PUSH2 0x1A44 JUMP JUMPDEST PUSH2 0x208E DUP2 DUP4 DUP7 PUSH2 0x1D44 JUMP JUMPDEST POP POP POP POP PUSH1 0x6 DUP2 ADD PUSH1 0xC0 DUP4 ADD DUP1 PUSH2 0x20A4 DUP2 PUSH2 0x1981 JUMP JUMPDEST SWAP1 POP PUSH2 0x20B0 DUP2 DUP5 PUSH2 0x1A15 JUMP JUMPDEST POP POP POP POP POP JUMP JUMPDEST PUSH2 0x20C1 DUP3 DUP3 PUSH2 0x1FCE JUMP JUMPDEST POP POP JUMP JUMPDEST PUSH32 0x53747564656E7420616C72656164792065786973747300000000000000000000 PUSH0 DUP3 ADD MSTORE POP JUMP JUMPDEST PUSH0 PUSH2 0x20F9 PUSH1 0x16 DUP4 PUSH2 0x16DF JUMP JUMPDEST SWAP2 POP PUSH2 0x2104 DUP3 PUSH2 0x20C5 JUMP JUMPDEST PUSH1 0x20 DUP3 ADD SWAP1 POP SWAP2 SWAP1 POP JUMP JUMPDEST PUSH0 PUSH1 0x20 DUP3 ADD SWAP1 POP DUP2 DUP2 SUB PUSH0 DUP4 ADD MSTORE PUSH2 0x2126 DUP2 PUSH2 0x20ED JUMP JUMPDEST SWAP1 POP SWAP2 SWAP1 POP JUMP JUMPDEST PUSH0 DUP2 ADD PUSH0 DUP4 ADD DUP1 PUSH2 0x213D DUP2 PUSH2 0x1981 JUMP JUMPDEST SWAP1 POP PUSH2 0x2149 DUP2 DUP5 PUSH2 0x1A15 JUMP JUMPDEST POP POP POP PUSH1 0x1 DUP2 ADD PUSH1 0x20 DUP4 ADD PUSH2 0x215E DUP2 DUP6 PUSH2 0x1A44 JUMP JUMPDEST PUSH2 0x2169 DUP2 DUP4 DUP7 PUSH2 0x1D44 JUMP JUMPDEST POP POP POP POP PUSH1 0x2 DUP2 ADD PUSH1 0x40 DUP4 ADD PUSH2 0x217F DUP2 DUP6 PUSH2 0x1A44 JUMP JUMPDEST PUSH2 0x218A DUP2 DUP4 DUP7 PUSH2 0x1D44 JUMP JUMPDEST POP POP POP POP PUSH1 0x3 DUP2 ADD PUSH1 0x60 DUP4 ADD PUSH2 0x21A0 DUP2 DUP6 PUSH2 0x1A44 JUMP JUMPDEST PUSH2 0x21AB DUP2 DUP4 DUP7 PUSH2 0x1D44 JUMP JUMPDEST POP POP POP POP PUSH1 0x4 DUP2 ADD PUSH1 0x80 DUP4 ADD PUSH2 0x21C1 DUP2 DUP6 PUSH2 0x1A44 JUMP JUMPDEST PUSH2 0x21CC DUP2 DUP4 DUP7 PUSH2 0x1D44 JUMP JUMPDEST POP POP POP POP PUSH1 0x5 DUP2 ADD PUSH1 0xA0 DUP4 ADD PUSH2 0x21E2 DUP2 DUP6 PUSH2 0x1A44 JUMP JUMPDEST PUSH2 0x21ED DUP2 DUP4 DUP7 PUSH2 0x1D44 JUMP JUMPDEST POP POP POP POP PUSH1 0x6 DUP2 ADD PUSH1 0xC0 DUP4 ADD PUSH2 0x2203 DUP2 DUP6 PUSH2 0x1A44 JUMP JUMPDEST PUSH2 0x220E DUP2 DUP4 DUP7 PUSH2 0x1D44 JUMP JUMPDEST POP POP POP POP PUSH1 0x7 DUP2 ADD PUSH1 0xE0 DUP4 ADD PUSH2 0x2224 DUP2 DUP6 PUSH2 0x1A44 JUMP JUMPDEST PUSH2 0x222F DUP2 DUP4 DUP7 PUSH2 0x1D44 JUMP JUMPDEST POP POP POP POP PUSH1 0x8 DUP2 ADD PUSH2 0x100 DUP4 ADD PUSH2 0x2246 DUP2 DUP6 PUSH2 0x1A44 JUMP JUMPDEST PUSH2 0x2251 DUP2 DUP4 DUP7 PUSH2 0x1D44 JUMP JUMPDEST POP POP POP POP PUSH1 0x9 DUP2 ADD PUSH2 0x120 DUP4 ADD PUSH2 0x2268 DUP2 DUP6 PUSH2 0x1A44 JUMP JUMPDEST PUSH2 0x2273 DUP2 DUP4 DUP7 PUSH2 0x1D44 JUMP JUMPDEST POP POP POP POP PUSH1 0xA DUP2 ADD PUSH2 0x140 DUP4 ADD PUSH2 0x228A DUP2 DUP6 PUSH2 0x1A44 JUMP JUMPDEST PUSH2 0x2295 DUP2 DUP4 DUP7 PUSH2 0x1D44 JUMP JUMPDEST POP POP POP POP PUSH1 0xB DUP2 ADD PUSH2 0x160 DUP4 ADD PUSH2 0x22AC DUP2 DUP6 PUSH2 0x1A44 JUMP JUMPDEST PUSH2 0x22B7 DUP2 DUP4 DUP7 PUSH2 0x1D44 JUMP JUMPDEST POP POP POP POP PUSH1 0xC DUP2 ADD PUSH2 0x180 DUP4 ADD PUSH2 0x22CE DUP2 DUP6 PUSH2 0x1A44 JUMP JUMPDEST PUSH2 0x22D9 DUP2 DUP4 DUP7 PUSH2 0x1D44 JUMP JUMPDEST POP POP POP POP PUSH1 0xD DUP2 ADD PUSH2 0x1A0 DUP4 ADD PUSH2 0x22F0 DUP2 DUP6 PUSH2 0x1A44 JUMP JUMPDEST PUSH2 0x22FB DUP2 DUP4 DUP7 PUSH2 0x1D44 JUMP JUMPDEST POP POP POP POP PUSH1 0xE DUP2 ADD PUSH2 0x1C0 DUP4 ADD PUSH2 0x2312 DUP2 DUP6 PUSH2 0x1A44 JUMP JUMPDEST PUSH2 0x231D DUP2 DUP4 DUP7 PUSH2 0x1D44 JUMP JUMPDEST POP POP POP POP PUSH1 0xF DUP2 ADD PUSH2 0x1E0 DUP4 ADD PUSH2 0x2334 DUP2 DUP6 PUSH2 0x1A44 JUMP JUMPDEST PUSH2 0x233F DUP2 DUP4 DUP7 PUSH2 0x1D44 JUMP JUMPDEST POP POP POP POP PUSH1 0x10 DUP2 ADD PUSH2 0x200 DUP4 ADD PUSH2 0x2356 DUP2 DUP6 PUSH2 0x1A44 JUMP JUMPDEST PUSH2 0x2361 DUP2 DUP4 DUP7 PUSH2 0x1D44 JUMP JUMPDEST POP POP POP POP POP POP JUMP JUMPDEST PUSH2 0x2373 DUP3 DUP3 PUSH2 0x212D JUMP JUMPDEST POP POP JUMP JUMPDEST PUSH32 0x4469706C6F6D6120616C72656164792065786973747300000000000000000000 PUSH0 DUP3 ADD MSTORE POP JUMP JUMPDEST PUSH0 PUSH2 0x23AB PUSH1 0x16 DUP4 PUSH2 0x16DF JUMP JUMPDEST SWAP2 POP PUSH2 0x23B6 DUP3 PUSH2 0x2377 JUMP JUMPDEST PUSH1 0x20 DUP3 ADD SWAP1 POP SWAP2 SWAP1 POP JUMP JUMPDEST PUSH0 PUSH1 0x20 DUP3 ADD SWAP1 POP DUP2 DUP2 SUB PUSH0 DUP4 ADD MSTORE PUSH2 0x23D8 DUP2 PUSH2 0x239F JUMP JUMPDEST SWAP1 POP SWAP2 SWAP1 POP JUMP JUMPDEST PUSH0 DUP2 ADD PUSH0 DUP4 ADD DUP1 PUSH2 0x23EF DUP2 PUSH2 0x1981 JUMP JUMPDEST SWAP1 POP PUSH2 0x23FB DUP2 DUP5 PUSH2 0x1A15 JUMP JUMPDEST POP POP POP PUSH1 0x1 DUP2 ADD PUSH1 0x20 DUP4 ADD DUP1 PUSH2 0x2410 DUP2 PUSH2 0x1981 JUMP JUMPDEST SWAP1 POP PUSH2 0x241C DUP2 DUP5 PUSH2 0x1A15 JUMP JUMPDEST POP POP POP PUSH1 0x2 DUP2 ADD PUSH1 0x40 DUP4 ADD PUSH2 0x2431 DUP2 DUP6 PUSH2 0x1A44 JUMP JUMPDEST PUSH2 0x243C DUP2 DUP4 DUP7 PUSH2 0x1D44 JUMP JUMPDEST POP POP POP POP PUSH1 0x3 DUP2 ADD PUSH1 0x60 DUP4 ADD DUP1 PUSH2 0x2452 DUP2 PUSH2 0x1981 JUMP JUMPDEST SWAP1 POP PUSH2 0x245E DUP2 DUP5 PUSH2 0x1A15 JUMP JUMPDEST POP POP POP PUSH1 0x4 DUP2 ADD PUSH1 0x80 DUP4 ADD PUSH2 0x2473 DUP2 DUP6 PUSH2 0x1A44 JUMP JUMPDEST PUSH2 0x247E DUP2 DUP4 DUP7 PUSH2 0x1D44 JUMP JUMPDEST POP POP POP POP PUSH1 0x5 DUP2 ADD PUSH1 0xA0 DUP4 ADD PUSH2 0x2494 DUP2 DUP6 PUSH2 0x1A44 JUMP JUMPDEST PUSH2 0x249F DUP2 DUP4 DUP7 PUSH2 0x1D44 JUMP JUMPDEST POP POP POP POP PUSH1 0x6 DUP2 ADD PUSH1 0xC0 DUP4 ADD PUSH2 0x24B5 DUP2 DUP6 PUSH2 0x1A44 JUMP JUMPDEST PUSH2 0x24C0 DUP2 DUP4 DUP7 PUSH2 0x1D44 JUMP JUMPDEST POP POP POP POP PUSH1 0x7 DUP2 ADD PUSH1 0xE0 DUP4 ADD PUSH2 0x24D6 DUP2 DUP6 PUSH2 0x1A44 JUMP JUMPDEST PUSH2 0x24E1 DUP2 DUP4 DUP7 PUSH2 0x1D44 JUMP JUMPDEST POP POP POP POP PUSH1 0x8 DUP2 ADD PUSH2 0x100 DUP4 ADD PUSH2 0x24F8 DUP2 DUP6 PUSH2 0x1A44 JUMP JUMPDEST PUSH2 0x2503 DUP2 DUP4 DUP7 PUSH2 0x1D44 JUMP JUMPDEST POP POP POP POP POP POP JUMP JUMPDEST PUSH2 0x2515 DUP3 DUP3 PUSH2 0x23DF JUMP JUMPDEST POP POP JUMP INVALID LOG2 PUSH5 0x6970667358 0x22 SLT KECCAK256 PUSH25 0x75532DB182CF73FBBEE947D6EECEC9090D9998B7AE8D0CA08E 0x2A PUSH10 0x89E1772764736F6C6343 STOP ADDMOD BYTE STOP CALLER "
		},
		"gasEstimates": {
			"creation": {
				"codeDepositCost": "1910200",
				"executionCost": "infinite",
				"totalCost": "infinite"
			},
			"external": {
				"EVALUATION_REWARD()": "392",
				"VERIFICATION_FEES()": "436",
				"evaluateStudent(uint256,string)": "infinite",
				"mintDiplomaForStudent(address,string)": "infinite",
				"owner()": "2560",
				"registerCompany((uint256,string,string,string,string,string,string,string,string,string))": "infinite",
				"registerDiplome((uint256,uint256,string,uint256,string,string,string,string,string))": "infinite",
				"registerEstablishment((uint256,string,string,string,string,string,uint256))": "infinite",
				"registerStudent((uint256,string,string,string,string,string,string,string,string,string,string,string,string,string,string,string,string))": "infinite",
				"renounceOwnership()": "infinite",
				"transferOwnership(address)": "infinite",
				"verifyDiploma(uint256)": "infinite",
				"withdrawTokens(uint256)": "infinite"
			}
		},
		"methodIdentifiers": {
			"EVALUATION_REWARD()": "5d61fbfd",
			"VERIFICATION_FEES()": "68323b9d",
			"evaluateStudent(uint256,string)": "96303958",
			"mintDiplomaForStudent(address,string)": "5af4926a",
			"owner()": "8da5cb5b",
			"registerCompany((uint256,string,string,string,string,string,string,string,string,string))": "63a1c895",
			"registerDiplome((uint256,uint256,string,uint256,string,string,string,string,string))": "e7031c3f",
			"registerEstablishment((uint256,string,string,string,string,string,uint256))": "9b873a77",
			"registerStudent((uint256,string,string,string,string,string,string,string,string,string,string,string,string,string,string,string,string))": "a4f266c3",
			"renounceOwnership()": "715018a6",
			"transferOwnership(address)": "f2fde38b",
			"verifyDiploma(uint256)": "42df8ec7",
			"withdrawTokens(uint256)": "315a095d"
		}
	},
	"abi": [
		{
			"inputs": [
				{
					"internalType": "address",
					"name": "_tokenAddress",
					"type": "address"
				},
				{
					"internalType": "address",
					"name": "_nftAddress",
					"type": "address"
				}
			],
			"stateMutability": "nonpayable",
			"type": "constructor"
		},
		{
			"inputs": [
				{
					"internalType": "address",
					"name": "owner",
					"type": "address"
				}
			],
			"name": "OwnableInvalidOwner",
			"type": "error"
		},
		{
			"inputs": [
				{
					"internalType": "address",
					"name": "account",
					"type": "address"
				}
			],
			"name": "OwnableUnauthorizedAccount",
			"type": "error"
		},
		{
			"anonymous": false,
			"inputs": [
				{
					"indexed": true,
					"internalType": "address",
					"name": "company",
					"type": "address"
				}
			],
			"name": "CompanyRegistered",
			"type": "event"
		},
		{
			"anonymous": false,
			"inputs": [
				{
					"indexed": true,
					"internalType": "address",
					"name": "company",
					"type": "address"
				}
			],
			"name": "DiplomaVerified",
			"type": "event"
		},
		{
			"anonymous": false,
			"inputs": [
				{
					"indexed": true,
					"internalType": "uint256",
					"name": "idDiplome",
					"type": "uint256"
				}
			],
			"name": "DiplomeRegistered",
			"type": "event"
		},
		{
			"anonymous": false,
			"inputs": [
				{
					"indexed": true,
					"internalType": "address",
					"name": "establishment",
					"type": "address"
				}
			],
			"name": "EstablishmentRegistered",
			"type": "event"
		},
		{
			"anonymous": false,
			"inputs": [
				{
					"indexed": true,
					"internalType": "address",
					"name": "previousOwner",
					"type": "address"
				},
				{
					"indexed": true,
					"internalType": "address",
					"name": "newOwner",
					"type": "address"
				}
			],
			"name": "OwnershipTransferred",
			"type": "event"
		},
		{
			"anonymous": false,
			"inputs": [
				{
					"indexed": true,
					"internalType": "address",
					"name": "company",
					"type": "address"
				},
				{
					"indexed": true,
					"internalType": "uint256",
					"name": "studentId",
					"type": "uint256"
				},
				{
					"indexed": false,
					"internalType": "string",
					"name": "note",
					"type": "string"
				}
			],
			"name": "StudentEvaluated",
			"type": "event"
		},
		{
			"anonymous": false,
			"inputs": [
				{
					"indexed": true,
					"internalType": "uint256",
					"name": "idEtudiant",
					"type": "uint256"
				}
			],
			"name": "StudentRegistered",
			"type": "event"
		},
		{
			"inputs": [],
			"name": "EVALUATION_REWARD",
			"outputs": [
				{
					"internalType": "uint256",
					"name": "",
					"type": "uint256"
				}
			],
			"stateMutability": "view",
			"type": "function"
		},
		{
			"inputs": [],
			"name": "VERIFICATION_FEES",
			"outputs": [
				{
					"internalType": "uint256",
					"name": "",
					"type": "uint256"
				}
			],
			"stateMutability": "view",
			"type": "function"
		},
		{
			"inputs": [
				{
					"internalType": "uint256",
					"name": "_idEtudiant",
					"type": "uint256"
				},
				{
					"internalType": "string",
					"name": "_note",
					"type": "string"
				}
			],
			"name": "evaluateStudent",
			"outputs": [],
			"stateMutability": "nonpayable",
			"type": "function"
		},
		{
			"inputs": [
				{
					"internalType": "address",
					"name": "_studentWallet",
					"type": "address"
				},
				{
					"internalType": "string",
					"name": "_tokenURI",
					"type": "string"
				}
			],
			"name": "mintDiplomaForStudent",
			"outputs": [],
			"stateMutability": "nonpayable",
			"type": "function"
		},
		{
			"inputs": [],
			"name": "owner",
			"outputs": [
				{
					"internalType": "address",
					"name": "",
					"type": "address"
				}
			],
			"stateMutability": "view",
			"type": "function"
		},
		{
			"inputs": [
				{
					"components": [
						{
							"internalType": "uint256",
							"name": "ID_Entreprise",
							"type": "uint256"
						},
						{
							"internalType": "string",
							"name": "Nom",
							"type": "string"
						},
						{
							"internalType": "string",
							"name": "Secteur",
							"type": "string"
						},
						{
							"internalType": "string",
							"name": "Date_Creation",
							"type": "string"
						},
						{
							"internalType": "string",
							"name": "Classification_Taille",
							"type": "string"
						},
						{
							"internalType": "string",
							"name": "Pays",
							"type": "string"
						},
						{
							"internalType": "string",
							"name": "Adresse",
							"type": "string"
						},
						{
							"internalType": "string",
							"name": "Courriel",
							"type": "string"
						},
						{
							"internalType": "string",
							"name": "Telephone",
							"type": "string"
						},
						{
							"internalType": "string",
							"name": "Site_Web",
							"type": "string"
						}
					],
					"internalType": "struct DiplomeData.Entreprise",
					"name": "_entreprise",
					"type": "tuple"
				}
			],
			"name": "registerCompany",
			"outputs": [],
			"stateMutability": "nonpayable",
			"type": "function"
		},
		{
			"inputs": [
				{
					"components": [
						{
							"internalType": "uint256",
							"name": "ID_Diplome",
							"type": "uint256"
						},
						{
							"internalType": "uint256",
							"name": "ID_Titulaire",
							"type": "uint256"
						},
						{
							"internalType": "string",
							"name": "Nom_Etablissement",
							"type": "string"
						},
						{
							"internalType": "uint256",
							"name": "ID_EES",
							"type": "uint256"
						},
						{
							"internalType": "string",
							"name": "Pays",
							"type": "string"
						},
						{
							"internalType": "string",
							"name": "Type_Diplome",
							"type": "string"
						},
						{
							"internalType": "string",
							"name": "Specialite",
							"type": "string"
						},
						{
							"internalType": "string",
							"name": "Mention",
							"type": "string"
						},
						{
							"internalType": "string",
							"name": "Date_dobtention",
							"type": "string"
						}
					],
					"internalType": "struct DiplomeData.Diplome",
					"name": "_diplome",
					"type": "tuple"
				}
			],
			"name": "registerDiplome",
			"outputs": [],
			"stateMutability": "nonpayable",
			"type": "function"
		},
		{
			"inputs": [
				{
					"components": [
						{
							"internalType": "uint256",
							"name": "ID_ELS",
							"type": "uint256"
						},
						{
							"internalType": "string",
							"name": "Nom_Etablissement",
							"type": "string"
						},
						{
							"internalType": "string",
							"name": "Type",
							"type": "string"
						},
						{
							"internalType": "string",
							"name": "Pays",
							"type": "string"
						},
						{
							"internalType": "string",
							"name": "Adresse",
							"type": "string"
						},
						{
							"internalType": "string",
							"name": "Site_Web",
							"type": "string"
						},
						{
							"internalType": "uint256",
							"name": "ID_Agent",
							"type": "uint256"
						}
					],
					"internalType": "struct DiplomeData.EtablissementEnseignementSuperieur",
					"name": "_etab",
					"type": "tuple"
				}
			],
			"name": "registerEstablishment",
			"outputs": [],
			"stateMutability": "nonpayable",
			"type": "function"
		},
		{
			"inputs": [
				{
					"components": [
						{
							"internalType": "uint256",
							"name": "ID_Etudiant",
							"type": "uint256"
						},
						{
							"internalType": "string",
							"name": "Nom",
							"type": "string"
						},
						{
							"internalType": "string",
							"name": "Prenom",
							"type": "string"
						},
						{
							"internalType": "string",
							"name": "Date_de_naissance",
							"type": "string"
						},
						{
							"internalType": "string",
							"name": "Sexe",
							"type": "string"
						},
						{
							"internalType": "string",
							"name": "Nationalite",
							"type": "string"
						},
						{
							"internalType": "string",
							"name": "Statut_civil",
							"type": "string"
						},
						{
							"internalType": "string",
							"name": "Adresse",
							"type": "string"
						},
						{
							"internalType": "string",
							"name": "Courriel",
							"type": "string"
						},
						{
							"internalType": "string",
							"name": "Telephone",
							"type": "string"
						},
						{
							"internalType": "string",
							"name": "Section",
							"type": "string"
						},
						{
							"internalType": "string",
							"name": "Sujet_PFE",
							"type": "string"
						},
						{
							"internalType": "string",
							"name": "Entreprise_Stage_PFE",
							"type": "string"
						},
						{
							"internalType": "string",
							"name": "NometPrenom_MaitreDuStage",
							"type": "string"
						},
						{
							"internalType": "string",
							"name": "Date_debut_stage",
							"type": "string"
						},
						{
							"internalType": "string",
							"name": "Date_fin_stage",
							"type": "string"
						},
						{
							"internalType": "string",
							"name": "Evaluation",
							"type": "string"
						}
					],
					"internalType": "struct DiplomeData.Etudiant",
					"name": "_student",
					"type": "tuple"
				}
			],
			"name": "registerStudent",
			"outputs": [],
			"stateMutability": "nonpayable",
			"type": "function"
		},
		{
			"inputs": [],
			"name": "renounceOwnership",
			"outputs": [],
			"stateMutability": "nonpayable",
			"type": "function"
		},
		{
			"inputs": [
				{
					"internalType": "address",
					"name": "newOwner",
					"type": "address"
				}
			],
			"name": "transferOwnership",
			"outputs": [],
			"stateMutability": "nonpayable",
			"type": "function"
		},
		{
			"inputs": [
				{
					"internalType": "uint256",
					"name": "_tokenId",
					"type": "uint256"
				}
			],
			"name": "verifyDiploma",
			"outputs": [],
			"stateMutability": "nonpayable",
			"type": "function"
		},
		{
			"inputs": [
				{
					"internalType": "uint256",
					"name": "_amount",
					"type": "uint256"
				}
			],
			"name": "withdrawTokens",
			"outputs": [],
			"stateMutability": "nonpayable",
			"type": "function"
		}
	]
}