{
	"data": {
		"bytecode": {
			"linkReferences": {},
			"object": "60806040523461031957604080519081016001600160401b0381118282101761022f576040908152600a825269111a5c1b1bdb5953919560b21b602083015280519081016001600160401b0381118282101761022f57604052600481526344504c4d60e01b602082015281516001600160401b03811161022f575f54600181811c9116801561030f575b602082101461021157601f81116102ad575b50602092601f821160011461024e57928192935f92610243575b50508160011b915f199060031b1c1916175f555b80516001600160401b03811161022f57600154600181811c91168015610225575b602082101461021157601f81116101ae575b50602091601f821160011461014e579181925f92610143575b50508160011b915f199060031b1c1916176001555b6101333361031d565b5060405161143690816103a78239f35b015190505f80610115565b601f1982169260015f52805f20915f5b8581106101965750836001951061017e575b505050811b0160015561012a565b01515f1960f88460031b161c191690555f8080610170565b9192602060018192868501518155019401920161015e565b60015f527fb10e2d527612073b26eecdfd717e6a320cf44b4afac2b0732d9fcbe2b7fa0cf6601f830160051c81019160208410610207575b601f0160051c01905b8181106101fc57506100fc565b5f81556001016101ef565b90915081906101e6565b634e487b7160e01b5f52602260045260245ffd5b90607f16906100ea565b634e487b7160e01b5f52604160045260245ffd5b015190505f806100b5565b601f198216935f8052805f20915f5b868110610295575083600195961061027d575b505050811b015f556100c9565b01515f1960f88460031b161c191690555f8080610270565b9192602060018192868501518155019401920161025d565b5f80527f290decd9548b62a8d60345a988386fc84ba6bc95484008f6362f93160ef3e563601f830160051c81019160208410610305575b601f0160051c01905b8181106102fa575061009b565b5f81556001016102ed565b90915081906102e4565b90607f1690610089565b5f80fd5b6001600160a01b0381165f9081525f805160206117dd833981519152602052604090205460ff166103a1576001600160a01b03165f8181525f805160206117dd83398151915260205260408120805460ff191660011790553391907f2f8788117e7eff1d82e926ec794901d17c78024a50270940304540a733656f0d8180a4600190565b505f9056fe6080806040526004361015610012575f80fd5b5f3560e01c90816301ffc9a714610c665750806306fdde0314610bc4578063081812fc14610b88578063095ea7b314610a9e57806323b872dd14610a87578063248a9ca314610a545780632f2ff15d14610a1657806336568abe146109d25780633dd1eb611461096357806342842e0e146109345780636352211e1461090457806370a08231146108b357806391d148541461086a57806395d89b41146107a0578063a217fddf14610786578063a22cb465146106eb578063b76e80081461028b578063b88d4fde1461021f578063c87b56dd146101e8578063d5391393146101ae578063d547741f146101695763e985e9c51461010e575f80fd5b3461016557604036600319011261016557610127610d29565b61012f610d3f565b9060018060a01b03165f52600560205260405f209060018060a01b03165f52602052602060ff60405f2054166040519015158152f35b5f80fd5b34610165576040366003190112610165576101ac600435610188610d3f565b906101a76101a2825f526007602052600160405f20015490565b6110c1565b611258565b005b34610165575f3660031901126101655760206040517f9f2df0fed2c77648de5860a4cc508cd0818c85b8b8a1ab4ceeef8d981c8956a68152f35b346101655760203660031901126101655761021b610207600435610fc8565b604051918291602083526020830190610d05565b0390f35b3461016557608036600319011261016557610238610d29565b610240610d3f565b906044356064359267ffffffffffffffff84116101655736602385011215610165576102796101ac943690602481600401359101610dcd565b92610285838383610e3b565b336112dc565b34610165576040366003190112610165576102a4610d29565b60243567ffffffffffffffff81116101655736602382011215610165576102d5903690602481600401359101610dcd565b335f9081527fa4bfd7afe708e2e87e7f0e2ad9b4d545417e0f795f57b5c5ab5d799c565a04f4602052604090205490919060ff16156106b4576008545f1981146106a057600101806008556020916040516103308482610d8f565b5f81526001600160a01b03821691821561068d575f8481526002865260409020546001600160a01b0316801515908161065c575b845f526003875260405f2060018154019055855f526002875260405f20856bffffffffffffffffffffffff60a01b8254161790558585827fddf252ad1be2c89b69c2b068fc378daa952ba7f163c4a11628f55a4df523b3ef5f80a450610649573b610534575b5050805f526006825260405f20835167ffffffffffffffff8111610520576103f28254610e03565b601f81116104dd575b508394601f821160011461045b577ff8e1a15aba9398e019f0b49df1a4fde98ee17ae345cb5f6b5e2c27f5033e8ce7955f9183610450575b50508160011b915f199060031b1c19161790555b604051908152a1005b015190508680610433565b601f19821695835f52855f20915f5b8881106104c65750908392916001947ff8e1a15aba9398e019f0b49df1a4fde98ee17ae345cb5f6b5e2c27f5033e8ce799106104ae575b505050811b019055610447565b01515f1960f88460031b161c191690558680806104a1565b91928760018192868501518155019401920161046a565b825f52845f20601f830160051c810191868410610516575b601f0160051c01905b81811061050b57506103fb565b5f81556001016104fe565b90915081906104f5565b634e487b7160e01b5f52604160045260245ffd5b83610571916040969493965180938192630a85bd0160e11b83523360048401525f6024840152866044840152608060648401526084830190610d05565b03815f895af15f9181610609575b506105d4575050503d5f146105cd573d61059881610db1565b906105a66040519283610d8f565b81523d5f8383013e5b805191826105ca5783633250574960e11b5f5260045260245ffd5b01fd5b60606105af565b919390916001600160e01b03191663757a42ff60e11b016105f7575083806103ca565b633250574960e11b5f5260045260245ffd5b9091508481813d8311610642575b6106218183610d8f565b8101031261016557516001600160e01b03198116810361016557908661057f565b503d610617565b6339e3563760e11b5f525f60045260245ffd5b5f8681526004602052604080822080546001600160a01b031916905582825260038952902080545f19019055610364565b633250574960e11b5f525f60045260245ffd5b634e487b7160e01b5f52601160045260245ffd5b63e2517d3f60e01b5f52336004527f9f2df0fed2c77648de5860a4cc508cd0818c85b8b8a1ab4ceeef8d981c8956a660245260445ffd5b3461016557604036600319011261016557610704610d29565b60243590811515809203610165576001600160a01b031690811561077357335f52600560205260405f20825f5260205260405f2060ff1981541660ff83161790556040519081527f17307eab39ab6107e8899845ad3d59bd9653f200f220920489ca2b5937696c3160203392a3005b50630b61174360e31b5f5260045260245ffd5b34610165575f3660031901126101655760206040515f8152f35b34610165575f366003190112610165576040515f6001546107c081610e03565b808452906001811690811561084657506001146107e8575b61021b8361020781850382610d8f565b91905060015f527fb10e2d527612073b26eecdfd717e6a320cf44b4afac2b0732d9fcbe2b7fa0cf6915f905b80821061082c575090915081016020016102076107d8565b919260018160209254838588010152019101909291610814565b60ff191660208086019190915291151560051b8401909101915061020790506107d8565b3461016557604036600319011261016557610883610d3f565b6004355f52600760205260405f209060018060a01b03165f52602052602060ff60405f2054166040519015158152f35b34610165576020366003190112610165576001600160a01b036108d4610d29565b1680156108f1575f526003602052602060405f2054604051908152f35b6322718ad960e21b5f525f60045260245ffd5b3461016557602036600319011261016557602061092260043561108d565b6040516001600160a01b039091168152f35b34610165576101ac61094536610d55565b9060405192610955602085610d8f565b5f8452610285838383610e3b565b346101655760203660031901126101655761097c610d29565b335f9081527f6d5257204ebe7d88fd91ae87941cb2dd9d8062b64ae5a2bd2d28ec40b9fbf6df602052604090205460ff16156109bb576101ac906110fb565b63e2517d3f60e01b5f52336004525f60245260445ffd5b34610165576040366003190112610165576109eb610d3f565b336001600160a01b03821603610a07576101ac90600435611258565b63334bd91960e11b5f5260045ffd5b34610165576040366003190112610165576101ac600435610a35610d3f565b90610a4f6101a2825f526007602052600160405f20015490565b6111cc565b34610165576020366003190112610165576020610a7f6004355f526007602052600160405f20015490565b604051908152f35b34610165576101ac610a9836610d55565b91610e3b565b3461016557604036600319011261016557610ab7610d29565b602435610ac38161108d565b33151580610b75575b80610b48575b610b355781906001600160a01b0384811691167f8c5be1e5ebec7d5bd14f71427d1e84f3dd0314c0f7b2291e5b200ac8c7c3b9255f80a45f90815260046020526040902080546001600160a01b0319166001600160a01b03909216919091179055005b63a9fbf51f60e01b5f523360045260245ffd5b506001600160a01b0381165f90815260056020908152604080832033845290915290205460ff1615610ad2565b506001600160a01b038116331415610acc565b3461016557602036600319011261016557600435610ba58161108d565b505f526004602052602060018060a01b0360405f205416604051908152f35b34610165575f366003190112610165576040515f8054610be381610e03565b80845290600181169081156108465750600114610c0a5761021b8361020781850382610d8f565b5f8080527f290decd9548b62a8d60345a988386fc84ba6bc95484008f6362f93160ef3e563939250905b808210610c4c575090915081016020016102076107d8565b919260018160209254838588010152019101909291610c34565b34610165576020366003190112610165576004359063ffffffff60e01b821680920361016557602091637965db0b60e01b8114908115610ca8575b5015158152f35b632483248360e11b811491508115610cc2575b5083610ca1565b6380ac58cd60e01b811491508115610cf4575b8115610ce3575b5083610cbb565b6301ffc9a760e01b14905083610cdc565b635b5e139f60e01b81149150610cd5565b805180835260209291819084018484015e5f828201840152601f01601f1916010190565b600435906001600160a01b038216820361016557565b602435906001600160a01b038216820361016557565b6060906003190112610165576004356001600160a01b038116810361016557906024356001600160a01b0381168103610165579060443590565b90601f8019910116810190811067ffffffffffffffff82111761052057604052565b67ffffffffffffffff811161052057601f01601f191660200190565b929192610dd982610db1565b91610de76040519384610d8f565b829481845281830111610165578281602093845f960137010152565b90600182811c92168015610e31575b6020831014610e1d57565b634e487b7160e01b5f52602260045260245ffd5b91607f1691610e12565b6001600160a01b039091169190821561068d575f828152600260205260409020546001600160a01b031692829033151580610f33575b5084610f00575b805f52600360205260405f2060018154019055815f52600260205260405f20816bffffffffffffffffffffffff60a01b825416179055847fddf252ad1be2c89b69c2b068fc378daa952ba7f163c4a11628f55a4df523b3ef5f80a46001600160a01b0316808303610ee857505050565b6364283d7b60e01b5f5260045260245260445260645ffd5b5f82815260046020526040902080546001600160a01b0319169055845f52600360205260405f205f198154019055610e78565b90915080610f77575b15610f495782905f610e71565b8284610f6157637e27328960e01b5f5260045260245ffd5b63177e802f60e01b5f523360045260245260445ffd5b503384148015610fa6575b80610f3c57505f838152600460205260409020546001600160a01b03163314610f3c565b505f84815260056020908152604080832033845290915290205460ff16610f82565b610fd18161108d565b505f52600660205260405f2060405190815f825492610fef84610e03565b808452936001811690811561106b5750600114611027575b5061101492500382610d8f565b5f604051611023602082610d8f565b5290565b90505f9291925260205f20905f915b81831061104f575050906020611014928201015f611007565b6020919350806001915483858801015201910190918392611036565b90506020925061101494915060ff191682840152151560051b8201015f611007565b5f818152600260205260409020546001600160a01b03169081156110af575090565b637e27328960e01b5f5260045260245ffd5b5f81815260076020908152604080832033845290915290205460ff16156110e55750565b63e2517d3f60e01b5f523360045260245260445ffd5b6001600160a01b0381165f9081527fa4bfd7afe708e2e87e7f0e2ad9b4d545417e0f795f57b5c5ab5d799c565a04f4602052604090205460ff166111c7576001600160a01b03165f8181527fa4bfd7afe708e2e87e7f0e2ad9b4d545417e0f795f57b5c5ab5d799c565a04f460205260408120805460ff191660011790553391907f9f2df0fed2c77648de5860a4cc508cd0818c85b8b8a1ab4ceeef8d981c8956a6907f2f8788117e7eff1d82e926ec794901d17c78024a50270940304540a733656f0d9080a4600190565b505f90565b5f8181526007602090815260408083206001600160a01b038616845290915290205460ff16611252575f8181526007602090815260408083206001600160a01b0395909516808452949091528120805460ff19166001179055339291907f2f8788117e7eff1d82e926ec794901d17c78024a50270940304540a733656f0d9080a4600190565b50505f90565b5f8181526007602090815260408083206001600160a01b038616845290915290205460ff1615611252575f8181526007602090815260408083206001600160a01b0395909516808452949091528120805460ff19169055339291907ff6391f5c32d9c69d2a47ea670b442974b53935d1edc7fd64eb21e047a839171b9080a4600190565b823b6112ea575b5050505050565b604051630a85bd0160e11b81526001600160a01b039182166004820152918116602483015260448201939093526080606482015291169160209082908190611336906084830190610d05565b03815f865af15f91816113bb575b5061139957503d15611392573d61135a81610db1565b906113686040519283610d8f565b81523d5f602083013e5b8051908161138d5782633250574960e11b5f5260045260245ffd5b602001fd5b6060611372565b6001600160e01b03191663757a42ff60e11b016105f757505f808080806112e3565b9091506020813d6020116113f8575b816113d760209383610d8f565b8101031261016557516001600160e01b03198116810361016557905f611344565b3d91506113ca56fea2646970667358221220396a05993613c8d5c0959c6105ce48961e4c969d3cfb5382f2793a541227f80364736f6c634300081a00336d5257204ebe7d88fd91ae87941cb2dd9d8062b64ae5a2bd2d28ec40b9fbf6df",
			"opcodes": "PUSH1 0x80 PUSH1 0x40 MSTORE CALLVALUE PUSH2 0x319 JUMPI PUSH1 0x40 DUP1 MLOAD SWAP1 DUP2 ADD PUSH1 0x1 PUSH1 0x1 PUSH1 0x40 SHL SUB DUP2 GT DUP3 DUP3 LT OR PUSH2 0x22F JUMPI PUSH1 0x40 SWAP1 DUP2 MSTORE PUSH1 0xA DUP3 MSTORE PUSH10 0x111A5C1B1BDB59539195 PUSH1 0xB2 SHL PUSH1 0x20 DUP4 ADD MSTORE DUP1 MLOAD SWAP1 DUP2 ADD PUSH1 0x1 PUSH1 0x1 PUSH1 0x40 SHL SUB DUP2 GT DUP3 DUP3 LT OR PUSH2 0x22F JUMPI PUSH1 0x40 MSTORE PUSH1 0x4 DUP2 MSTORE PUSH4 0x44504C4D PUSH1 0xE0 SHL PUSH1 0x20 DUP3 ADD MSTORE DUP2 MLOAD PUSH1 0x1 PUSH1 0x1 PUSH1 0x40 SHL SUB DUP2 GT PUSH2 0x22F JUMPI PUSH0 SLOAD PUSH1 0x1 DUP2 DUP2 SHR SWAP2 AND DUP1 ISZERO PUSH2 0x30F JUMPI JUMPDEST PUSH1 0x20 DUP3 LT EQ PUSH2 0x211 JUMPI PUSH1 0x1F DUP2 GT PUSH2 0x2AD JUMPI JUMPDEST POP PUSH1 0x20 SWAP3 PUSH1 0x1F DUP3 GT PUSH1 0x1 EQ PUSH2 0x24E JUMPI SWAP3 DUP2 SWAP3 SWAP4 PUSH0 SWAP3 PUSH2 0x243 JUMPI JUMPDEST POP POP DUP2 PUSH1 0x1 SHL SWAP2 PUSH0 NOT SWAP1 PUSH1 0x3 SHL SHR NOT AND OR PUSH0 SSTORE JUMPDEST DUP1 MLOAD PUSH1 0x1 PUSH1 0x1 PUSH1 0x40 SHL SUB DUP2 GT PUSH2 0x22F JUMPI PUSH1 0x1 SLOAD PUSH1 0x1 DUP2 DUP2 SHR SWAP2 AND DUP1 ISZERO PUSH2 0x225 JUMPI JUMPDEST PUSH1 0x20 DUP3 LT EQ PUSH2 0x211 JUMPI PUSH1 0x1F DUP2 GT PUSH2 0x1AE JUMPI JUMPDEST POP PUSH1 0x20 SWAP2 PUSH1 0x1F DUP3 GT PUSH1 0x1 EQ PUSH2 0x14E JUMPI SWAP2 DUP2 SWAP3 PUSH0 SWAP3 PUSH2 0x143 JUMPI JUMPDEST POP POP DUP2 PUSH1 0x1 SHL SWAP2 PUSH0 NOT SWAP1 PUSH1 0x3 SHL SHR NOT AND OR PUSH1 0x1 SSTORE JUMPDEST PUSH2 0x133 CALLER PUSH2 0x31D JUMP JUMPDEST POP PUSH1 0x40 MLOAD PUSH2 0x1436 SWAP1 DUP2 PUSH2 0x3A7 DUP3 CODECOPY RETURN JUMPDEST ADD MLOAD SWAP1 POP PUSH0 DUP1 PUSH2 0x115 JUMP JUMPDEST PUSH1 0x1F NOT DUP3 AND SWAP3 PUSH1 0x1 PUSH0 MSTORE DUP1 PUSH0 KECCAK256 SWAP2 PUSH0 JUMPDEST DUP6 DUP2 LT PUSH2 0x196 JUMPI POP DUP4 PUSH1 0x1 SWAP6 LT PUSH2 0x17E JUMPI JUMPDEST POP POP POP DUP2 SHL ADD PUSH1 0x1 SSTORE PUSH2 0x12A JUMP JUMPDEST ADD MLOAD PUSH0 NOT PUSH1 0xF8 DUP5 PUSH1 0x3 SHL AND SHR NOT AND SWAP1 SSTORE PUSH0 DUP1 DUP1 PUSH2 0x170 JUMP JUMPDEST SWAP2 SWAP3 PUSH1 0x20 PUSH1 0x1 DUP2 SWAP3 DUP7 DUP6 ADD MLOAD DUP2 SSTORE ADD SWAP5 ADD SWAP3 ADD PUSH2 0x15E JUMP JUMPDEST PUSH1 0x1 PUSH0 MSTORE PUSH32 0xB10E2D527612073B26EECDFD717E6A320CF44B4AFAC2B0732D9FCBE2B7FA0CF6 PUSH1 0x1F DUP4 ADD PUSH1 0x5 SHR DUP2 ADD SWAP2 PUSH1 0x20 DUP5 LT PUSH2 0x207 JUMPI JUMPDEST PUSH1 0x1F ADD PUSH1 0x5 SHR ADD SWAP1 JUMPDEST DUP2 DUP2 LT PUSH2 0x1FC JUMPI POP PUSH2 0xFC JUMP JUMPDEST PUSH0 DUP2 SSTORE PUSH1 0x1 ADD PUSH2 0x1EF JUMP JUMPDEST SWAP1 SWAP2 POP DUP2 SWAP1 PUSH2 0x1E6 JUMP JUMPDEST PUSH4 0x4E487B71 PUSH1 0xE0 SHL PUSH0 MSTORE PUSH1 0x22 PUSH1 0x4 MSTORE PUSH1 0x24 PUSH0 REVERT JUMPDEST SWAP1 PUSH1 0x7F AND SWAP1 PUSH2 0xEA JUMP JUMPDEST PUSH4 0x4E487B71 PUSH1 0xE0 SHL PUSH0 MSTORE PUSH1 0x41 PUSH1 0x4 MSTORE PUSH1 0x24 PUSH0 REVERT JUMPDEST ADD MLOAD SWAP1 POP PUSH0 DUP1 PUSH2 0xB5 JUMP JUMPDEST PUSH1 0x1F NOT DUP3 AND SWAP4 PUSH0 DUP1 MSTORE DUP1 PUSH0 KECCAK256 SWAP2 PUSH0 JUMPDEST DUP7 DUP2 LT PUSH2 0x295 JUMPI POP DUP4 PUSH1 0x1 SWAP6 SWAP7 LT PUSH2 0x27D JUMPI JUMPDEST POP POP POP DUP2 SHL ADD PUSH0 SSTORE PUSH2 0xC9 JUMP JUMPDEST ADD MLOAD PUSH0 NOT PUSH1 0xF8 DUP5 PUSH1 0x3 SHL AND SHR NOT AND SWAP1 SSTORE PUSH0 DUP1 DUP1 PUSH2 0x270 JUMP JUMPDEST SWAP2 SWAP3 PUSH1 0x20 PUSH1 0x1 DUP2 SWAP3 DUP7 DUP6 ADD MLOAD DUP2 SSTORE ADD SWAP5 ADD SWAP3 ADD PUSH2 0x25D JUMP JUMPDEST PUSH0 DUP1 MSTORE PUSH32 0x290DECD9548B62A8D60345A988386FC84BA6BC95484008F6362F93160EF3E563 PUSH1 0x1F DUP4 ADD PUSH1 0x5 SHR DUP2 ADD SWAP2 PUSH1 0x20 DUP5 LT PUSH2 0x305 JUMPI JUMPDEST PUSH1 0x1F ADD PUSH1 0x5 SHR ADD SWAP1 JUMPDEST DUP2 DUP2 LT PUSH2 0x2FA JUMPI POP PUSH2 0x9B JUMP JUMPDEST PUSH0 DUP2 SSTORE PUSH1 0x1 ADD PUSH2 0x2ED JUMP JUMPDEST SWAP1 SWAP2 POP DUP2 SWAP1 PUSH2 0x2E4 JUMP JUMPDEST SWAP1 PUSH1 0x7F AND SWAP1 PUSH2 0x89 JUMP JUMPDEST PUSH0 DUP1 REVERT JUMPDEST PUSH1 0x1 PUSH1 0x1 PUSH1 0xA0 SHL SUB DUP2 AND PUSH0 SWAP1 DUP2 MSTORE PUSH0 DUP1 MLOAD PUSH1 0x20 PUSH2 0x17DD DUP4 CODECOPY DUP2 MLOAD SWAP2 MSTORE PUSH1 0x20 MSTORE PUSH1 0x40 SWAP1 KECCAK256 SLOAD PUSH1 0xFF AND PUSH2 0x3A1 JUMPI PUSH1 0x1 PUSH1 0x1 PUSH1 0xA0 SHL SUB AND PUSH0 DUP2 DUP2 MSTORE PUSH0 DUP1 MLOAD PUSH1 0x20 PUSH2 0x17DD DUP4 CODECOPY DUP2 MLOAD SWAP2 MSTORE PUSH1 0x20 MSTORE PUSH1 0x40 DUP2 KECCAK256 DUP1 SLOAD PUSH1 0xFF NOT AND PUSH1 0x1 OR SWAP1 SSTORE CALLER SWAP2 SWAP1 PUSH32 0x2F8788117E7EFF1D82E926EC794901D17C78024A50270940304540A733656F0D DUP2 DUP1 LOG4 PUSH1 0x1 SWAP1 JUMP JUMPDEST POP PUSH0 SWAP1 JUMP INVALID PUSH1 0x80 DUP1 PUSH1 0x40 MSTORE PUSH1 0x4 CALLDATASIZE LT ISZERO PUSH2 0x12 JUMPI PUSH0 DUP1 REVERT JUMPDEST PUSH0 CALLDATALOAD PUSH1 0xE0 SHR SWAP1 DUP2 PUSH4 0x1FFC9A7 EQ PUSH2 0xC66 JUMPI POP DUP1 PUSH4 0x6FDDE03 EQ PUSH2 0xBC4 JUMPI DUP1 PUSH4 0x81812FC EQ PUSH2 0xB88 JUMPI DUP1 PUSH4 0x95EA7B3 EQ PUSH2 0xA9E JUMPI DUP1 PUSH4 0x23B872DD EQ PUSH2 0xA87 JUMPI DUP1 PUSH4 0x248A9CA3 EQ PUSH2 0xA54 JUMPI DUP1 PUSH4 0x2F2FF15D EQ PUSH2 0xA16 JUMPI DUP1 PUSH4 0x36568ABE EQ PUSH2 0x9D2 JUMPI DUP1 PUSH4 0x3DD1EB61 EQ PUSH2 0x963 JUMPI DUP1 PUSH4 0x42842E0E EQ PUSH2 0x934 JUMPI DUP1 PUSH4 0x6352211E EQ PUSH2 0x904 JUMPI DUP1 PUSH4 0x70A08231 EQ PUSH2 0x8B3 JUMPI DUP1 PUSH4 0x91D14854 EQ PUSH2 0x86A JUMPI DUP1 PUSH4 0x95D89B41 EQ PUSH2 0x7A0 JUMPI DUP1 PUSH4 0xA217FDDF EQ PUSH2 0x786 JUMPI DUP1 PUSH4 0xA22CB465 EQ PUSH2 0x6EB JUMPI DUP1 PUSH4 0xB76E8008 EQ PUSH2 0x28B JUMPI DUP1 PUSH4 0xB88D4FDE EQ PUSH2 0x21F JUMPI DUP1 PUSH4 0xC87B56DD EQ PUSH2 0x1E8 JUMPI DUP1 PUSH4 0xD5391393 EQ PUSH2 0x1AE JUMPI DUP1 PUSH4 0xD547741F EQ PUSH2 0x169 JUMPI PUSH4 0xE985E9C5 EQ PUSH2 0x10E JUMPI PUSH0 DUP1 REVERT JUMPDEST CALLVALUE PUSH2 0x165 JUMPI PUSH1 0x40 CALLDATASIZE PUSH1 0x3 NOT ADD SLT PUSH2 0x165 JUMPI PUSH2 0x127 PUSH2 0xD29 JUMP JUMPDEST PUSH2 0x12F PUSH2 0xD3F JUMP JUMPDEST SWAP1 PUSH1 0x1 DUP1 PUSH1 0xA0 SHL SUB AND PUSH0 MSTORE PUSH1 0x5 PUSH1 0x20 MSTORE PUSH1 0x40 PUSH0 KECCAK256 SWAP1 PUSH1 0x1 DUP1 PUSH1 0xA0 SHL SUB AND PUSH0 MSTORE PUSH1 0x20 MSTORE PUSH1 0x20 PUSH1 0xFF PUSH1 0x40 PUSH0 KECCAK256 SLOAD AND PUSH1 0x40 MLOAD SWAP1 ISZERO ISZERO DUP2 MSTORE RETURN JUMPDEST PUSH0 DUP1 REVERT JUMPDEST CALLVALUE PUSH2 0x165 JUMPI PUSH1 0x40 CALLDATASIZE PUSH1 0x3 NOT ADD SLT PUSH2 0x165 JUMPI PUSH2 0x1AC PUSH1 0x4 CALLDATALOAD PUSH2 0x188 PUSH2 0xD3F JUMP JUMPDEST SWAP1 PUSH2 0x1A7 PUSH2 0x1A2 DUP3 PUSH0 MSTORE PUSH1 0x7 PUSH1 0x20 MSTORE PUSH1 0x1 PUSH1 0x40 PUSH0 KECCAK256 ADD SLOAD SWAP1 JUMP JUMPDEST PUSH2 0x10C1 JUMP JUMPDEST PUSH2 0x1258 JUMP JUMPDEST STOP JUMPDEST CALLVALUE PUSH2 0x165 JUMPI PUSH0 CALLDATASIZE PUSH1 0x3 NOT ADD SLT PUSH2 0x165 JUMPI PUSH1 0x20 PUSH1 0x40 MLOAD PUSH32 0x9F2DF0FED2C77648DE5860A4CC508CD0818C85B8B8A1AB4CEEEF8D981C8956A6 DUP2 MSTORE RETURN JUMPDEST CALLVALUE PUSH2 0x165 JUMPI PUSH1 0x20 CALLDATASIZE PUSH1 0x3 NOT ADD SLT PUSH2 0x165 JUMPI PUSH2 0x21B PUSH2 0x207 PUSH1 0x4 CALLDATALOAD PUSH2 0xFC8 JUMP JUMPDEST PUSH1 0x40 MLOAD SWAP2 DUP3 SWAP2 PUSH1 0x20 DUP4 MSTORE PUSH1 0x20 DUP4 ADD SWAP1 PUSH2 0xD05 JUMP JUMPDEST SUB SWAP1 RETURN JUMPDEST CALLVALUE PUSH2 0x165 JUMPI PUSH1 0x80 CALLDATASIZE PUSH1 0x3 NOT ADD SLT PUSH2 0x165 JUMPI PUSH2 0x238 PUSH2 0xD29 JUMP JUMPDEST PUSH2 0x240 PUSH2 0xD3F JUMP JUMPDEST SWAP1 PUSH1 0x44 CALLDATALOAD PUSH1 0x64 CALLDATALOAD SWAP3 PUSH8 0xFFFFFFFFFFFFFFFF DUP5 GT PUSH2 0x165 JUMPI CALLDATASIZE PUSH1 0x23 DUP6 ADD SLT ISZERO PUSH2 0x165 JUMPI PUSH2 0x279 PUSH2 0x1AC SWAP5 CALLDATASIZE SWAP1 PUSH1 0x24 DUP2 PUSH1 0x4 ADD CALLDATALOAD SWAP2 ADD PUSH2 0xDCD JUMP JUMPDEST SWAP3 PUSH2 0x285 DUP4 DUP4 DUP4 PUSH2 0xE3B JUMP JUMPDEST CALLER PUSH2 0x12DC JUMP JUMPDEST CALLVALUE PUSH2 0x165 JUMPI PUSH1 0x40 CALLDATASIZE PUSH1 0x3 NOT ADD SLT PUSH2 0x165 JUMPI PUSH2 0x2A4 PUSH2 0xD29 JUMP JUMPDEST PUSH1 0x24 CALLDATALOAD PUSH8 0xFFFFFFFFFFFFFFFF DUP2 GT PUSH2 0x165 JUMPI CALLDATASIZE PUSH1 0x23 DUP3 ADD SLT ISZERO PUSH2 0x165 JUMPI PUSH2 0x2D5 SWAP1 CALLDATASIZE SWAP1 PUSH1 0x24 DUP2 PUSH1 0x4 ADD CALLDATALOAD SWAP2 ADD PUSH2 0xDCD JUMP JUMPDEST CALLER PUSH0 SWAP1 DUP2 MSTORE PUSH32 0xA4BFD7AFE708E2E87E7F0E2AD9B4D545417E0F795F57B5C5AB5D799C565A04F4 PUSH1 0x20 MSTORE PUSH1 0x40 SWAP1 KECCAK256 SLOAD SWAP1 SWAP2 SWAP1 PUSH1 0xFF AND ISZERO PUSH2 0x6B4 JUMPI PUSH1 0x8 SLOAD PUSH0 NOT DUP2 EQ PUSH2 0x6A0 JUMPI PUSH1 0x1 ADD DUP1 PUSH1 0x8 SSTORE PUSH1 0x20 SWAP2 PUSH1 0x40 MLOAD PUSH2 0x330 DUP5 DUP3 PUSH2 0xD8F JUMP JUMPDEST PUSH0 DUP2 MSTORE PUSH1 0x1 PUSH1 0x1 PUSH1 0xA0 SHL SUB DUP3 AND SWAP2 DUP3 ISZERO PUSH2 0x68D JUMPI PUSH0 DUP5 DUP2 MSTORE PUSH1 0x2 DUP7 MSTORE PUSH1 0x40 SWAP1 KECCAK256 SLOAD PUSH1 0x1 PUSH1 0x1 PUSH1 0xA0 SHL SUB AND DUP1 ISZERO ISZERO SWAP1 DUP2 PUSH2 0x65C JUMPI JUMPDEST DUP5 PUSH0 MSTORE PUSH1 0x3 DUP8 MSTORE PUSH1 0x40 PUSH0 KECCAK256 PUSH1 0x1 DUP2 SLOAD ADD SWAP1 SSTORE DUP6 PUSH0 MSTORE PUSH1 0x2 DUP8 MSTORE PUSH1 0x40 PUSH0 KECCAK256 DUP6 PUSH12 0xFFFFFFFFFFFFFFFFFFFFFFFF PUSH1 0xA0 SHL DUP3 SLOAD AND OR SWAP1 SSTORE DUP6 DUP6 DUP3 PUSH32 0xDDF252AD1BE2C89B69C2B068FC378DAA952BA7F163C4A11628F55A4DF523B3EF PUSH0 DUP1 LOG4 POP PUSH2 0x649 JUMPI EXTCODESIZE PUSH2 0x534 JUMPI JUMPDEST POP POP DUP1 PUSH0 MSTORE PUSH1 0x6 DUP3 MSTORE PUSH1 0x40 PUSH0 KECCAK256 DUP4 MLOAD PUSH8 0xFFFFFFFFFFFFFFFF DUP2 GT PUSH2 0x520 JUMPI PUSH2 0x3F2 DUP3 SLOAD PUSH2 0xE03 JUMP JUMPDEST PUSH1 0x1F DUP2 GT PUSH2 0x4DD JUMPI JUMPDEST POP DUP4 SWAP5 PUSH1 0x1F DUP3 GT PUSH1 0x1 EQ PUSH2 0x45B JUMPI PUSH32 0xF8E1A15ABA9398E019F0B49DF1A4FDE98EE17AE345CB5F6B5E2C27F5033E8CE7 SWAP6 PUSH0 SWAP2 DUP4 PUSH2 0x450 JUMPI JUMPDEST POP POP DUP2 PUSH1 0x1 SHL SWAP2 PUSH0 NOT SWAP1 PUSH1 0x3 SHL SHR NOT AND OR SWAP1 SSTORE JUMPDEST PUSH1 0x40 MLOAD SWAP1 DUP2 MSTORE LOG1 STOP JUMPDEST ADD MLOAD SWAP1 POP DUP7 DUP1 PUSH2 0x433 JUMP JUMPDEST PUSH1 0x1F NOT DUP3 AND SWAP6 DUP4 PUSH0 MSTORE DUP6 PUSH0 KECCAK256 SWAP2 PUSH0 JUMPDEST DUP9 DUP2 LT PUSH2 0x4C6 JUMPI POP SWAP1 DUP4 SWAP3 SWAP2 PUSH1 0x1 SWAP5 PUSH32 0xF8E1A15ABA9398E019F0B49DF1A4FDE98EE17AE345CB5F6B5E2C27F5033E8CE7 SWAP10 LT PUSH2 0x4AE JUMPI JUMPDEST POP POP POP DUP2 SHL ADD SWAP1 SSTORE PUSH2 0x447 JUMP JUMPDEST ADD MLOAD PUSH0 NOT PUSH1 0xF8 DUP5 PUSH1 0x3 SHL AND SHR NOT AND SWAP1 SSTORE DUP7 DUP1 DUP1 PUSH2 0x4A1 JUMP JUMPDEST SWAP2 SWAP3 DUP8 PUSH1 0x1 DUP2 SWAP3 DUP7 DUP6 ADD MLOAD DUP2 SSTORE ADD SWAP5 ADD SWAP3 ADD PUSH2 0x46A JUMP JUMPDEST DUP3 PUSH0 MSTORE DUP5 PUSH0 KECCAK256 PUSH1 0x1F DUP4 ADD PUSH1 0x5 SHR DUP2 ADD SWAP2 DUP7 DUP5 LT PUSH2 0x516 JUMPI JUMPDEST PUSH1 0x1F ADD PUSH1 0x5 SHR ADD SWAP1 JUMPDEST DUP2 DUP2 LT PUSH2 0x50B JUMPI POP PUSH2 0x3FB JUMP JUMPDEST PUSH0 DUP2 SSTORE PUSH1 0x1 ADD PUSH2 0x4FE JUMP JUMPDEST SWAP1 SWAP2 POP DUP2 SWAP1 PUSH2 0x4F5 JUMP JUMPDEST PUSH4 0x4E487B71 PUSH1 0xE0 SHL PUSH0 MSTORE PUSH1 0x41 PUSH1 0x4 MSTORE PUSH1 0x24 PUSH0 REVERT JUMPDEST DUP4 PUSH2 0x571 SWAP2 PUSH1 0x40 SWAP7 SWAP5 SWAP4 SWAP7 MLOAD DUP1 SWAP4 DUP2 SWAP3 PUSH4 0xA85BD01 PUSH1 0xE1 SHL DUP4 MSTORE CALLER PUSH1 0x4 DUP5 ADD MSTORE PUSH0 PUSH1 0x24 DUP5 ADD MSTORE DUP7 PUSH1 0x44 DUP5 ADD MSTORE PUSH1 0x80 PUSH1 0x64 DUP5 ADD MSTORE PUSH1 0x84 DUP4 ADD SWAP1 PUSH2 0xD05 JUMP JUMPDEST SUB DUP2 PUSH0 DUP10 GAS CALL PUSH0 SWAP2 DUP2 PUSH2 0x609 JUMPI JUMPDEST POP PUSH2 0x5D4 JUMPI POP POP POP RETURNDATASIZE PUSH0 EQ PUSH2 0x5CD JUMPI RETURNDATASIZE PUSH2 0x598 DUP2 PUSH2 0xDB1 JUMP JUMPDEST SWAP1 PUSH2 0x5A6 PUSH1 0x40 MLOAD SWAP3 DUP4 PUSH2 0xD8F JUMP JUMPDEST DUP2 MSTORE RETURNDATASIZE PUSH0 DUP4 DUP4 ADD RETURNDATACOPY JUMPDEST DUP1 MLOAD SWAP2 DUP3 PUSH2 0x5CA JUMPI DUP4 PUSH4 0x32505749 PUSH1 0xE1 SHL PUSH0 MSTORE PUSH1 0x4 MSTORE PUSH1 0x24 PUSH0 REVERT JUMPDEST ADD REVERT JUMPDEST PUSH1 0x60 PUSH2 0x5AF JUMP JUMPDEST SWAP2 SWAP4 SWAP1 SWAP2 PUSH1 0x1 PUSH1 0x1 PUSH1 0xE0 SHL SUB NOT AND PUSH4 0x757A42FF PUSH1 0xE1 SHL ADD PUSH2 0x5F7 JUMPI POP DUP4 DUP1 PUSH2 0x3CA JUMP JUMPDEST PUSH4 0x32505749 PUSH1 0xE1 SHL PUSH0 MSTORE PUSH1 0x4 MSTORE PUSH1 0x24 PUSH0 REVERT JUMPDEST SWAP1 SWAP2 POP DUP5 DUP2 DUP2 RETURNDATASIZE DUP4 GT PUSH2 0x642 JUMPI JUMPDEST PUSH2 0x621 DUP2 DUP4 PUSH2 0xD8F JUMP JUMPDEST DUP2 ADD SUB SLT PUSH2 0x165 JUMPI MLOAD PUSH1 0x1 PUSH1 0x1 PUSH1 0xE0 SHL SUB NOT DUP2 AND DUP2 SUB PUSH2 0x165 JUMPI SWAP1 DUP7 PUSH2 0x57F JUMP JUMPDEST POP RETURNDATASIZE PUSH2 0x617 JUMP JUMPDEST PUSH4 0x39E35637 PUSH1 0xE1 SHL PUSH0 MSTORE PUSH0 PUSH1 0x4 MSTORE PUSH1 0x24 PUSH0 REVERT JUMPDEST PUSH0 DUP7 DUP2 MSTORE PUSH1 0x4 PUSH1 0x20 MSTORE PUSH1 0x40 DUP1 DUP3 KECCAK256 DUP1 SLOAD PUSH1 0x1 PUSH1 0x1 PUSH1 0xA0 SHL SUB NOT AND SWAP1 SSTORE DUP3 DUP3 MSTORE PUSH1 0x3 DUP10 MSTORE SWAP1 KECCAK256 DUP1 SLOAD PUSH0 NOT ADD SWAP1 SSTORE PUSH2 0x364 JUMP JUMPDEST PUSH4 0x32505749 PUSH1 0xE1 SHL PUSH0 MSTORE PUSH0 PUSH1 0x4 MSTORE PUSH1 0x24 PUSH0 REVERT JUMPDEST PUSH4 0x4E487B71 PUSH1 0xE0 SHL PUSH0 MSTORE PUSH1 0x11 PUSH1 0x4 MSTORE PUSH1 0x24 PUSH0 REVERT JUMPDEST PUSH4 0xE2517D3F PUSH1 0xE0 SHL PUSH0 MSTORE CALLER PUSH1 0x4 MSTORE PUSH32 0x9F2DF0FED2C77648DE5860A4CC508CD0818C85B8B8A1AB4CEEEF8D981C8956A6 PUSH1 0x24 MSTORE PUSH1 0x44 PUSH0 REVERT JUMPDEST CALLVALUE PUSH2 0x165 JUMPI PUSH1 0x40 CALLDATASIZE PUSH1 0x3 NOT ADD SLT PUSH2 0x165 JUMPI PUSH2 0x704 PUSH2 0xD29 JUMP JUMPDEST PUSH1 0x24 CALLDATALOAD SWAP1 DUP2 ISZERO ISZERO DUP1 SWAP3 SUB PUSH2 0x165 JUMPI PUSH1 0x1 PUSH1 0x1 PUSH1 0xA0 SHL SUB AND SWAP1 DUP2 ISZERO PUSH2 0x773 JUMPI CALLER PUSH0 MSTORE PUSH1 0x5 PUSH1 0x20 MSTORE PUSH1 0x40 PUSH0 KECCAK256 DUP3 PUSH0 MSTORE PUSH1 0x20 MSTORE PUSH1 0x40 PUSH0 KECCAK256 PUSH1 0xFF NOT DUP2 SLOAD AND PUSH1 0xFF DUP4 AND OR SWAP1 SSTORE PUSH1 0x40 MLOAD SWAP1 DUP2 MSTORE PUSH32 0x17307EAB39AB6107E8899845AD3D59BD9653F200F220920489CA2B5937696C31 PUSH1 0x20 CALLER SWAP3 LOG3 STOP JUMPDEST POP PUSH4 0xB611743 PUSH1 0xE3 SHL PUSH0 MSTORE PUSH1 0x4 MSTORE PUSH1 0x24 PUSH0 REVERT JUMPDEST CALLVALUE PUSH2 0x165 JUMPI PUSH0 CALLDATASIZE PUSH1 0x3 NOT ADD SLT PUSH2 0x165 JUMPI PUSH1 0x20 PUSH1 0x40 MLOAD PUSH0 DUP2 MSTORE RETURN JUMPDEST CALLVALUE PUSH2 0x165 JUMPI PUSH0 CALLDATASIZE PUSH1 0x3 NOT ADD SLT PUSH2 0x165 JUMPI PUSH1 0x40 MLOAD PUSH0 PUSH1 0x1 SLOAD PUSH2 0x7C0 DUP2 PUSH2 0xE03 JUMP JUMPDEST DUP1 DUP5 MSTORE SWAP1 PUSH1 0x1 DUP2 AND SWAP1 DUP2 ISZERO PUSH2 0x846 JUMPI POP PUSH1 0x1 EQ PUSH2 0x7E8 JUMPI JUMPDEST PUSH2 0x21B DUP4 PUSH2 0x207 DUP2 DUP6 SUB DUP3 PUSH2 0xD8F JUMP JUMPDEST SWAP2 SWAP1 POP PUSH1 0x1 PUSH0 MSTORE PUSH32 0xB10E2D527612073B26EECDFD717E6A320CF44B4AFAC2B0732D9FCBE2B7FA0CF6 SWAP2 PUSH0 SWAP1 JUMPDEST DUP1 DUP3 LT PUSH2 0x82C JUMPI POP SWAP1 SWAP2 POP DUP2 ADD PUSH1 0x20 ADD PUSH2 0x207 PUSH2 0x7D8 JUMP JUMPDEST SWAP2 SWAP3 PUSH1 0x1 DUP2 PUSH1 0x20 SWAP3 SLOAD DUP4 DUP6 DUP9 ADD ADD MSTORE ADD SWAP2 ADD SWAP1 SWAP3 SWAP2 PUSH2 0x814 JUMP JUMPDEST PUSH1 0xFF NOT AND PUSH1 0x20 DUP1 DUP7 ADD SWAP2 SWAP1 SWAP2 MSTORE SWAP2 ISZERO ISZERO PUSH1 0x5 SHL DUP5 ADD SWAP1 SWAP2 ADD SWAP2 POP PUSH2 0x207 SWAP1 POP PUSH2 0x7D8 JUMP JUMPDEST CALLVALUE PUSH2 0x165 JUMPI PUSH1 0x40 CALLDATASIZE PUSH1 0x3 NOT ADD SLT PUSH2 0x165 JUMPI PUSH2 0x883 PUSH2 0xD3F JUMP JUMPDEST PUSH1 0x4 CALLDATALOAD PUSH0 MSTORE PUSH1 0x7 PUSH1 0x20 MSTORE PUSH1 0x40 PUSH0 KECCAK256 SWAP1 PUSH1 0x1 DUP1 PUSH1 0xA0 SHL SUB AND PUSH0 MSTORE PUSH1 0x20 MSTORE PUSH1 0x20 PUSH1 0xFF PUSH1 0x40 PUSH0 KECCAK256 SLOAD AND PUSH1 0x40 MLOAD SWAP1 ISZERO ISZERO DUP2 MSTORE RETURN JUMPDEST CALLVALUE PUSH2 0x165 JUMPI PUSH1 0x20 CALLDATASIZE PUSH1 0x3 NOT ADD SLT PUSH2 0x165 JUMPI PUSH1 0x1 PUSH1 0x1 PUSH1 0xA0 SHL SUB PUSH2 0x8D4 PUSH2 0xD29 JUMP JUMPDEST AND DUP1 ISZERO PUSH2 0x8F1 JUMPI PUSH0 MSTORE PUSH1 0x3 PUSH1 0x20 MSTORE PUSH1 0x20 PUSH1 0x40 PUSH0 KECCAK256 SLOAD PUSH1 0x40 MLOAD SWAP1 DUP2 MSTORE RETURN JUMPDEST PUSH4 0x22718AD9 PUSH1 0xE2 SHL PUSH0 MSTORE PUSH0 PUSH1 0x4 MSTORE PUSH1 0x24 PUSH0 REVERT JUMPDEST CALLVALUE PUSH2 0x165 JUMPI PUSH1 0x20 CALLDATASIZE PUSH1 0x3 NOT ADD SLT PUSH2 0x165 JUMPI PUSH1 0x20 PUSH2 0x922 PUSH1 0x4 CALLDATALOAD PUSH2 0x108D JUMP JUMPDEST PUSH1 0x40 MLOAD PUSH1 0x1 PUSH1 0x1 PUSH1 0xA0 SHL SUB SWAP1 SWAP2 AND DUP2 MSTORE RETURN JUMPDEST CALLVALUE PUSH2 0x165 JUMPI PUSH2 0x1AC PUSH2 0x945 CALLDATASIZE PUSH2 0xD55 JUMP JUMPDEST SWAP1 PUSH1 0x40 MLOAD SWAP3 PUSH2 0x955 PUSH1 0x20 DUP6 PUSH2 0xD8F JUMP JUMPDEST PUSH0 DUP5 MSTORE PUSH2 0x285 DUP4 DUP4 DUP4 PUSH2 0xE3B JUMP JUMPDEST CALLVALUE PUSH2 0x165 JUMPI PUSH1 0x20 CALLDATASIZE PUSH1 0x3 NOT ADD SLT PUSH2 0x165 JUMPI PUSH2 0x97C PUSH2 0xD29 JUMP JUMPDEST CALLER PUSH0 SWAP1 DUP2 MSTORE PUSH32 0x6D5257204EBE7D88FD91AE87941CB2DD9D8062B64AE5A2BD2D28EC40B9FBF6DF PUSH1 0x20 MSTORE PUSH1 0x40 SWAP1 KECCAK256 SLOAD PUSH1 0xFF AND ISZERO PUSH2 0x9BB JUMPI PUSH2 0x1AC SWAP1 PUSH2 0x10FB JUMP JUMPDEST PUSH4 0xE2517D3F PUSH1 0xE0 SHL PUSH0 MSTORE CALLER PUSH1 0x4 MSTORE PUSH0 PUSH1 0x24 MSTORE PUSH1 0x44 PUSH0 REVERT JUMPDEST CALLVALUE PUSH2 0x165 JUMPI PUSH1 0x40 CALLDATASIZE PUSH1 0x3 NOT ADD SLT PUSH2 0x165 JUMPI PUSH2 0x9EB PUSH2 0xD3F JUMP JUMPDEST CALLER PUSH1 0x1 PUSH1 0x1 PUSH1 0xA0 SHL SUB DUP3 AND SUB PUSH2 0xA07 JUMPI PUSH2 0x1AC SWAP1 PUSH1 0x4 CALLDATALOAD PUSH2 0x1258 JUMP JUMPDEST PUSH4 0x334BD919 PUSH1 0xE1 SHL PUSH0 MSTORE PUSH1 0x4 PUSH0 REVERT JUMPDEST CALLVALUE PUSH2 0x165 JUMPI PUSH1 0x40 CALLDATASIZE PUSH1 0x3 NOT ADD SLT PUSH2 0x165 JUMPI PUSH2 0x1AC PUSH1 0x4 CALLDATALOAD PUSH2 0xA35 PUSH2 0xD3F JUMP JUMPDEST SWAP1 PUSH2 0xA4F PUSH2 0x1A2 DUP3 PUSH0 MSTORE PUSH1 0x7 PUSH1 0x20 MSTORE PUSH1 0x1 PUSH1 0x40 PUSH0 KECCAK256 ADD SLOAD SWAP1 JUMP JUMPDEST PUSH2 0x11CC JUMP JUMPDEST CALLVALUE PUSH2 0x165 JUMPI PUSH1 0x20 CALLDATASIZE PUSH1 0x3 NOT ADD SLT PUSH2 0x165 JUMPI PUSH1 0x20 PUSH2 0xA7F PUSH1 0x4 CALLDATALOAD PUSH0 MSTORE PUSH1 0x7 PUSH1 0x20 MSTORE PUSH1 0x1 PUSH1 0x40 PUSH0 KECCAK256 ADD SLOAD SWAP1 JUMP JUMPDEST PUSH1 0x40 MLOAD SWAP1 DUP2 MSTORE RETURN JUMPDEST CALLVALUE PUSH2 0x165 JUMPI PUSH2 0x1AC PUSH2 0xA98 CALLDATASIZE PUSH2 0xD55 JUMP JUMPDEST SWAP2 PUSH2 0xE3B JUMP JUMPDEST CALLVALUE PUSH2 0x165 JUMPI PUSH1 0x40 CALLDATASIZE PUSH1 0x3 NOT ADD SLT PUSH2 0x165 JUMPI PUSH2 0xAB7 PUSH2 0xD29 JUMP JUMPDEST PUSH1 0x24 CALLDATALOAD PUSH2 0xAC3 DUP2 PUSH2 0x108D JUMP JUMPDEST CALLER ISZERO ISZERO DUP1 PUSH2 0xB75 JUMPI JUMPDEST DUP1 PUSH2 0xB48 JUMPI JUMPDEST PUSH2 0xB35 JUMPI DUP2 SWAP1 PUSH1 0x1 PUSH1 0x1 PUSH1 0xA0 SHL SUB DUP5 DUP2 AND SWAP2 AND PUSH32 0x8C5BE1E5EBEC7D5BD14F71427D1E84F3DD0314C0F7B2291E5B200AC8C7C3B925 PUSH0 DUP1 LOG4 PUSH0 SWAP1 DUP2 MSTORE PUSH1 0x4 PUSH1 0x20 MSTORE PUSH1 0x40 SWAP1 KECCAK256 DUP1 SLOAD PUSH1 0x1 PUSH1 0x1 PUSH1 0xA0 SHL SUB NOT AND PUSH1 0x1 PUSH1 0x1 PUSH1 0xA0 SHL SUB SWAP1 SWAP3 AND SWAP2 SWAP1 SWAP2 OR SWAP1 SSTORE STOP JUMPDEST PUSH4 0xA9FBF51F PUSH1 0xE0 SHL PUSH0 MSTORE CALLER PUSH1 0x4 MSTORE PUSH1 0x24 PUSH0 REVERT JUMPDEST POP PUSH1 0x1 PUSH1 0x1 PUSH1 0xA0 SHL SUB DUP2 AND PUSH0 SWAP1 DUP2 MSTORE PUSH1 0x5 PUSH1 0x20 SWAP1 DUP2 MSTORE PUSH1 0x40 DUP1 DUP4 KECCAK256 CALLER DUP5 MSTORE SWAP1 SWAP2 MSTORE SWAP1 KECCAK256 SLOAD PUSH1 0xFF AND ISZERO PUSH2 0xAD2 JUMP JUMPDEST POP PUSH1 0x1 PUSH1 0x1 PUSH1 0xA0 SHL SUB DUP2 AND CALLER EQ ISZERO PUSH2 0xACC JUMP JUMPDEST CALLVALUE PUSH2 0x165 JUMPI PUSH1 0x20 CALLDATASIZE PUSH1 0x3 NOT ADD SLT PUSH2 0x165 JUMPI PUSH1 0x4 CALLDATALOAD PUSH2 0xBA5 DUP2 PUSH2 0x108D JUMP JUMPDEST POP PUSH0 MSTORE PUSH1 0x4 PUSH1 0x20 MSTORE PUSH1 0x20 PUSH1 0x1 DUP1 PUSH1 0xA0 SHL SUB PUSH1 0x40 PUSH0 KECCAK256 SLOAD AND PUSH1 0x40 MLOAD SWAP1 DUP2 MSTORE RETURN JUMPDEST CALLVALUE PUSH2 0x165 JUMPI PUSH0 CALLDATASIZE PUSH1 0x3 NOT ADD SLT PUSH2 0x165 JUMPI PUSH1 0x40 MLOAD PUSH0 DUP1 SLOAD PUSH2 0xBE3 DUP2 PUSH2 0xE03 JUMP JUMPDEST DUP1 DUP5 MSTORE SWAP1 PUSH1 0x1 DUP2 AND SWAP1 DUP2 ISZERO PUSH2 0x846 JUMPI POP PUSH1 0x1 EQ PUSH2 0xC0A JUMPI PUSH2 0x21B DUP4 PUSH2 0x207 DUP2 DUP6 SUB DUP3 PUSH2 0xD8F JUMP JUMPDEST PUSH0 DUP1 DUP1 MSTORE PUSH32 0x290DECD9548B62A8D60345A988386FC84BA6BC95484008F6362F93160EF3E563 SWAP4 SWAP3 POP SWAP1 JUMPDEST DUP1 DUP3 LT PUSH2 0xC4C JUMPI POP SWAP1 SWAP2 POP DUP2 ADD PUSH1 0x20 ADD PUSH2 0x207 PUSH2 0x7D8 JUMP JUMPDEST SWAP2 SWAP3 PUSH1 0x1 DUP2 PUSH1 0x20 SWAP3 SLOAD DUP4 DUP6 DUP9 ADD ADD MSTORE ADD SWAP2 ADD SWAP1 SWAP3 SWAP2 PUSH2 0xC34 JUMP JUMPDEST CALLVALUE PUSH2 0x165 JUMPI PUSH1 0x20 CALLDATASIZE PUSH1 0x3 NOT ADD SLT PUSH2 0x165 JUMPI PUSH1 0x4 CALLDATALOAD SWAP1 PUSH4 0xFFFFFFFF PUSH1 0xE0 SHL DUP3 AND DUP1 SWAP3 SUB PUSH2 0x165 JUMPI PUSH1 0x20 SWAP2 PUSH4 0x7965DB0B PUSH1 0xE0 SHL DUP2 EQ SWAP1 DUP2 ISZERO PUSH2 0xCA8 JUMPI JUMPDEST POP ISZERO ISZERO DUP2 MSTORE RETURN JUMPDEST PUSH4 0x24832483 PUSH1 0xE1 SHL DUP2 EQ SWAP2 POP DUP2 ISZERO PUSH2 0xCC2 JUMPI JUMPDEST POP DUP4 PUSH2 0xCA1 JUMP JUMPDEST PUSH4 0x80AC58CD PUSH1 0xE0 SHL DUP2 EQ SWAP2 POP DUP2 ISZERO PUSH2 0xCF4 JUMPI JUMPDEST DUP2 ISZERO PUSH2 0xCE3 JUMPI JUMPDEST POP DUP4 PUSH2 0xCBB JUMP JUMPDEST PUSH4 0x1FFC9A7 PUSH1 0xE0 SHL EQ SWAP1 POP DUP4 PUSH2 0xCDC JUMP JUMPDEST PUSH4 0x5B5E139F PUSH1 0xE0 SHL DUP2 EQ SWAP2 POP PUSH2 0xCD5 JUMP JUMPDEST DUP1 MLOAD DUP1 DUP4 MSTORE PUSH1 0x20 SWAP3 SWAP2 DUP2 SWAP1 DUP5 ADD DUP5 DUP5 ADD MCOPY PUSH0 DUP3 DUP3 ADD DUP5 ADD MSTORE PUSH1 0x1F ADD PUSH1 0x1F NOT AND ADD ADD SWAP1 JUMP JUMPDEST PUSH1 0x4 CALLDATALOAD SWAP1 PUSH1 0x1 PUSH1 0x1 PUSH1 0xA0 SHL SUB DUP3 AND DUP3 SUB PUSH2 0x165 JUMPI JUMP JUMPDEST PUSH1 0x24 CALLDATALOAD SWAP1 PUSH1 0x1 PUSH1 0x1 PUSH1 0xA0 SHL SUB DUP3 AND DUP3 SUB PUSH2 0x165 JUMPI JUMP JUMPDEST PUSH1 0x60 SWAP1 PUSH1 0x3 NOT ADD SLT PUSH2 0x165 JUMPI PUSH1 0x4 CALLDATALOAD PUSH1 0x1 PUSH1 0x1 PUSH1 0xA0 SHL SUB DUP2 AND DUP2 SUB PUSH2 0x165 JUMPI SWAP1 PUSH1 0x24 CALLDATALOAD PUSH1 0x1 PUSH1 0x1 PUSH1 0xA0 SHL SUB DUP2 AND DUP2 SUB PUSH2 0x165 JUMPI SWAP1 PUSH1 0x44 CALLDATALOAD SWAP1 JUMP JUMPDEST SWAP1 PUSH1 0x1F DUP1 NOT SWAP2 ADD AND DUP2 ADD SWAP1 DUP2 LT PUSH8 0xFFFFFFFFFFFFFFFF DUP3 GT OR PUSH2 0x520 JUMPI PUSH1 0x40 MSTORE JUMP JUMPDEST PUSH8 0xFFFFFFFFFFFFFFFF DUP2 GT PUSH2 0x520 JUMPI PUSH1 0x1F ADD PUSH1 0x1F NOT AND PUSH1 0x20 ADD SWAP1 JUMP JUMPDEST SWAP3 SWAP2 SWAP3 PUSH2 0xDD9 DUP3 PUSH2 0xDB1 JUMP JUMPDEST SWAP2 PUSH2 0xDE7 PUSH1 0x40 MLOAD SWAP4 DUP5 PUSH2 0xD8F JUMP JUMPDEST DUP3 SWAP5 DUP2 DUP5 MSTORE DUP2 DUP4 ADD GT PUSH2 0x165 JUMPI DUP3 DUP2 PUSH1 0x20 SWAP4 DUP5 PUSH0 SWAP7 ADD CALLDATACOPY ADD ADD MSTORE JUMP JUMPDEST SWAP1 PUSH1 0x1 DUP3 DUP2 SHR SWAP3 AND DUP1 ISZERO PUSH2 0xE31 JUMPI JUMPDEST PUSH1 0x20 DUP4 LT EQ PUSH2 0xE1D JUMPI JUMP JUMPDEST PUSH4 0x4E487B71 PUSH1 0xE0 SHL PUSH0 MSTORE PUSH1 0x22 PUSH1 0x4 MSTORE PUSH1 0x24 PUSH0 REVERT JUMPDEST SWAP2 PUSH1 0x7F AND SWAP2 PUSH2 0xE12 JUMP JUMPDEST PUSH1 0x1 PUSH1 0x1 PUSH1 0xA0 SHL SUB SWAP1 SWAP2 AND SWAP2 SWAP1 DUP3 ISZERO PUSH2 0x68D JUMPI PUSH0 DUP3 DUP2 MSTORE PUSH1 0x2 PUSH1 0x20 MSTORE PUSH1 0x40 SWAP1 KECCAK256 SLOAD PUSH1 0x1 PUSH1 0x1 PUSH1 0xA0 SHL SUB AND SWAP3 DUP3 SWAP1 CALLER ISZERO ISZERO DUP1 PUSH2 0xF33 JUMPI JUMPDEST POP DUP5 PUSH2 0xF00 JUMPI JUMPDEST DUP1 PUSH0 MSTORE PUSH1 0x3 PUSH1 0x20 MSTORE PUSH1 0x40 PUSH0 KECCAK256 PUSH1 0x1 DUP2 SLOAD ADD SWAP1 SSTORE DUP2 PUSH0 MSTORE PUSH1 0x2 PUSH1 0x20 MSTORE PUSH1 0x40 PUSH0 KECCAK256 DUP2 PUSH12 0xFFFFFFFFFFFFFFFFFFFFFFFF PUSH1 0xA0 SHL DUP3 SLOAD AND OR SWAP1 SSTORE DUP5 PUSH32 0xDDF252AD1BE2C89B69C2B068FC378DAA952BA7F163C4A11628F55A4DF523B3EF PUSH0 DUP1 LOG4 PUSH1 0x1 PUSH1 0x1 PUSH1 0xA0 SHL SUB AND DUP1 DUP4 SUB PUSH2 0xEE8 JUMPI POP POP POP JUMP JUMPDEST PUSH4 0x64283D7B PUSH1 0xE0 SHL PUSH0 MSTORE PUSH1 0x4 MSTORE PUSH1 0x24 MSTORE PUSH1 0x44 MSTORE PUSH1 0x64 PUSH0 REVERT JUMPDEST PUSH0 DUP3 DUP2 MSTORE PUSH1 0x4 PUSH1 0x20 MSTORE PUSH1 0x40 SWAP1 KECCAK256 DUP1 SLOAD PUSH1 0x1 PUSH1 0x1 PUSH1 0xA0 SHL SUB NOT AND SWAP1 SSTORE DUP5 PUSH0 MSTORE PUSH1 0x3 PUSH1 0x20 MSTORE PUSH1 0x40 PUSH0 KECCAK256 PUSH0 NOT DUP2 SLOAD ADD SWAP1 SSTORE PUSH2 0xE78 JUMP JUMPDEST SWAP1 SWAP2 POP DUP1 PUSH2 0xF77 JUMPI JUMPDEST ISZERO PUSH2 0xF49 JUMPI DUP3 SWAP1 PUSH0 PUSH2 0xE71 JUMP JUMPDEST DUP3 DUP5 PUSH2 0xF61 JUMPI PUSH4 0x7E273289 PUSH1 0xE0 SHL PUSH0 MSTORE PUSH1 0x4 MSTORE PUSH1 0x24 PUSH0 REVERT JUMPDEST PUSH4 0x177E802F PUSH1 0xE0 SHL PUSH0 MSTORE CALLER PUSH1 0x4 MSTORE PUSH1 0x24 MSTORE PUSH1 0x44 PUSH0 REVERT JUMPDEST POP CALLER DUP5 EQ DUP1 ISZERO PUSH2 0xFA6 JUMPI JUMPDEST DUP1 PUSH2 0xF3C JUMPI POP PUSH0 DUP4 DUP2 MSTORE PUSH1 0x4 PUSH1 0x20 MSTORE PUSH1 0x40 SWAP1 KECCAK256 SLOAD PUSH1 0x1 PUSH1 0x1 PUSH1 0xA0 SHL SUB AND CALLER EQ PUSH2 0xF3C JUMP JUMPDEST POP PUSH0 DUP5 DUP2 MSTORE PUSH1 0x5 PUSH1 0x20 SWAP1 DUP2 MSTORE PUSH1 0x40 DUP1 DUP4 KECCAK256 CALLER DUP5 MSTORE SWAP1 SWAP2 MSTORE SWAP1 KECCAK256 SLOAD PUSH1 0xFF AND PUSH2 0xF82 JUMP JUMPDEST PUSH2 0xFD1 DUP2 PUSH2 0x108D JUMP JUMPDEST POP PUSH0 MSTORE PUSH1 0x6 PUSH1 0x20 MSTORE PUSH1 0x40 PUSH0 KECCAK256 PUSH1 0x40 MLOAD SWAP1 DUP2 PUSH0 DUP3 SLOAD SWAP3 PUSH2 0xFEF DUP5 PUSH2 0xE03 JUMP JUMPDEST DUP1 DUP5 MSTORE SWAP4 PUSH1 0x1 DUP2 AND SWAP1 DUP2 ISZERO PUSH2 0x106B JUMPI POP PUSH1 0x1 EQ PUSH2 0x1027 JUMPI JUMPDEST POP PUSH2 0x1014 SWAP3 POP SUB DUP3 PUSH2 0xD8F JUMP JUMPDEST PUSH0 PUSH1 0x40 MLOAD PUSH2 0x1023 PUSH1 0x20 DUP3 PUSH2 0xD8F JUMP JUMPDEST MSTORE SWAP1 JUMP JUMPDEST SWAP1 POP PUSH0 SWAP3 SWAP2 SWAP3 MSTORE PUSH1 0x20 PUSH0 KECCAK256 SWAP1 PUSH0 SWAP2 JUMPDEST DUP2 DUP4 LT PUSH2 0x104F JUMPI POP POP SWAP1 PUSH1 0x20 PUSH2 0x1014 SWAP3 DUP3 ADD ADD PUSH0 PUSH2 0x1007 JUMP JUMPDEST PUSH1 0x20 SWAP2 SWAP4 POP DUP1 PUSH1 0x1 SWAP2 SLOAD DUP4 DUP6 DUP9 ADD ADD MSTORE ADD SWAP2 ADD SWAP1 SWAP2 DUP4 SWAP3 PUSH2 0x1036 JUMP JUMPDEST SWAP1 POP PUSH1 0x20 SWAP3 POP PUSH2 0x1014 SWAP5 SWAP2 POP PUSH1 0xFF NOT AND DUP3 DUP5 ADD MSTORE ISZERO ISZERO PUSH1 0x5 SHL DUP3 ADD ADD PUSH0 PUSH2 0x1007 JUMP JUMPDEST PUSH0 DUP2 DUP2 MSTORE PUSH1 0x2 PUSH1 0x20 MSTORE PUSH1 0x40 SWAP1 KECCAK256 SLOAD PUSH1 0x1 PUSH1 0x1 PUSH1 0xA0 SHL SUB AND SWAP1 DUP2 ISZERO PUSH2 0x10AF JUMPI POP SWAP1 JUMP JUMPDEST PUSH4 0x7E273289 PUSH1 0xE0 SHL PUSH0 MSTORE PUSH1 0x4 MSTORE PUSH1 0x24 PUSH0 REVERT JUMPDEST PUSH0 DUP2 DUP2 MSTORE PUSH1 0x7 PUSH1 0x20 SWAP1 DUP2 MSTORE PUSH1 0x40 DUP1 DUP4 KECCAK256 CALLER DUP5 MSTORE SWAP1 SWAP2 MSTORE SWAP1 KECCAK256 SLOAD PUSH1 0xFF AND ISZERO PUSH2 0x10E5 JUMPI POP JUMP JUMPDEST PUSH4 0xE2517D3F PUSH1 0xE0 SHL PUSH0 MSTORE CALLER PUSH1 0x4 MSTORE PUSH1 0x24 MSTORE PUSH1 0x44 PUSH0 REVERT JUMPDEST PUSH1 0x1 PUSH1 0x1 PUSH1 0xA0 SHL SUB DUP2 AND PUSH0 SWAP1 DUP2 MSTORE PUSH32 0xA4BFD7AFE708E2E87E7F0E2AD9B4D545417E0F795F57B5C5AB5D799C565A04F4 PUSH1 0x20 MSTORE PUSH1 0x40 SWAP1 KECCAK256 SLOAD PUSH1 0xFF AND PUSH2 0x11C7 JUMPI PUSH1 0x1 PUSH1 0x1 PUSH1 0xA0 SHL SUB AND PUSH0 DUP2 DUP2 MSTORE PUSH32 0xA4BFD7AFE708E2E87E7F0E2AD9B4D545417E0F795F57B5C5AB5D799C565A04F4 PUSH1 0x20 MSTORE PUSH1 0x40 DUP2 KECCAK256 DUP1 SLOAD PUSH1 0xFF NOT AND PUSH1 0x1 OR SWAP1 SSTORE CALLER SWAP2 SWAP1 PUSH32 0x9F2DF0FED2C77648DE5860A4CC508CD0818C85B8B8A1AB4CEEEF8D981C8956A6 SWAP1 PUSH32 0x2F8788117E7EFF1D82E926EC794901D17C78024A50270940304540A733656F0D SWAP1 DUP1 LOG4 PUSH1 0x1 SWAP1 JUMP JUMPDEST POP PUSH0 SWAP1 JUMP JUMPDEST PUSH0 DUP2 DUP2 MSTORE PUSH1 0x7 PUSH1 0x20 SWAP1 DUP2 MSTORE PUSH1 0x40 DUP1 DUP4 KECCAK256 PUSH1 0x1 PUSH1 0x1 PUSH1 0xA0 SHL SUB DUP7 AND DUP5 MSTORE SWAP1 SWAP2 MSTORE SWAP1 KECCAK256 SLOAD PUSH1 0xFF AND PUSH2 0x1252 JUMPI PUSH0 DUP2 DUP2 MSTORE PUSH1 0x7 PUSH1 0x20 SWAP1 DUP2 MSTORE PUSH1 0x40 DUP1 DUP4 KECCAK256 PUSH1 0x1 PUSH1 0x1 PUSH1 0xA0 SHL SUB SWAP6 SWAP1 SWAP6 AND DUP1 DUP5 MSTORE SWAP5 SWAP1 SWAP2 MSTORE DUP2 KECCAK256 DUP1 SLOAD PUSH1 0xFF NOT AND PUSH1 0x1 OR SWAP1 SSTORE CALLER SWAP3 SWAP2 SWAP1 PUSH32 0x2F8788117E7EFF1D82E926EC794901D17C78024A50270940304540A733656F0D SWAP1 DUP1 LOG4 PUSH1 0x1 SWAP1 JUMP JUMPDEST POP POP PUSH0 SWAP1 JUMP JUMPDEST PUSH0 DUP2 DUP2 MSTORE PUSH1 0x7 PUSH1 0x20 SWAP1 DUP2 MSTORE PUSH1 0x40 DUP1 DUP4 KECCAK256 PUSH1 0x1 PUSH1 0x1 PUSH1 0xA0 SHL SUB DUP7 AND DUP5 MSTORE SWAP1 SWAP2 MSTORE SWAP1 KECCAK256 SLOAD PUSH1 0xFF AND ISZERO PUSH2 0x1252 JUMPI PUSH0 DUP2 DUP2 MSTORE PUSH1 0x7 PUSH1 0x20 SWAP1 DUP2 MSTORE PUSH1 0x40 DUP1 DUP4 KECCAK256 PUSH1 0x1 PUSH1 0x1 PUSH1 0xA0 SHL SUB SWAP6 SWAP1 SWAP6 AND DUP1 DUP5 MSTORE SWAP5 SWAP1 SWAP2 MSTORE DUP2 KECCAK256 DUP1 SLOAD PUSH1 0xFF NOT AND SWAP1 SSTORE CALLER SWAP3 SWAP2 SWAP1 PUSH32 0xF6391F5C32D9C69D2A47EA670B442974B53935D1EDC7FD64EB21E047A839171B SWAP1 DUP1 LOG4 PUSH1 0x1 SWAP1 JUMP JUMPDEST DUP3 EXTCODESIZE PUSH2 0x12EA JUMPI JUMPDEST POP POP POP POP POP JUMP JUMPDEST PUSH1 0x40 MLOAD PUSH4 0xA85BD01 PUSH1 0xE1 SHL DUP2 MSTORE PUSH1 0x1 PUSH1 0x1 PUSH1 0xA0 SHL SUB SWAP2 DUP3 AND PUSH1 0x4 DUP3 ADD MSTORE SWAP2 DUP2 AND PUSH1 0x24 DUP4 ADD MSTORE PUSH1 0x44 DUP3 ADD SWAP4 SWAP1 SWAP4 MSTORE PUSH1 0x80 PUSH1 0x64 DUP3 ADD MSTORE SWAP2 AND SWAP2 PUSH1 0x20 SWAP1 DUP3 SWAP1 DUP2 SWAP1 PUSH2 0x1336 SWAP1 PUSH1 0x84 DUP4 ADD SWAP1 PUSH2 0xD05 JUMP JUMPDEST SUB DUP2 PUSH0 DUP7 GAS CALL PUSH0 SWAP2 DUP2 PUSH2 0x13BB JUMPI JUMPDEST POP PUSH2 0x1399 JUMPI POP RETURNDATASIZE ISZERO PUSH2 0x1392 JUMPI RETURNDATASIZE PUSH2 0x135A DUP2 PUSH2 0xDB1 JUMP JUMPDEST SWAP1 PUSH2 0x1368 PUSH1 0x40 MLOAD SWAP3 DUP4 PUSH2 0xD8F JUMP JUMPDEST DUP2 MSTORE RETURNDATASIZE PUSH0 PUSH1 0x20 DUP4 ADD RETURNDATACOPY JUMPDEST DUP1 MLOAD SWAP1 DUP2 PUSH2 0x138D JUMPI DUP3 PUSH4 0x32505749 PUSH1 0xE1 SHL PUSH0 MSTORE PUSH1 0x4 MSTORE PUSH1 0x24 PUSH0 REVERT JUMPDEST PUSH1 0x20 ADD REVERT JUMPDEST PUSH1 0x60 PUSH2 0x1372 JUMP JUMPDEST PUSH1 0x1 PUSH1 0x1 PUSH1 0xE0 SHL SUB NOT AND PUSH4 0x757A42FF PUSH1 0xE1 SHL ADD PUSH2 0x5F7 JUMPI POP PUSH0 DUP1 DUP1 DUP1 DUP1 PUSH2 0x12E3 JUMP JUMPDEST SWAP1 SWAP2 POP PUSH1 0x20 DUP2 RETURNDATASIZE PUSH1 0x20 GT PUSH2 0x13F8 JUMPI JUMPDEST DUP2 PUSH2 0x13D7 PUSH1 0x20 SWAP4 DUP4 PUSH2 0xD8F JUMP JUMPDEST DUP2 ADD SUB SLT PUSH2 0x165 JUMPI MLOAD PUSH1 0x1 PUSH1 0x1 PUSH1 0xE0 SHL SUB NOT DUP2 AND DUP2 SUB PUSH2 0x165 JUMPI SWAP1 PUSH0 PUSH2 0x1344 JUMP JUMPDEST RETURNDATASIZE SWAP2 POP PUSH2 0x13CA JUMP INVALID LOG2 PUSH5 0x6970667358 0x22 SLT KECCAK256 CODECOPY PUSH11 0x5993613C8D5C0959C6105 0xCE BASEFEE SWAP7 0x1E 0x4C SWAP7 SWAP14 EXTCODECOPY 0xFB MSTORE8 DUP3 CALLCODE PUSH26 0x3A541227F80364736F6C634300081A00336D5257204EBE7D88FD SWAP2 0xAE DUP8 SWAP5 SHR 0xB2 0xDD SWAP14 DUP1 PUSH3 0xB64AE5 LOG2 0xBD 0x2D 0x28 0xEC BLOCKHASH 0xB9 0xFB 0xF6 0xDF "
		},
		"gasEstimates": {
			"creation": {
				"codeDepositCost": "1034800",
				"executionCost": "infinite",
				"totalCost": "infinite"
			},
			"external": {
				"DEFAULT_ADMIN_ROLE()": "460",
				"MINTER_ROLE()": "571",
				"approve(address,uint256)": "31146",
				"balanceOf(address)": "2667",
				"getApproved(uint256)": "4625",
				"getRoleAdmin(bytes32)": "2452",
				"grantMinterRole(address)": "31017",
				"grantRole(bytes32,address)": "33409",
				"hasRole(bytes32,address)": "2749",
				"isApprovedForAll(address,address)": "3032",
				"mintDiplome(address,string)": "infinite",
				"name()": "infinite",
				"ownerOf(uint256)": "2638",
				"renounceRole(bytes32,address)": "28995",
				"revokeRole(bytes32,address)": "33714",
				"safeTransferFrom(address,address,uint256)": "infinite",
				"safeTransferFrom(address,address,uint256,bytes)": "infinite",
				"setApprovalForAll(address,bool)": "26752",
				"supportsInterface(bytes4)": "436",
				"symbol()": "infinite",
				"tokenURI(uint256)": "infinite",
				"transferFrom(address,address,uint256)": "106345"
			}
		},
		"methodIdentifiers": {
			"DEFAULT_ADMIN_ROLE()": "a217fddf",
			"MINTER_ROLE()": "d5391393",
			"approve(address,uint256)": "095ea7b3",
			"balanceOf(address)": "70a08231",
			"getApproved(uint256)": "081812fc",
			"getRoleAdmin(bytes32)": "248a9ca3",
			"grantMinterRole(address)": "3dd1eb61",
			"grantRole(bytes32,address)": "2f2ff15d",
			"hasRole(bytes32,address)": "91d14854",
			"isApprovedForAll(address,address)": "e985e9c5",
			"mintDiplome(address,string)": "b76e8008",
			"name()": "06fdde03",
			"ownerOf(uint256)": "6352211e",
			"renounceRole(bytes32,address)": "36568abe",
			"revokeRole(bytes32,address)": "d547741f",
			"safeTransferFrom(address,address,uint256)": "42842e0e",
			"safeTransferFrom(address,address,uint256,bytes)": "b88d4fde",
			"setApprovalForAll(address,bool)": "a22cb465",
			"supportsInterface(bytes4)": "01ffc9a7",
			"symbol()": "95d89b41",
			"tokenURI(uint256)": "c87b56dd",
			"transferFrom(address,address,uint256)": "23b872dd"
		}
	},
	"abi": [
		{
			"inputs": [],
			"stateMutability": "nonpayable",
			"type": "constructor"
		},
		{
			"inputs": [],
			"name": "AccessControlBadConfirmation",
			"type": "error"
		},
		{
			"inputs": [
				{
					"internalType": "address",
					"name": "account",
					"type": "address"
				},
				{
					"internalType": "bytes32",
					"name": "neededRole",
					"type": "bytes32"
				}
			],
			"name": "AccessControlUnauthorizedAccount",
			"type": "error"
		},
		{
			"inputs": [
				{
					"internalType": "address",
					"name": "sender",
					"type": "address"
				},
				{
					"internalType": "uint256",
					"name": "tokenId",
					"type": "uint256"
				},
				{
					"internalType": "address",
					"name": "owner",
					"type": "address"
				}
			],
			"name": "ERC721IncorrectOwner",
			"type": "error"
		},
		{
			"inputs": [
				{
					"internalType": "address",
					"name": "operator",
					"type": "address"
				},
				{
					"internalType": "uint256",
					"name": "tokenId",
					"type": "uint256"
				}
			],
			"name": "ERC721InsufficientApproval",
			"type": "error"
		},
		{
			"inputs": [
				{
					"internalType": "address",
					"name": "approver",
					"type": "address"
				}
			],
			"name": "ERC721InvalidApprover",
			"type": "error"
		},
		{
			"inputs": [
				{
					"internalType": "address",
					"name": "operator",
					"type": "address"
				}
			],
			"name": "ERC721InvalidOperator",
			"type": "error"
		},
		{
			"inputs": [
				{
					"internalType": "address",
					"name": "owner",
					"type": "address"
				}
			],
			"name": "ERC721InvalidOwner",
			"type": "error"
		},
		{
			"inputs": [
				{
					"internalType": "address",
					"name": "receiver",
					"type": "address"
				}
			],
			"name": "ERC721InvalidReceiver",
			"type": "error"
		},
		{
			"inputs": [
				{
					"internalType": "address",
					"name": "sender",
					"type": "address"
				}
			],
			"name": "ERC721InvalidSender",
			"type": "error"
		},
		{
			"inputs": [
				{
					"internalType": "uint256",
					"name": "tokenId",
					"type": "uint256"
				}
			],
			"name": "ERC721NonexistentToken",
			"type": "error"
		},
		{
			"anonymous": false,
			"inputs": [
				{
					"indexed": true,
					"internalType": "address",
					"name": "owner",
					"type": "address"
				},
				{
					"indexed": true,
					"internalType": "address",
					"name": "approved",
					"type": "address"
				},
				{
					"indexed": true,
					"internalType": "uint256",
					"name": "tokenId",
					"type": "uint256"
				}
			],
			"name": "Approval",
			"type": "event"
		},
		{
			"anonymous": false,
			"inputs": [
				{
					"indexed": true,
					"internalType": "address",
					"name": "owner",
					"type": "address"
				},
				{
					"indexed": true,
					"internalType": "address",
					"name": "operator",
					"type": "address"
				},
				{
					"indexed": false,
					"internalType": "bool",
					"name": "approved",
					"type": "bool"
				}
			],
			"name": "ApprovalForAll",
			"type": "event"
		},
		{
			"anonymous": false,
			"inputs": [
				{
					"indexed": false,
					"internalType": "uint256",
					"name": "_fromTokenId",
					"type": "uint256"
				},
				{
					"indexed": false,
					"internalType": "uint256",
					"name": "_toTokenId",
					"type": "uint256"
				}
			],
			"name": "BatchMetadataUpdate",
			"type": "event"
		},
		{
			"anonymous": false,
			"inputs": [
				{
					"indexed": false,
					"internalType": "uint256",
					"name": "_tokenId",
					"type": "uint256"
				}
			],
			"name": "MetadataUpdate",
			"type": "event"
		},
		{
			"anonymous": false,
			"inputs": [
				{
					"indexed": true,
					"internalType": "bytes32",
					"name": "role",
					"type": "bytes32"
				},
				{
					"indexed": true,
					"internalType": "bytes32",
					"name": "previousAdminRole",
					"type": "bytes32"
				},
				{
					"indexed": true,
					"internalType": "bytes32",
					"name": "newAdminRole",
					"type": "bytes32"
				}
			],
			"name": "RoleAdminChanged",
			"type": "event"
		},
		{
			"anonymous": false,
			"inputs": [
				{
					"indexed": true,
					"internalType": "bytes32",
					"name": "role",
					"type": "bytes32"
				},
				{
					"indexed": true,
					"internalType": "address",
					"name": "account",
					"type": "address"
				},
				{
					"indexed": true,
					"internalType": "address",
					"name": "sender",
					"type": "address"
				}
			],
			"name": "RoleGranted",
			"type": "event"
		},
		{
			"anonymous": false,
			"inputs": [
				{
					"indexed": true,
					"internalType": "bytes32",
					"name": "role",
					"type": "bytes32"
				},
				{
					"indexed": true,
					"internalType": "address",
					"name": "account",
					"type": "address"
				},
				{
					"indexed": true,
					"internalType": "address",
					"name": "sender",
					"type": "address"
				}
			],
			"name": "RoleRevoked",
			"type": "event"
		},
		{
			"anonymous": false,
			"inputs": [
				{
					"indexed": true,
					"internalType": "address",
					"name": "from",
					"type": "address"
				},
				{
					"indexed": true,
					"internalType": "address",
					"name": "to",
					"type": "address"
				},
				{
					"indexed": true,
					"internalType": "uint256",
					"name": "tokenId",
					"type": "uint256"
				}
			],
			"name": "Transfer",
			"type": "event"
		},
		{
			"inputs": [],
			"name": "DEFAULT_ADMIN_ROLE",
			"outputs": [
				{
					"internalType": "bytes32",
					"name": "",
					"type": "bytes32"
				}
			],
			"stateMutability": "view",
			"type": "function"
		},
		{
			"inputs": [],
			"name": "MINTER_ROLE",
			"outputs": [
				{
					"internalType": "bytes32",
					"name": "",
					"type": "bytes32"
				}
			],
			"stateMutability": "view",
			"type": "function"
		},
		{
			"inputs": [
				{
					"internalType": "address",
					"name": "to",
					"type": "address"
				},
				{
					"internalType": "uint256",
					"name": "tokenId",
					"type": "uint256"
				}
			],
			"name": "approve",
			"outputs": [],
			"stateMutability": "nonpayable",
			"type": "function"
		},
		{
			"inputs": [
				{
					"internalType": "address",
					"name": "owner",
					"type": "address"
				}
			],
			"name": "balanceOf",
			"outputs": [
				{
					"internalType": "uint256",
					"name": "",
					"type": "uint256"
				}
			],
			"stateMutability": "view",
			"type": "function"
		},
		{
			"inputs": [
				{
					"internalType": "uint256",
					"name": "tokenId",
					"type": "uint256"
				}
			],
			"name": "getApproved",
			"outputs": [
				{
					"internalType": "address",
					"name": "",
					"type": "address"
				}
			],
			"stateMutability": "view",
			"type": "function"
		},
		{
			"inputs": [
				{
					"internalType": "bytes32",
					"name": "role",
					"type": "bytes32"
				}
			],
			"name": "getRoleAdmin",
			"outputs": [
				{
					"internalType": "bytes32",
					"name": "",
					"type": "bytes32"
				}
			],
			"stateMutability": "view",
			"type": "function"
		},
		{
			"inputs": [
				{
					"internalType": "address",
					"name": "_establishment",
					"type": "address"
				}
			],
			"name": "grantMinterRole",
			"outputs": [],
			"stateMutability": "nonpayable",
			"type": "function"
		},
		{
			"inputs": [
				{
					"internalType": "bytes32",
					"name": "role",
					"type": "bytes32"
				},
				{
					"internalType": "address",
					"name": "account",
					"type": "address"
				}
			],
			"name": "grantRole",
			"outputs": [],
			"stateMutability": "nonpayable",
			"type": "function"
		},
		{
			"inputs": [
				{
					"internalType": "bytes32",
					"name": "role",
					"type": "bytes32"
				},
				{
					"internalType": "address",
					"name": "account",
					"type": "address"
				}
			],
			"name": "hasRole",
			"outputs": [
				{
					"internalType": "bool",
					"name": "",
					"type": "bool"
				}
			],
			"stateMutability": "view",
			"type": "function"
		},
		{
			"inputs": [
				{
					"internalType": "address",
					"name": "owner",
					"type": "address"
				},
				{
					"internalType": "address",
					"name": "operator",
					"type": "address"
				}
			],
			"name": "isApprovedForAll",
			"outputs": [
				{
					"internalType": "bool",
					"name": "",
					"type": "bool"
				}
			],
			"stateMutability": "view",
			"type": "function"
		},
		{
			"inputs": [
				{
					"internalType": "address",
					"name": "recipient",
					"type": "address"
				},
				{
					"internalType": "string",
					"name": "tokenURI_",
					"type": "string"
				}
			],
			"name": "mintDiplome",
			"outputs": [],
			"stateMutability": "nonpayable",
			"type": "function"
		},
		{
			"inputs": [],
			"name": "name",
			"outputs": [
				{
					"internalType": "string",
					"name": "",
					"type": "string"
				}
			],
			"stateMutability": "view",
			"type": "function"
		},
		{
			"inputs": [
				{
					"internalType": "uint256",
					"name": "tokenId",
					"type": "uint256"
				}
			],
			"name": "ownerOf",
			"outputs": [
				{
					"internalType": "address",
					"name": "",
					"type": "address"
				}
			],
			"stateMutability": "view",
			"type": "function"
		},
		{
			"inputs": [
				{
					"internalType": "bytes32",
					"name": "role",
					"type": "bytes32"
				},
				{
					"internalType": "address",
					"name": "callerConfirmation",
					"type": "address"
				}
			],
			"name": "renounceRole",
			"outputs": [],
			"stateMutability": "nonpayable",
			"type": "function"
		},
		{
			"inputs": [
				{
					"internalType": "bytes32",
					"name": "role",
					"type": "bytes32"
				},
				{
					"internalType": "address",
					"name": "account",
					"type": "address"
				}
			],
			"name": "revokeRole",
			"outputs": [],
			"stateMutability": "nonpayable",
			"type": "function"
		},
		{
			"inputs": [
				{
					"internalType": "address",
					"name": "from",
					"type": "address"
				},
				{
					"internalType": "address",
					"name": "to",
					"type": "address"
				},
				{
					"internalType": "uint256",
					"name": "tokenId",
					"type": "uint256"
				}
			],
			"name": "safeTransferFrom",
			"outputs": [],
			"stateMutability": "nonpayable",
			"type": "function"
		},
		{
			"inputs": [
				{
					"internalType": "address",
					"name": "from",
					"type": "address"
				},
				{
					"internalType": "address",
					"name": "to",
					"type": "address"
				},
				{
					"internalType": "uint256",
					"name": "tokenId",
					"type": "uint256"
				},
				{
					"internalType": "bytes",
					"name": "data",
					"type": "bytes"
				}
			],
			"name": "safeTransferFrom",
			"outputs": [],
			"stateMutability": "nonpayable",
			"type": "function"
		},
		{
			"inputs": [
				{
					"internalType": "address",
					"name": "operator",
					"type": "address"
				},
				{
					"internalType": "bool",
					"name": "approved",
					"type": "bool"
				}
			],
			"name": "setApprovalForAll",
			"outputs": [],
			"stateMutability": "nonpayable",
			"type": "function"
		},
		{
			"inputs": [
				{
					"internalType": "bytes4",
					"name": "interfaceId",
					"type": "bytes4"
				}
			],
			"name": "supportsInterface",
			"outputs": [
				{
					"internalType": "bool",
					"name": "",
					"type": "bool"
				}
			],
			"stateMutability": "view",
			"type": "function"
		},
		{
			"inputs": [],
			"name": "symbol",
			"outputs": [
				{
					"internalType": "string",
					"name": "",
					"type": "string"
				}
			],
			"stateMutability": "view",
			"type": "function"
		},
		{
			"inputs": [
				{
					"internalType": "uint256",
					"name": "tokenId",
					"type": "uint256"
				}
			],
			"name": "tokenURI",
			"outputs": [
				{
					"internalType": "string",
					"name": "",
					"type": "string"
				}
			],
			"stateMutability": "view",
			"type": "function"
		},
		{
			"inputs": [
				{
					"internalType": "address",
					"name": "from",
					"type": "address"
				},
				{
					"internalType": "address",
					"name": "to",
					"type": "address"
				},
				{
					"internalType": "uint256",
					"name": "tokenId",
					"type": "uint256"
				}
			],
			"name": "transferFrom",
			"outputs": [],
			"stateMutability": "nonpayable",
			"type": "function"
		}
	]
}